{
	"OMS/oms.sol": {
		"OMS_COVID": {
			"abi": [
				{
					"inputs": [],
					"stateMutability": "nonpayable",
					"type": "constructor"
				},
				{
					"anonymous": false,
					"inputs": [
						{
							"indexed": false,
							"internalType": "address",
							"name": "",
							"type": "address"
						}
					],
					"name": "NuevoCentroValidado",
					"type": "event"
				},
				{
					"anonymous": false,
					"inputs": [
						{
							"indexed": false,
							"internalType": "address",
							"name": "",
							"type": "address"
						},
						{
							"indexed": false,
							"internalType": "address",
							"name": "",
							"type": "address"
						}
					],
					"name": "NuevoContrato",
					"type": "event"
				},
				{
					"anonymous": false,
					"inputs": [
						{
							"indexed": false,
							"internalType": "address",
							"name": "",
							"type": "address"
						}
					],
					"name": "SolicitudAcceso",
					"type": "event"
				},
				{
					"inputs": [
						{
							"internalType": "address",
							"name": "",
							"type": "address"
						}
					],
					"name": "CentroSalud_contrato",
					"outputs": [
						{
							"internalType": "address",
							"name": "",
							"type": "address"
						}
					],
					"stateMutability": "view",
					"type": "function"
				},
				{
					"inputs": [
						{
							"internalType": "address",
							"name": "_centroSalud",
							"type": "address"
						}
					],
					"name": "CentrosSalud",
					"outputs": [],
					"stateMutability": "nonpayable",
					"type": "function"
				},
				{
					"inputs": [],
					"name": "FactoryCentroSalud",
					"outputs": [],
					"stateMutability": "nonpayable",
					"type": "function"
				},
				{
					"inputs": [],
					"name": "OMS",
					"outputs": [
						{
							"internalType": "address",
							"name": "",
							"type": "address"
						}
					],
					"stateMutability": "view",
					"type": "function"
				},
				{
					"inputs": [],
					"name": "SolicitarAcceso",
					"outputs": [],
					"stateMutability": "nonpayable",
					"type": "function"
				},
				{
					"inputs": [],
					"name": "VisualizarSolicitudes",
					"outputs": [
						{
							"internalType": "address[]",
							"name": "",
							"type": "address[]"
						}
					],
					"stateMutability": "view",
					"type": "function"
				},
				{
					"inputs": [
						{
							"internalType": "uint256",
							"name": "",
							"type": "uint256"
						}
					],
					"name": "direcciones_contratos_salud",
					"outputs": [
						{
							"internalType": "address",
							"name": "",
							"type": "address"
						}
					],
					"stateMutability": "view",
					"type": "function"
				}
			],
			"devdoc": {
				"kind": "dev",
				"methods": {},
				"version": 1
			},
			"evm": {
				"assembly": "    /* \"OMS/oms.sol\":107:3017  contract OMS_COVID{\r... */\n  mstore(0x40, 0x80)\n    /* \"OMS/oms.sol\":251:306  constructor() public{\r... */\n  callvalue\n  dup1\n  iszero\n  tag_1\n  jumpi\n  0x00\n  dup1\n  revert\ntag_1:\n  pop\n    /* \"OMS/oms.sol\":288:298  msg.sender */\n  caller\n    /* \"OMS/oms.sol\":282:285  OMS */\n  0x00\n  dup1\n    /* \"OMS/oms.sol\":282:298  OMS = msg.sender */\n  0x0100\n  exp\n  dup2\n  sload\n  dup2\n  0xffffffffffffffffffffffffffffffffffffffff\n  mul\n  not\n  and\n  swap1\n  dup4\n  0xffffffffffffffffffffffffffffffffffffffff\n  and\n  mul\n  or\n  swap1\n  sstore\n  pop\n    /* \"OMS/oms.sol\":107:3017  contract OMS_COVID{\r... */\n  dataSize(sub_0)\n  dup1\n  dataOffset(sub_0)\n  0x00\n  codecopy\n  0x00\n  return\nstop\n\nsub_0: assembly {\n        /* \"OMS/oms.sol\":107:3017  contract OMS_COVID{\r... */\n      mstore(0x40, 0x80)\n      callvalue\n      dup1\n      iszero\n      tag_1\n      jumpi\n      0x00\n      dup1\n      revert\n    tag_1:\n      pop\n      jumpi(tag_2, lt(calldatasize, 0x04))\n      shr(0xe0, calldataload(0x00))\n      dup1\n      0x7610d05d\n      gt\n      tag_10\n      jumpi\n      dup1\n      0x7610d05d\n      eq\n      tag_6\n      jumpi\n      dup1\n      0x9687a42c\n      eq\n      tag_7\n      jumpi\n      dup1\n      0xbacf5ac7\n      eq\n      tag_8\n      jumpi\n      dup1\n      0xfb8081b8\n      eq\n      tag_9\n      jumpi\n      jump(tag_2)\n    tag_10:\n      dup1\n      0x057dd608\n      eq\n      tag_3\n      jumpi\n      dup1\n      0x0eb79cda\n      eq\n      tag_4\n      jumpi\n      dup1\n      0x190318dd\n      eq\n      tag_5\n      jumpi\n    tag_2:\n      0x00\n      dup1\n      revert\n        /* \"OMS/oms.sol\":192:210  address public OMS */\n    tag_3:\n      tag_11\n      tag_12\n      jump\t// in\n    tag_11:\n      mload(0x40)\n      tag_13\n      swap2\n      swap1\n      tag_14\n      jump\t// in\n    tag_13:\n      mload(0x40)\n      dup1\n      swap2\n      sub\n      swap1\n      return\n        /* \"OMS/oms.sol\":1678:1812  function VisualizarSolicitudes() public view UnicamenteOMS(msg.sender) returns( address[] memory){\r... */\n    tag_4:\n      tag_15\n      tag_16\n      jump\t// in\n    tag_15:\n      mload(0x40)\n      tag_17\n      swap2\n      swap1\n      tag_18\n      jump\t// in\n    tag_17:\n      mload(0x40)\n      dup1\n      swap2\n      sub\n      swap1\n      return\n        /* \"OMS/oms.sol\":1378:1592  function SolicitarAcceso() public{\r... */\n    tag_5:\n      tag_19\n      tag_20\n      jump\t// in\n    tag_19:\n      stop\n        /* \"OMS/oms.sol\":811:856  address [] public direcciones_contratos_salud */\n    tag_6:\n      tag_21\n      0x04\n      dup1\n      calldatasize\n      sub\n      dup2\n      add\n      swap1\n      tag_22\n      swap2\n      swap1\n      tag_23\n      jump\t// in\n    tag_22:\n      tag_24\n      jump\t// in\n    tag_21:\n      mload(0x40)\n      tag_25\n      swap2\n      swap1\n      tag_14\n      jump\t// in\n    tag_25:\n      mload(0x40)\n      dup1\n      swap2\n      sub\n      swap1\n      return\n        /* \"OMS/oms.sol\":2267:3012  function FactoryCentroSalud() public{\r... */\n    tag_7:\n      tag_26\n      tag_27\n      jump\t// in\n    tag_26:\n      stop\n        /* \"OMS/oms.sol\":1917:2198  function CentrosSalud(address _centroSalud) public UnicamenteOMS(msg.sender){\r... */\n    tag_8:\n      tag_28\n      0x04\n      dup1\n      calldatasize\n      sub\n      dup2\n      add\n      swap1\n      tag_29\n      swap2\n      swap1\n      tag_30\n      jump\t// in\n    tag_29:\n      tag_31\n      jump\t// in\n    tag_28:\n      stop\n        /* \"OMS/oms.sol\":551:606  mapping(address => address) public CentroSalud_contrato */\n    tag_9:\n      tag_32\n      0x04\n      dup1\n      calldatasize\n      sub\n      dup2\n      add\n      swap1\n      tag_33\n      swap2\n      swap1\n      tag_30\n      jump\t// in\n    tag_33:\n      tag_34\n      jump\t// in\n    tag_32:\n      mload(0x40)\n      tag_35\n      swap2\n      swap1\n      tag_14\n      jump\t// in\n    tag_35:\n      mload(0x40)\n      dup1\n      swap2\n      sub\n      swap1\n      return\n        /* \"OMS/oms.sol\":192:210  address public OMS */\n    tag_12:\n      0x00\n      dup1\n      sload\n      swap1\n      0x0100\n      exp\n      swap1\n      div\n      0xffffffffffffffffffffffffffffffffffffffff\n      and\n      dup2\n      jump\t// out\n        /* \"OMS/oms.sol\":1678:1812  function VisualizarSolicitudes() public view UnicamenteOMS(msg.sender) returns( address[] memory){\r... */\n    tag_16:\n        /* \"OMS/oms.sol\":1758:1774  address[] memory */\n      0x60\n        /* \"OMS/oms.sol\":1737:1747  msg.sender */\n      caller\n        /* \"OMS/oms.sol\":1241:1244  OMS */\n      0x00\n      dup1\n      sload\n      swap1\n      0x0100\n      exp\n      swap1\n      div\n      0xffffffffffffffffffffffffffffffffffffffff\n      and\n        /* \"OMS/oms.sol\":1227:1244  _direccion == OMS */\n      0xffffffffffffffffffffffffffffffffffffffff\n      and\n        /* \"OMS/oms.sol\":1227:1237  _direccion */\n      dup2\n        /* \"OMS/oms.sol\":1227:1244  _direccion == OMS */\n      0xffffffffffffffffffffffffffffffffffffffff\n      and\n      eq\n        /* \"OMS/oms.sol\":1219:1295  require(_direccion == OMS, \"No tienes permisos para realizar esta funcion.\") */\n      tag_37\n      jumpi\n      mload(0x40)\n      0x08c379a000000000000000000000000000000000000000000000000000000000\n      dup2\n      mstore\n      0x04\n      add\n      tag_38\n      swap1\n      tag_39\n      jump\t// in\n    tag_38:\n      mload(0x40)\n      dup1\n      swap2\n      sub\n      swap1\n      revert\n    tag_37:\n        /* \"OMS/oms.sol\":1793:1804  Solicitudes */\n      0x04\n        /* \"OMS/oms.sol\":1786:1804  return Solicitudes */\n      dup1\n      sload\n      dup1\n      0x20\n      mul\n      0x20\n      add\n      mload(0x40)\n      swap1\n      dup2\n      add\n      0x40\n      mstore\n      dup1\n      swap3\n      swap2\n      swap1\n      dup2\n      dup2\n      mstore\n      0x20\n      add\n      dup3\n      dup1\n      sload\n      dup1\n      iszero\n      tag_41\n      jumpi\n      0x20\n      mul\n      dup3\n      add\n      swap2\n      swap1\n      0x00\n      mstore\n      keccak256(0x00, 0x20)\n      swap1\n    tag_42:\n      dup2\n      0x00\n      swap1\n      sload\n      swap1\n      0x0100\n      exp\n      swap1\n      div\n      0xffffffffffffffffffffffffffffffffffffffff\n      and\n      0xffffffffffffffffffffffffffffffffffffffff\n      and\n      dup2\n      mstore\n      0x20\n      add\n      swap1\n      0x01\n      add\n      swap1\n      dup1\n      dup4\n      gt\n      tag_42\n      jumpi\n    tag_41:\n      pop\n      pop\n      pop\n      pop\n      pop\n      swap2\n      pop\n        /* \"OMS/oms.sol\":1678:1812  function VisualizarSolicitudes() public view UnicamenteOMS(msg.sender) returns( address[] memory){\r... */\n      pop\n      swap1\n      jump\t// out\n        /* \"OMS/oms.sol\":1378:1592  function SolicitarAcceso() public{\r... */\n    tag_20:\n        /* \"OMS/oms.sol\":1483:1494  Solicitudes */\n      0x04\n        /* \"OMS/oms.sol\":1500:1510  msg.sender */\n      caller\n        /* \"OMS/oms.sol\":1483:1511  Solicitudes.push(msg.sender) */\n      swap1\n      dup1\n      0x01\n      dup2\n      sload\n      add\n      dup1\n      dup3\n      sstore\n      dup1\n      swap2\n      pop\n      pop\n      0x01\n      swap1\n      sub\n      swap1\n      0x00\n      mstore\n      keccak256(0x00, 0x20)\n      add\n      0x00\n      swap1\n      swap2\n      swap1\n      swap2\n      swap1\n      swap2\n      0x0100\n      exp\n      dup2\n      sload\n      dup2\n      0xffffffffffffffffffffffffffffffffffffffff\n      mul\n      not\n      and\n      swap1\n      dup4\n      0xffffffffffffffffffffffffffffffffffffffff\n      and\n      mul\n      or\n      swap1\n      sstore\n      pop\n        /* \"OMS/oms.sol\":1557:1584  SolicitudAcceso(msg.sender) */\n      0xeba56e5f1457ce7bc7b40b05ba0b52c95aa6e677bc7309c9cbfc24da26a58974\n        /* \"OMS/oms.sol\":1573:1583  msg.sender */\n      caller\n        /* \"OMS/oms.sol\":1557:1584  SolicitudAcceso(msg.sender) */\n      mload(0x40)\n      tag_45\n      swap2\n      swap1\n      tag_14\n      jump\t// in\n    tag_45:\n      mload(0x40)\n      dup1\n      swap2\n      sub\n      swap1\n      log1\n        /* \"OMS/oms.sol\":1378:1592  function SolicitarAcceso() public{\r... */\n      jump\t// out\n        /* \"OMS/oms.sol\":811:856  address [] public direcciones_contratos_salud */\n    tag_24:\n      0x03\n      dup2\n      dup2\n      sload\n      dup2\n      lt\n      tag_46\n      jumpi\n      0x00\n      dup1\n      revert\n    tag_46:\n      swap1\n      0x00\n      mstore\n      keccak256(0x00, 0x20)\n      add\n      0x00\n      swap2\n      pop\n      sload\n      swap1\n      0x0100\n      exp\n      swap1\n      div\n      0xffffffffffffffffffffffffffffffffffffffff\n      and\n      dup2\n      jump\t// out\n        /* \"OMS/oms.sol\":2267:3012  function FactoryCentroSalud() public{\r... */\n    tag_27:\n        /* \"OMS/oms.sol\":2467:2471  true */\n      0x01\n        /* \"OMS/oms.sol\":2429:2471  Validacion_CentroSalud[msg.sender] == true */\n      iszero\n      iszero\n        /* \"OMS/oms.sol\":2429:2451  Validacion_CentroSalud */\n      0x01\n        /* \"OMS/oms.sol\":2429:2463  Validacion_CentroSalud[msg.sender] */\n      0x00\n        /* \"OMS/oms.sol\":2452:2462  msg.sender */\n      caller\n        /* \"OMS/oms.sol\":2429:2463  Validacion_CentroSalud[msg.sender] */\n      0xffffffffffffffffffffffffffffffffffffffff\n      and\n      0xffffffffffffffffffffffffffffffffffffffff\n      and\n      dup2\n      mstore\n      0x20\n      add\n      swap1\n      dup2\n      mstore\n      0x20\n      add\n      0x00\n      keccak256\n      0x00\n      swap1\n      sload\n      swap1\n      0x0100\n      exp\n      swap1\n      div\n      0xff\n      and\n        /* \"OMS/oms.sol\":2429:2471  Validacion_CentroSalud[msg.sender] == true */\n      iszero\n      iszero\n      eq\n        /* \"OMS/oms.sol\":2421:2522  require(Validacion_CentroSalud[msg.sender] == true, \"No tienes permisos para realizar esta funcion.\") */\n      tag_49\n      jumpi\n      mload(0x40)\n      0x08c379a000000000000000000000000000000000000000000000000000000000\n      dup2\n      mstore\n      0x04\n      add\n      tag_50\n      swap1\n      tag_39\n      jump\t// in\n    tag_50:\n      mload(0x40)\n      dup1\n      swap2\n      sub\n      swap1\n      revert\n    tag_49:\n        /* \"OMS/oms.sol\":2594:2622  address contrato_CentroSalud */\n      0x00\n        /* \"OMS/oms.sol\":2650:2660  msg.sender */\n      caller\n        /* \"OMS/oms.sol\":2634:2661  new CentroSalud(msg.sender) */\n      mload(0x40)\n      tag_51\n      swap1\n      tag_52\n      jump\t// in\n    tag_51:\n      tag_53\n      swap2\n      swap1\n      tag_14\n      jump\t// in\n    tag_53:\n      mload(0x40)\n      dup1\n      swap2\n      sub\n      swap1\n      0x00\n      create\n      dup1\n      iszero\n      dup1\n      iszero\n      tag_54\n      jumpi\n      returndatasize\n      0x00\n      dup1\n      returndatacopy\n      revert(0x00, returndatasize)\n    tag_54:\n      pop\n        /* \"OMS/oms.sol\":2594:2662  address contrato_CentroSalud = address (new CentroSalud(msg.sender)) */\n      swap1\n      pop\n        /* \"OMS/oms.sol\":2732:2759  direcciones_contratos_salud */\n      0x03\n        /* \"OMS/oms.sol\":2765:2785  contrato_CentroSalud */\n      dup2\n        /* \"OMS/oms.sol\":2732:2786  direcciones_contratos_salud.push(contrato_CentroSalud) */\n      swap1\n      dup1\n      0x01\n      dup2\n      sload\n      add\n      dup1\n      dup3\n      sstore\n      dup1\n      swap2\n      pop\n      pop\n      0x01\n      swap1\n      sub\n      swap1\n      0x00\n      mstore\n      keccak256(0x00, 0x20)\n      add\n      0x00\n      swap1\n      swap2\n      swap1\n      swap2\n      swap1\n      swap2\n      0x0100\n      exp\n      dup2\n      sload\n      dup2\n      0xffffffffffffffffffffffffffffffffffffffff\n      mul\n      not\n      and\n      swap1\n      dup4\n      0xffffffffffffffffffffffffffffffffffffffff\n      and\n      mul\n      or\n      swap1\n      sstore\n      pop\n        /* \"OMS/oms.sol\":2891:2911  contrato_CentroSalud */\n      dup1\n        /* \"OMS/oms.sol\":2856:2876  CentroSalud_contrato */\n      0x02\n        /* \"OMS/oms.sol\":2856:2888  CentroSalud_contrato[msg.sender] */\n      0x00\n        /* \"OMS/oms.sol\":2877:2887  msg.sender */\n      caller\n        /* \"OMS/oms.sol\":2856:2888  CentroSalud_contrato[msg.sender] */\n      0xffffffffffffffffffffffffffffffffffffffff\n      and\n      0xffffffffffffffffffffffffffffffffffffffff\n      and\n      dup2\n      mstore\n      0x20\n      add\n      swap1\n      dup2\n      mstore\n      0x20\n      add\n      0x00\n      keccak256\n      0x00\n        /* \"OMS/oms.sol\":2856:2911  CentroSalud_contrato[msg.sender] = contrato_CentroSalud */\n      0x0100\n      exp\n      dup2\n      sload\n      dup2\n      0xffffffffffffffffffffffffffffffffffffffff\n      mul\n      not\n      and\n      swap1\n      dup4\n      0xffffffffffffffffffffffffffffffffffffffff\n      and\n      mul\n      or\n      swap1\n      sstore\n      pop\n        /* \"OMS/oms.sol\":2957:3004  NuevoContrato(contrato_CentroSalud, msg.sender) */\n      0xe08a9f416b8c3655f59535f4609d69e3b126ca6c0591451ee1d49a6430ab39c6\n        /* \"OMS/oms.sol\":2971:2991  contrato_CentroSalud */\n      dup2\n        /* \"OMS/oms.sol\":2993:3003  msg.sender */\n      caller\n        /* \"OMS/oms.sol\":2957:3004  NuevoContrato(contrato_CentroSalud, msg.sender) */\n      mload(0x40)\n      tag_56\n      swap3\n      swap2\n      swap1\n      tag_57\n      jump\t// in\n    tag_56:\n      mload(0x40)\n      dup1\n      swap2\n      sub\n      swap1\n      log1\n        /* \"OMS/oms.sol\":2303:3012  {\r... */\n      pop\n        /* \"OMS/oms.sol\":2267:3012  function FactoryCentroSalud() public{\r... */\n      jump\t// out\n        /* \"OMS/oms.sol\":1917:2198  function CentrosSalud(address _centroSalud) public UnicamenteOMS(msg.sender){\r... */\n    tag_31:\n        /* \"OMS/oms.sol\":1982:1992  msg.sender */\n      caller\n        /* \"OMS/oms.sol\":1241:1244  OMS */\n      0x00\n      dup1\n      sload\n      swap1\n      0x0100\n      exp\n      swap1\n      div\n      0xffffffffffffffffffffffffffffffffffffffff\n      and\n        /* \"OMS/oms.sol\":1227:1244  _direccion == OMS */\n      0xffffffffffffffffffffffffffffffffffffffff\n      and\n        /* \"OMS/oms.sol\":1227:1237  _direccion */\n      dup2\n        /* \"OMS/oms.sol\":1227:1244  _direccion == OMS */\n      0xffffffffffffffffffffffffffffffffffffffff\n      and\n      eq\n        /* \"OMS/oms.sol\":1219:1295  require(_direccion == OMS, \"No tienes permisos para realizar esta funcion.\") */\n      tag_59\n      jumpi\n      mload(0x40)\n      0x08c379a000000000000000000000000000000000000000000000000000000000\n      dup2\n      mstore\n      0x04\n      add\n      tag_60\n      swap1\n      tag_39\n      jump\t// in\n    tag_60:\n      mload(0x40)\n      dup1\n      swap2\n      sub\n      swap1\n      revert\n    tag_59:\n        /* \"OMS/oms.sol\":2107:2111  true */\n      0x01\n        /* \"OMS/oms.sol\":2068:2090  Validacion_CentroSalud */\n      dup1\n        /* \"OMS/oms.sol\":2068:2104  Validacion_CentroSalud[_centroSalud] */\n      0x00\n        /* \"OMS/oms.sol\":2091:2103  _centroSalud */\n      dup5\n        /* \"OMS/oms.sol\":2068:2104  Validacion_CentroSalud[_centroSalud] */\n      0xffffffffffffffffffffffffffffffffffffffff\n      and\n      0xffffffffffffffffffffffffffffffffffffffff\n      and\n      dup2\n      mstore\n      0x20\n      add\n      swap1\n      dup2\n      mstore\n      0x20\n      add\n      0x00\n      keccak256\n      0x00\n        /* \"OMS/oms.sol\":2068:2111  Validacion_CentroSalud[_centroSalud] = true */\n      0x0100\n      exp\n      dup2\n      sload\n      dup2\n      0xff\n      mul\n      not\n      and\n      swap1\n      dup4\n      iszero\n      iszero\n      mul\n      or\n      swap1\n      sstore\n      pop\n        /* \"OMS/oms.sol\":2157:2190  NuevoCentroValidado(_centroSalud) */\n      0x49fbbe88355a886408e8788b96b735508be2a0bec15825ef8ffc24aa5c6cb829\n        /* \"OMS/oms.sol\":2177:2189  _centroSalud */\n      dup3\n        /* \"OMS/oms.sol\":2157:2190  NuevoCentroValidado(_centroSalud) */\n      mload(0x40)\n      tag_62\n      swap2\n      swap1\n      tag_14\n      jump\t// in\n    tag_62:\n      mload(0x40)\n      dup1\n      swap2\n      sub\n      swap1\n      log1\n        /* \"OMS/oms.sol\":1917:2198  function CentrosSalud(address _centroSalud) public UnicamenteOMS(msg.sender){\r... */\n      pop\n      pop\n      jump\t// out\n        /* \"OMS/oms.sol\":551:606  mapping(address => address) public CentroSalud_contrato */\n    tag_34:\n      mstore(0x20, 0x02)\n      dup1\n      0x00\n      mstore\n      keccak256(0x00, 0x40)\n      0x00\n      swap2\n      pop\n      sload\n      swap1\n      0x0100\n      exp\n      swap1\n      div\n      0xffffffffffffffffffffffffffffffffffffffff\n      and\n      dup2\n      jump\t// out\n    tag_52:\n      dataSize(sub_0)\n      dup1\n      dataOffset(sub_0)\n      dup4\n      codecopy\n      add\n      swap1\n      jump\t// out\n        /* \"#utility.yul\":7:146   */\n    tag_64:\n        /* \"#utility.yul\":53:58   */\n      0x00\n        /* \"#utility.yul\":91:97   */\n      dup2\n        /* \"#utility.yul\":78:98   */\n      calldataload\n        /* \"#utility.yul\":69:98   */\n      swap1\n      pop\n        /* \"#utility.yul\":107:140   */\n      tag_66\n        /* \"#utility.yul\":134:139   */\n      dup2\n        /* \"#utility.yul\":107:140   */\n      tag_67\n      jump\t// in\n    tag_66:\n        /* \"#utility.yul\":7:146   */\n      swap3\n      swap2\n      pop\n      pop\n      jump\t// out\n        /* \"#utility.yul\":152:291   */\n    tag_68:\n        /* \"#utility.yul\":198:203   */\n      0x00\n        /* \"#utility.yul\":236:242   */\n      dup2\n        /* \"#utility.yul\":223:243   */\n      calldataload\n        /* \"#utility.yul\":214:243   */\n      swap1\n      pop\n        /* \"#utility.yul\":252:285   */\n      tag_70\n        /* \"#utility.yul\":279:284   */\n      dup2\n        /* \"#utility.yul\":252:285   */\n      tag_71\n      jump\t// in\n    tag_70:\n        /* \"#utility.yul\":152:291   */\n      swap3\n      swap2\n      pop\n      pop\n      jump\t// out\n        /* \"#utility.yul\":297:626   */\n    tag_30:\n        /* \"#utility.yul\":356:362   */\n      0x00\n        /* \"#utility.yul\":405:407   */\n      0x20\n        /* \"#utility.yul\":393:402   */\n      dup3\n        /* \"#utility.yul\":384:391   */\n      dup5\n        /* \"#utility.yul\":380:403   */\n      sub\n        /* \"#utility.yul\":376:408   */\n      slt\n        /* \"#utility.yul\":373:492   */\n      iszero\n      tag_73\n      jumpi\n        /* \"#utility.yul\":411:490   */\n      tag_74\n      tag_75\n      jump\t// in\n    tag_74:\n        /* \"#utility.yul\":373:492   */\n    tag_73:\n        /* \"#utility.yul\":531:532   */\n      0x00\n        /* \"#utility.yul\":556:609   */\n      tag_76\n        /* \"#utility.yul\":601:608   */\n      dup5\n        /* \"#utility.yul\":592:598   */\n      dup3\n        /* \"#utility.yul\":581:590   */\n      dup6\n        /* \"#utility.yul\":577:599   */\n      add\n        /* \"#utility.yul\":556:609   */\n      tag_64\n      jump\t// in\n    tag_76:\n        /* \"#utility.yul\":546:609   */\n      swap2\n      pop\n        /* \"#utility.yul\":502:619   */\n      pop\n        /* \"#utility.yul\":297:626   */\n      swap3\n      swap2\n      pop\n      pop\n      jump\t// out\n        /* \"#utility.yul\":632:961   */\n    tag_23:\n        /* \"#utility.yul\":691:697   */\n      0x00\n        /* \"#utility.yul\":740:742   */\n      0x20\n        /* \"#utility.yul\":728:737   */\n      dup3\n        /* \"#utility.yul\":719:726   */\n      dup5\n        /* \"#utility.yul\":715:738   */\n      sub\n        /* \"#utility.yul\":711:743   */\n      slt\n        /* \"#utility.yul\":708:827   */\n      iszero\n      tag_78\n      jumpi\n        /* \"#utility.yul\":746:825   */\n      tag_79\n      tag_75\n      jump\t// in\n    tag_79:\n        /* \"#utility.yul\":708:827   */\n    tag_78:\n        /* \"#utility.yul\":866:867   */\n      0x00\n        /* \"#utility.yul\":891:944   */\n      tag_80\n        /* \"#utility.yul\":936:943   */\n      dup5\n        /* \"#utility.yul\":927:933   */\n      dup3\n        /* \"#utility.yul\":916:925   */\n      dup6\n        /* \"#utility.yul\":912:934   */\n      add\n        /* \"#utility.yul\":891:944   */\n      tag_68\n      jump\t// in\n    tag_80:\n        /* \"#utility.yul\":881:944   */\n      swap2\n      pop\n        /* \"#utility.yul\":837:954   */\n      pop\n        /* \"#utility.yul\":632:961   */\n      swap3\n      swap2\n      pop\n      pop\n      jump\t// out\n        /* \"#utility.yul\":967:1146   */\n    tag_81:\n        /* \"#utility.yul\":1036:1046   */\n      0x00\n        /* \"#utility.yul\":1057:1103   */\n      tag_83\n        /* \"#utility.yul\":1099:1102   */\n      dup4\n        /* \"#utility.yul\":1091:1097   */\n      dup4\n        /* \"#utility.yul\":1057:1103   */\n      tag_84\n      jump\t// in\n    tag_83:\n        /* \"#utility.yul\":1135:1139   */\n      0x20\n        /* \"#utility.yul\":1130:1133   */\n      dup4\n        /* \"#utility.yul\":1126:1140   */\n      add\n        /* \"#utility.yul\":1112:1140   */\n      swap1\n      pop\n        /* \"#utility.yul\":967:1146   */\n      swap3\n      swap2\n      pop\n      pop\n      jump\t// out\n        /* \"#utility.yul\":1152:1260   */\n    tag_84:\n        /* \"#utility.yul\":1229:1253   */\n      tag_86\n        /* \"#utility.yul\":1247:1252   */\n      dup2\n        /* \"#utility.yul\":1229:1253   */\n      tag_87\n      jump\t// in\n    tag_86:\n        /* \"#utility.yul\":1224:1227   */\n      dup3\n        /* \"#utility.yul\":1217:1254   */\n      mstore\n        /* \"#utility.yul\":1152:1260   */\n      pop\n      pop\n      jump\t// out\n        /* \"#utility.yul\":1266:1384   */\n    tag_88:\n        /* \"#utility.yul\":1353:1377   */\n      tag_90\n        /* \"#utility.yul\":1371:1376   */\n      dup2\n        /* \"#utility.yul\":1353:1377   */\n      tag_87\n      jump\t// in\n    tag_90:\n        /* \"#utility.yul\":1348:1351   */\n      dup3\n        /* \"#utility.yul\":1341:1378   */\n      mstore\n        /* \"#utility.yul\":1266:1384   */\n      pop\n      pop\n      jump\t// out\n        /* \"#utility.yul\":1420:2152   */\n    tag_91:\n        /* \"#utility.yul\":1539:1542   */\n      0x00\n        /* \"#utility.yul\":1568:1622   */\n      tag_93\n        /* \"#utility.yul\":1616:1621   */\n      dup3\n        /* \"#utility.yul\":1568:1622   */\n      tag_94\n      jump\t// in\n    tag_93:\n        /* \"#utility.yul\":1638:1724   */\n      tag_95\n        /* \"#utility.yul\":1717:1723   */\n      dup2\n        /* \"#utility.yul\":1712:1715   */\n      dup6\n        /* \"#utility.yul\":1638:1724   */\n      tag_96\n      jump\t// in\n    tag_95:\n        /* \"#utility.yul\":1631:1724   */\n      swap4\n      pop\n        /* \"#utility.yul\":1748:1804   */\n      tag_97\n        /* \"#utility.yul\":1798:1803   */\n      dup4\n        /* \"#utility.yul\":1748:1804   */\n      tag_98\n      jump\t// in\n    tag_97:\n        /* \"#utility.yul\":1827:1834   */\n      dup1\n        /* \"#utility.yul\":1858:1859   */\n      0x00\n        /* \"#utility.yul\":1843:2127   */\n    tag_99:\n        /* \"#utility.yul\":1868:1874   */\n      dup4\n        /* \"#utility.yul\":1865:1866   */\n      dup2\n        /* \"#utility.yul\":1862:1875   */\n      lt\n        /* \"#utility.yul\":1843:2127   */\n      iszero\n      tag_101\n      jumpi\n        /* \"#utility.yul\":1944:1950   */\n      dup2\n        /* \"#utility.yul\":1938:1951   */\n      mload\n        /* \"#utility.yul\":1971:2034   */\n      tag_102\n        /* \"#utility.yul\":2030:2033   */\n      dup9\n        /* \"#utility.yul\":2015:2028   */\n      dup3\n        /* \"#utility.yul\":1971:2034   */\n      tag_81\n      jump\t// in\n    tag_102:\n        /* \"#utility.yul\":1964:2034   */\n      swap8\n      pop\n        /* \"#utility.yul\":2057:2117   */\n      tag_103\n        /* \"#utility.yul\":2110:2116   */\n      dup4\n        /* \"#utility.yul\":2057:2117   */\n      tag_104\n      jump\t// in\n    tag_103:\n        /* \"#utility.yul\":2047:2117   */\n      swap3\n      pop\n        /* \"#utility.yul\":1903:2127   */\n      pop\n        /* \"#utility.yul\":1890:1891   */\n      0x01\n        /* \"#utility.yul\":1887:1888   */\n      dup2\n        /* \"#utility.yul\":1883:1892   */\n      add\n        /* \"#utility.yul\":1878:1892   */\n      swap1\n      pop\n        /* \"#utility.yul\":1843:2127   */\n      jump(tag_99)\n    tag_101:\n        /* \"#utility.yul\":1847:1861   */\n      pop\n        /* \"#utility.yul\":2143:2146   */\n      dup6\n        /* \"#utility.yul\":2136:2146   */\n      swap4\n      pop\n        /* \"#utility.yul\":1544:2152   */\n      pop\n      pop\n      pop\n        /* \"#utility.yul\":1420:2152   */\n      swap3\n      swap2\n      pop\n      pop\n      jump\t// out\n        /* \"#utility.yul\":2158:2524   */\n    tag_105:\n        /* \"#utility.yul\":2300:2303   */\n      0x00\n        /* \"#utility.yul\":2321:2388   */\n      tag_107\n        /* \"#utility.yul\":2385:2387   */\n      0x2e\n        /* \"#utility.yul\":2380:2383   */\n      dup4\n        /* \"#utility.yul\":2321:2388   */\n      tag_108\n      jump\t// in\n    tag_107:\n        /* \"#utility.yul\":2314:2388   */\n      swap2\n      pop\n        /* \"#utility.yul\":2397:2490   */\n      tag_109\n        /* \"#utility.yul\":2486:2489   */\n      dup3\n        /* \"#utility.yul\":2397:2490   */\n      tag_110\n      jump\t// in\n    tag_109:\n        /* \"#utility.yul\":2515:2517   */\n      0x40\n        /* \"#utility.yul\":2510:2513   */\n      dup3\n        /* \"#utility.yul\":2506:2518   */\n      add\n        /* \"#utility.yul\":2499:2518   */\n      swap1\n      pop\n        /* \"#utility.yul\":2158:2524   */\n      swap2\n      swap1\n      pop\n      jump\t// out\n        /* \"#utility.yul\":2530:2752   */\n    tag_14:\n        /* \"#utility.yul\":2623:2627   */\n      0x00\n        /* \"#utility.yul\":2661:2663   */\n      0x20\n        /* \"#utility.yul\":2650:2659   */\n      dup3\n        /* \"#utility.yul\":2646:2664   */\n      add\n        /* \"#utility.yul\":2638:2664   */\n      swap1\n      pop\n        /* \"#utility.yul\":2674:2745   */\n      tag_112\n        /* \"#utility.yul\":2742:2743   */\n      0x00\n        /* \"#utility.yul\":2731:2740   */\n      dup4\n        /* \"#utility.yul\":2727:2744   */\n      add\n        /* \"#utility.yul\":2718:2724   */\n      dup5\n        /* \"#utility.yul\":2674:2745   */\n      tag_88\n      jump\t// in\n    tag_112:\n        /* \"#utility.yul\":2530:2752   */\n      swap3\n      swap2\n      pop\n      pop\n      jump\t// out\n        /* \"#utility.yul\":2758:3090   */\n    tag_57:\n        /* \"#utility.yul\":2879:2883   */\n      0x00\n        /* \"#utility.yul\":2917:2919   */\n      0x40\n        /* \"#utility.yul\":2906:2915   */\n      dup3\n        /* \"#utility.yul\":2902:2920   */\n      add\n        /* \"#utility.yul\":2894:2920   */\n      swap1\n      pop\n        /* \"#utility.yul\":2930:3001   */\n      tag_114\n        /* \"#utility.yul\":2998:2999   */\n      0x00\n        /* \"#utility.yul\":2987:2996   */\n      dup4\n        /* \"#utility.yul\":2983:3000   */\n      add\n        /* \"#utility.yul\":2974:2980   */\n      dup6\n        /* \"#utility.yul\":2930:3001   */\n      tag_88\n      jump\t// in\n    tag_114:\n        /* \"#utility.yul\":3011:3083   */\n      tag_115\n        /* \"#utility.yul\":3079:3081   */\n      0x20\n        /* \"#utility.yul\":3068:3077   */\n      dup4\n        /* \"#utility.yul\":3064:3082   */\n      add\n        /* \"#utility.yul\":3055:3061   */\n      dup5\n        /* \"#utility.yul\":3011:3083   */\n      tag_88\n      jump\t// in\n    tag_115:\n        /* \"#utility.yul\":2758:3090   */\n      swap4\n      swap3\n      pop\n      pop\n      pop\n      jump\t// out\n        /* \"#utility.yul\":3096:3469   */\n    tag_18:\n        /* \"#utility.yul\":3239:3243   */\n      0x00\n        /* \"#utility.yul\":3277:3279   */\n      0x20\n        /* \"#utility.yul\":3266:3275   */\n      dup3\n        /* \"#utility.yul\":3262:3280   */\n      add\n        /* \"#utility.yul\":3254:3280   */\n      swap1\n      pop\n        /* \"#utility.yul\":3326:3335   */\n      dup2\n        /* \"#utility.yul\":3320:3324   */\n      dup2\n        /* \"#utility.yul\":3316:3336   */\n      sub\n        /* \"#utility.yul\":3312:3313   */\n      0x00\n        /* \"#utility.yul\":3301:3310   */\n      dup4\n        /* \"#utility.yul\":3297:3314   */\n      add\n        /* \"#utility.yul\":3290:3337   */\n      mstore\n        /* \"#utility.yul\":3354:3462   */\n      tag_117\n        /* \"#utility.yul\":3457:3461   */\n      dup2\n        /* \"#utility.yul\":3448:3454   */\n      dup5\n        /* \"#utility.yul\":3354:3462   */\n      tag_91\n      jump\t// in\n    tag_117:\n        /* \"#utility.yul\":3346:3462   */\n      swap1\n      pop\n        /* \"#utility.yul\":3096:3469   */\n      swap3\n      swap2\n      pop\n      pop\n      jump\t// out\n        /* \"#utility.yul\":3475:3894   */\n    tag_39:\n        /* \"#utility.yul\":3641:3645   */\n      0x00\n        /* \"#utility.yul\":3679:3681   */\n      0x20\n        /* \"#utility.yul\":3668:3677   */\n      dup3\n        /* \"#utility.yul\":3664:3682   */\n      add\n        /* \"#utility.yul\":3656:3682   */\n      swap1\n      pop\n        /* \"#utility.yul\":3728:3737   */\n      dup2\n        /* \"#utility.yul\":3722:3726   */\n      dup2\n        /* \"#utility.yul\":3718:3738   */\n      sub\n        /* \"#utility.yul\":3714:3715   */\n      0x00\n        /* \"#utility.yul\":3703:3712   */\n      dup4\n        /* \"#utility.yul\":3699:3716   */\n      add\n        /* \"#utility.yul\":3692:3739   */\n      mstore\n        /* \"#utility.yul\":3756:3887   */\n      tag_119\n        /* \"#utility.yul\":3882:3886   */\n      dup2\n        /* \"#utility.yul\":3756:3887   */\n      tag_105\n      jump\t// in\n    tag_119:\n        /* \"#utility.yul\":3748:3887   */\n      swap1\n      pop\n        /* \"#utility.yul\":3475:3894   */\n      swap2\n      swap1\n      pop\n      jump\t// out\n        /* \"#utility.yul\":3981:4113   */\n    tag_98:\n        /* \"#utility.yul\":4048:4052   */\n      0x00\n        /* \"#utility.yul\":4071:4074   */\n      dup2\n        /* \"#utility.yul\":4063:4074   */\n      swap1\n      pop\n        /* \"#utility.yul\":4101:4105   */\n      0x20\n        /* \"#utility.yul\":4096:4099   */\n      dup3\n        /* \"#utility.yul\":4092:4106   */\n      add\n        /* \"#utility.yul\":4084:4106   */\n      swap1\n      pop\n        /* \"#utility.yul\":3981:4113   */\n      swap2\n      swap1\n      pop\n      jump\t// out\n        /* \"#utility.yul\":4119:4233   */\n    tag_94:\n        /* \"#utility.yul\":4186:4192   */\n      0x00\n        /* \"#utility.yul\":4220:4225   */\n      dup2\n        /* \"#utility.yul\":4214:4226   */\n      mload\n        /* \"#utility.yul\":4204:4226   */\n      swap1\n      pop\n        /* \"#utility.yul\":4119:4233   */\n      swap2\n      swap1\n      pop\n      jump\t// out\n        /* \"#utility.yul\":4239:4352   */\n    tag_104:\n        /* \"#utility.yul\":4309:4313   */\n      0x00\n        /* \"#utility.yul\":4341:4345   */\n      0x20\n        /* \"#utility.yul\":4336:4339   */\n      dup3\n        /* \"#utility.yul\":4332:4346   */\n      add\n        /* \"#utility.yul\":4324:4346   */\n      swap1\n      pop\n        /* \"#utility.yul\":4239:4352   */\n      swap2\n      swap1\n      pop\n      jump\t// out\n        /* \"#utility.yul\":4358:4542   */\n    tag_96:\n        /* \"#utility.yul\":4457:4468   */\n      0x00\n        /* \"#utility.yul\":4491:4497   */\n      dup3\n        /* \"#utility.yul\":4486:4489   */\n      dup3\n        /* \"#utility.yul\":4479:4498   */\n      mstore\n        /* \"#utility.yul\":4531:4535   */\n      0x20\n        /* \"#utility.yul\":4526:4529   */\n      dup3\n        /* \"#utility.yul\":4522:4536   */\n      add\n        /* \"#utility.yul\":4507:4536   */\n      swap1\n      pop\n        /* \"#utility.yul\":4358:4542   */\n      swap3\n      swap2\n      pop\n      pop\n      jump\t// out\n        /* \"#utility.yul\":4548:4717   */\n    tag_108:\n        /* \"#utility.yul\":4632:4643   */\n      0x00\n        /* \"#utility.yul\":4666:4672   */\n      dup3\n        /* \"#utility.yul\":4661:4664   */\n      dup3\n        /* \"#utility.yul\":4654:4673   */\n      mstore\n        /* \"#utility.yul\":4706:4710   */\n      0x20\n        /* \"#utility.yul\":4701:4704   */\n      dup3\n        /* \"#utility.yul\":4697:4711   */\n      add\n        /* \"#utility.yul\":4682:4711   */\n      swap1\n      pop\n        /* \"#utility.yul\":4548:4717   */\n      swap3\n      swap2\n      pop\n      pop\n      jump\t// out\n        /* \"#utility.yul\":4723:4819   */\n    tag_87:\n        /* \"#utility.yul\":4760:4767   */\n      0x00\n        /* \"#utility.yul\":4789:4813   */\n      tag_128\n        /* \"#utility.yul\":4807:4812   */\n      dup3\n        /* \"#utility.yul\":4789:4813   */\n      tag_129\n      jump\t// in\n    tag_128:\n        /* \"#utility.yul\":4778:4813   */\n      swap1\n      pop\n        /* \"#utility.yul\":4723:4819   */\n      swap2\n      swap1\n      pop\n      jump\t// out\n        /* \"#utility.yul\":4825:4951   */\n    tag_129:\n        /* \"#utility.yul\":4862:4869   */\n      0x00\n        /* \"#utility.yul\":4902:4944   */\n      0xffffffffffffffffffffffffffffffffffffffff\n        /* \"#utility.yul\":4895:4900   */\n      dup3\n        /* \"#utility.yul\":4891:4945   */\n      and\n        /* \"#utility.yul\":4880:4945   */\n      swap1\n      pop\n        /* \"#utility.yul\":4825:4951   */\n      swap2\n      swap1\n      pop\n      jump\t// out\n        /* \"#utility.yul\":4957:5034   */\n    tag_131:\n        /* \"#utility.yul\":4994:5001   */\n      0x00\n        /* \"#utility.yul\":5023:5028   */\n      dup2\n        /* \"#utility.yul\":5012:5028   */\n      swap1\n      pop\n        /* \"#utility.yul\":4957:5034   */\n      swap2\n      swap1\n      pop\n      jump\t// out\n        /* \"#utility.yul\":5163:5280   */\n    tag_75:\n        /* \"#utility.yul\":5272:5273   */\n      0x00\n        /* \"#utility.yul\":5269:5270   */\n      dup1\n        /* \"#utility.yul\":5262:5274   */\n      revert\n        /* \"#utility.yul\":5286:5519   */\n    tag_110:\n        /* \"#utility.yul\":5426:5460   */\n      0x4e6f207469656e6573207065726d69736f732070617261207265616c697a6172\n        /* \"#utility.yul\":5422:5423   */\n      0x00\n        /* \"#utility.yul\":5414:5420   */\n      dup3\n        /* \"#utility.yul\":5410:5424   */\n      add\n        /* \"#utility.yul\":5403:5461   */\n      mstore\n        /* \"#utility.yul\":5495:5511   */\n      0x20657374612066756e63696f6e2e000000000000000000000000000000000000\n        /* \"#utility.yul\":5490:5492   */\n      0x20\n        /* \"#utility.yul\":5482:5488   */\n      dup3\n        /* \"#utility.yul\":5478:5493   */\n      add\n        /* \"#utility.yul\":5471:5512   */\n      mstore\n        /* \"#utility.yul\":5286:5519   */\n      pop\n      jump\t// out\n        /* \"#utility.yul\":5525:5647   */\n    tag_67:\n        /* \"#utility.yul\":5598:5622   */\n      tag_138\n        /* \"#utility.yul\":5616:5621   */\n      dup2\n        /* \"#utility.yul\":5598:5622   */\n      tag_87\n      jump\t// in\n    tag_138:\n        /* \"#utility.yul\":5591:5596   */\n      dup2\n        /* \"#utility.yul\":5588:5623   */\n      eq\n        /* \"#utility.yul\":5578:5641   */\n      tag_139\n      jumpi\n        /* \"#utility.yul\":5637:5638   */\n      0x00\n        /* \"#utility.yul\":5634:5635   */\n      dup1\n        /* \"#utility.yul\":5627:5639   */\n      revert\n        /* \"#utility.yul\":5578:5641   */\n    tag_139:\n        /* \"#utility.yul\":5525:5647   */\n      pop\n      jump\t// out\n        /* \"#utility.yul\":5653:5775   */\n    tag_71:\n        /* \"#utility.yul\":5726:5750   */\n      tag_141\n        /* \"#utility.yul\":5744:5749   */\n      dup2\n        /* \"#utility.yul\":5726:5750   */\n      tag_131\n      jump\t// in\n    tag_141:\n        /* \"#utility.yul\":5719:5724   */\n      dup2\n        /* \"#utility.yul\":5716:5751   */\n      eq\n        /* \"#utility.yul\":5706:5769   */\n      tag_142\n      jumpi\n        /* \"#utility.yul\":5765:5766   */\n      0x00\n        /* \"#utility.yul\":5762:5763   */\n      dup1\n        /* \"#utility.yul\":5755:5767   */\n      revert\n        /* \"#utility.yul\":5706:5769   */\n    tag_142:\n        /* \"#utility.yul\":5653:5775   */\n      pop\n      jump\t// out\n    stop\n\n    sub_0: assembly {\n            /* \"OMS/oms.sol\":3188:5280  contract CentroSalud{\r... */\n          mstore(0x40, 0x80)\n            /* \"OMS/oms.sol\":3329:3464  constructor(address _direccion) public {\r... */\n          callvalue\n          dup1\n          iszero\n          tag_1\n          jumpi\n          0x00\n          dup1\n          revert\n        tag_1:\n          pop\n          mload(0x40)\n          sub(codesize, bytecodeSize)\n          dup1\n          bytecodeSize\n          dup4\n          codecopy\n          dup2\n          dup2\n          add\n          0x40\n          mstore\n          dup2\n          add\n          swap1\n          tag_2\n          swap2\n          swap1\n          tag_3\n          jump\t// in\n        tag_2:\n            /* \"OMS/oms.sol\":3402:3412  _direccion */\n          dup1\n            /* \"OMS/oms.sol\":3379:3399  DireccionCentroSalud */\n          0x00\n          dup1\n            /* \"OMS/oms.sol\":3379:3412  DireccionCentroSalud = _direccion */\n          0x0100\n          exp\n          dup2\n          sload\n          dup2\n          0xffffffffffffffffffffffffffffffffffffffff\n          mul\n          not\n          and\n          swap1\n          dup4\n          0xffffffffffffffffffffffffffffffffffffffff\n          and\n          mul\n          or\n          swap1\n          sstore\n          pop\n            /* \"OMS/oms.sol\":3451:3455  this */\n          address\n            /* \"OMS/oms.sol\":3423:3440  DireccionContrato */\n          0x01\n          0x00\n            /* \"OMS/oms.sol\":3423:3456  DireccionContrato = address(this) */\n          0x0100\n          exp\n          dup2\n          sload\n          dup2\n          0xffffffffffffffffffffffffffffffffffffffff\n          mul\n          not\n          and\n          swap1\n          dup4\n          0xffffffffffffffffffffffffffffffffffffffff\n          and\n          mul\n          or\n          swap1\n          sstore\n          pop\n            /* \"OMS/oms.sol\":3329:3464  constructor(address _direccion) public {\r... */\n          pop\n            /* \"OMS/oms.sol\":3188:5280  contract CentroSalud{\r... */\n          jump(tag_6)\n            /* \"#utility.yul\":7:150   */\n        tag_8:\n            /* \"#utility.yul\":64:69   */\n          0x00\n            /* \"#utility.yul\":95:101   */\n          dup2\n            /* \"#utility.yul\":89:102   */\n          mload\n            /* \"#utility.yul\":80:102   */\n          swap1\n          pop\n            /* \"#utility.yul\":111:144   */\n          tag_10\n            /* \"#utility.yul\":138:143   */\n          dup2\n            /* \"#utility.yul\":111:144   */\n          tag_11\n          jump\t// in\n        tag_10:\n            /* \"#utility.yul\":7:150   */\n          swap3\n          swap2\n          pop\n          pop\n          jump\t// out\n            /* \"#utility.yul\":156:507   */\n        tag_3:\n            /* \"#utility.yul\":226:232   */\n          0x00\n            /* \"#utility.yul\":275:277   */\n          0x20\n            /* \"#utility.yul\":263:272   */\n          dup3\n            /* \"#utility.yul\":254:261   */\n          dup5\n            /* \"#utility.yul\":250:273   */\n          sub\n            /* \"#utility.yul\":246:278   */\n          slt\n            /* \"#utility.yul\":243:362   */\n          iszero\n          tag_13\n          jumpi\n            /* \"#utility.yul\":281:360   */\n          tag_14\n          tag_15\n          jump\t// in\n        tag_14:\n            /* \"#utility.yul\":243:362   */\n        tag_13:\n            /* \"#utility.yul\":401:402   */\n          0x00\n            /* \"#utility.yul\":426:490   */\n          tag_16\n            /* \"#utility.yul\":482:489   */\n          dup5\n            /* \"#utility.yul\":473:479   */\n          dup3\n            /* \"#utility.yul\":462:471   */\n          dup6\n            /* \"#utility.yul\":458:480   */\n          add\n            /* \"#utility.yul\":426:490   */\n          tag_8\n          jump\t// in\n        tag_16:\n            /* \"#utility.yul\":416:490   */\n          swap2\n          pop\n            /* \"#utility.yul\":372:500   */\n          pop\n            /* \"#utility.yul\":156:507   */\n          swap3\n          swap2\n          pop\n          pop\n          jump\t// out\n            /* \"#utility.yul\":594:690   */\n        tag_19:\n            /* \"#utility.yul\":631:638   */\n          0x00\n            /* \"#utility.yul\":660:684   */\n          tag_21\n            /* \"#utility.yul\":678:683   */\n          dup3\n            /* \"#utility.yul\":660:684   */\n          tag_22\n          jump\t// in\n        tag_21:\n            /* \"#utility.yul\":649:684   */\n          swap1\n          pop\n            /* \"#utility.yul\":594:690   */\n          swap2\n          swap1\n          pop\n          jump\t// out\n            /* \"#utility.yul\":696:822   */\n        tag_22:\n            /* \"#utility.yul\":733:740   */\n          0x00\n            /* \"#utility.yul\":773:815   */\n          0xffffffffffffffffffffffffffffffffffffffff\n            /* \"#utility.yul\":766:771   */\n          dup3\n            /* \"#utility.yul\":762:816   */\n          and\n            /* \"#utility.yul\":751:816   */\n          swap1\n          pop\n            /* \"#utility.yul\":696:822   */\n          swap2\n          swap1\n          pop\n          jump\t// out\n            /* \"#utility.yul\":951:1068   */\n        tag_15:\n            /* \"#utility.yul\":1060:1061   */\n          0x00\n            /* \"#utility.yul\":1057:1058   */\n          dup1\n            /* \"#utility.yul\":1050:1062   */\n          revert\n            /* \"#utility.yul\":1074:1196   */\n        tag_11:\n            /* \"#utility.yul\":1147:1171   */\n          tag_28\n            /* \"#utility.yul\":1165:1170   */\n          dup2\n            /* \"#utility.yul\":1147:1171   */\n          tag_19\n          jump\t// in\n        tag_28:\n            /* \"#utility.yul\":1140:1145   */\n          dup2\n            /* \"#utility.yul\":1137:1172   */\n          eq\n            /* \"#utility.yul\":1127:1190   */\n          tag_29\n          jumpi\n            /* \"#utility.yul\":1186:1187   */\n          0x00\n            /* \"#utility.yul\":1183:1184   */\n          dup1\n            /* \"#utility.yul\":1176:1188   */\n          revert\n            /* \"#utility.yul\":1127:1190   */\n        tag_29:\n            /* \"#utility.yul\":1074:1196   */\n          pop\n          jump\t// out\n            /* \"OMS/oms.sol\":3188:5280  contract CentroSalud{\r... */\n        tag_6:\n          dataSize(sub_0)\n          dup1\n          dataOffset(sub_0)\n          0x00\n          codecopy\n          0x00\n          return\n        stop\n\n        sub_0: assembly {\n                /* \"OMS/oms.sol\":3188:5280  contract CentroSalud{\r... */\n              mstore(0x40, 0x80)\n              callvalue\n              dup1\n              iszero\n              tag_1\n              jumpi\n              0x00\n              dup1\n              revert\n            tag_1:\n              pop\n              jumpi(tag_2, lt(calldatasize, 0x04))\n              shr(0xe0, calldataload(0x00))\n              dup1\n              0x0ea87df0\n              eq\n              tag_3\n              jumpi\n              dup1\n              0x630ea6e2\n              eq\n              tag_4\n              jumpi\n              dup1\n              0x9e749fa4\n              eq\n              tag_5\n              jumpi\n              dup1\n              0xdad6ebeb\n              eq\n              tag_6\n              jumpi\n            tag_2:\n              0x00\n              dup1\n              revert\n                /* \"OMS/oms.sol\":3246:3281  address public DireccionCentroSalud */\n            tag_3:\n              tag_7\n              tag_8\n              jump\t// in\n            tag_7:\n              mload(0x40)\n              tag_9\n              swap2\n              swap1\n              tag_10\n              jump\t// in\n            tag_9:\n              mload(0x40)\n              dup1\n              swap2\n              sub\n              swap1\n              return\n                /* \"OMS/oms.sol\":3288:3320  address public DireccionContrato */\n            tag_4:\n              tag_11\n              tag_12\n              jump\t// in\n            tag_11:\n              mload(0x40)\n              tag_13\n              swap2\n              swap1\n              tag_10\n              jump\t// in\n            tag_13:\n              mload(0x40)\n              dup1\n              swap2\n              sub\n              swap1\n              return\n                /* \"OMS/oms.sol\":4098:4628  function ResultadoPruebaCOVID(string memory _idPersona, bool _resultadoCOVID, string memory _codigoIPFS) public UnicamenteCentroSalud(msg.sender){\r... */\n            tag_5:\n              tag_14\n              0x04\n              dup1\n              calldatasize\n              sub\n              dup2\n              add\n              swap1\n              tag_15\n              swap2\n              swap1\n              tag_16\n              jump\t// in\n            tag_15:\n              tag_17\n              jump\t// in\n            tag_14:\n              stop\n                /* \"OMS/oms.sol\":4698:5277  function VisualizarResultados(string memory _idPersona) public view returns(string memory, string memory){\r... */\n            tag_6:\n              tag_18\n              0x04\n              dup1\n              calldatasize\n              sub\n              dup2\n              add\n              swap1\n              tag_19\n              swap2\n              swap1\n              tag_20\n              jump\t// in\n            tag_19:\n              tag_21\n              jump\t// in\n            tag_18:\n              mload(0x40)\n              tag_22\n              swap3\n              swap2\n              swap1\n              tag_23\n              jump\t// in\n            tag_22:\n              mload(0x40)\n              dup1\n              swap2\n              sub\n              swap1\n              return\n                /* \"OMS/oms.sol\":3246:3281  address public DireccionCentroSalud */\n            tag_8:\n              0x00\n              dup1\n              sload\n              swap1\n              0x0100\n              exp\n              swap1\n              div\n              0xffffffffffffffffffffffffffffffffffffffff\n              and\n              dup2\n              jump\t// out\n                /* \"OMS/oms.sol\":3288:3320  address public DireccionContrato */\n            tag_12:\n              0x01\n              0x00\n              swap1\n              sload\n              swap1\n              0x0100\n              exp\n              swap1\n              div\n              0xffffffffffffffffffffffffffffffffffffffff\n              and\n              dup2\n              jump\t// out\n                /* \"OMS/oms.sol\":4098:4628  function ResultadoPruebaCOVID(string memory _idPersona, bool _resultadoCOVID, string memory _codigoIPFS) public UnicamenteCentroSalud(msg.sender){\r... */\n            tag_17:\n                /* \"OMS/oms.sol\":4232:4242  msg.sender */\n              caller\n                /* \"OMS/oms.sol\":3936:3956  DireccionCentroSalud */\n              0x00\n              dup1\n              sload\n              swap1\n              0x0100\n              exp\n              swap1\n              div\n              0xffffffffffffffffffffffffffffffffffffffff\n              and\n                /* \"OMS/oms.sol\":3922:3956  _direccion == DireccionCentroSalud */\n              0xffffffffffffffffffffffffffffffffffffffff\n              and\n                /* \"OMS/oms.sol\":3922:3932  _direccion */\n              dup2\n                /* \"OMS/oms.sol\":3922:3956  _direccion == DireccionCentroSalud */\n              0xffffffffffffffffffffffffffffffffffffffff\n              and\n              eq\n                /* \"OMS/oms.sol\":3914:4007  require(_direccion == DireccionCentroSalud, \"No tienes permisos para ejecutar esta funcion.\") */\n              tag_25\n              jumpi\n              mload(0x40)\n              0x08c379a000000000000000000000000000000000000000000000000000000000\n              dup2\n              mstore\n              0x04\n              add\n              tag_26\n              swap1\n              tag_27\n              jump\t// in\n            tag_26:\n              mload(0x40)\n              dup1\n              swap2\n              sub\n              swap1\n              revert\n            tag_25:\n                /* \"OMS/oms.sol\":4305:4327  bytes32 hash_idPersona */\n              0x00\n                /* \"OMS/oms.sol\":4357:4367  _idPersona */\n              dup5\n                /* \"OMS/oms.sol\":4340:4368  abi.encodePacked(_idPersona) */\n              add(0x20, mload(0x40))\n              tag_29\n              swap2\n              swap1\n              tag_30\n              jump\t// in\n            tag_29:\n              mload(0x40)\n              0x20\n              dup2\n              dup4\n              sub\n              sub\n              dup2\n              mstore\n              swap1\n              0x40\n              mstore\n                /* \"OMS/oms.sol\":4330:4369  keccak256(abi.encodePacked(_idPersona)) */\n              dup1\n              mload\n              swap1\n              0x20\n              add\n              keccak256\n                /* \"OMS/oms.sol\":4305:4369  bytes32 hash_idPersona = keccak256(abi.encodePacked(_idPersona)) */\n              swap1\n              pop\n                /* \"OMS/oms.sol\":4488:4528  Resultados(_resultadoCOVID, _codigoIPFS) */\n              mload(0x40)\n              dup1\n              0x40\n              add\n              0x40\n              mstore\n              dup1\n                /* \"OMS/oms.sol\":4499:4514  _resultadoCOVID */\n              dup6\n                /* \"OMS/oms.sol\":4488:4528  Resultados(_resultadoCOVID, _codigoIPFS) */\n              iszero\n              iszero\n              dup2\n              mstore\n              0x20\n              add\n                /* \"OMS/oms.sol\":4516:4527  _codigoIPFS */\n              dup5\n                /* \"OMS/oms.sol\":4488:4528  Resultados(_resultadoCOVID, _codigoIPFS) */\n              dup2\n              mstore\n              pop\n                /* \"OMS/oms.sol\":4454:4469  ResultadosCOVID */\n              0x02\n                /* \"OMS/oms.sol\":4454:4485  ResultadosCOVID[hash_idPersona] */\n              0x00\n                /* \"OMS/oms.sol\":4470:4484  hash_idPersona */\n              dup4\n                /* \"OMS/oms.sol\":4454:4485  ResultadosCOVID[hash_idPersona] */\n              dup2\n              mstore\n              0x20\n              add\n              swap1\n              dup2\n              mstore\n              0x20\n              add\n              0x00\n              keccak256\n                /* \"OMS/oms.sol\":4454:4528  ResultadosCOVID[hash_idPersona] = Resultados(_resultadoCOVID, _codigoIPFS) */\n              0x00\n              dup3\n              add\n              mload\n              dup2\n              0x00\n              add\n              exp(0x0100, 0x00)\n              dup2\n              sload\n              dup2\n              0xff\n              mul\n              not\n              and\n              swap1\n              dup4\n              iszero\n              iszero\n              mul\n              or\n              swap1\n              sstore\n              pop\n              0x20\n              dup3\n              add\n              mload\n              dup2\n              0x01\n              add\n              swap1\n              dup1\n              mload\n              swap1\n              0x20\n              add\n              swap1\n              tag_31\n              swap3\n              swap2\n              swap1\n              tag_32\n              jump\t// in\n            tag_31:\n              pop\n              swap1\n              pop\n              pop\n                /* \"OMS/oms.sol\":4576:4620  NuevoResultado(_resultadoCOVID, _codigoIPFS) */\n              0x5ce26dc28fccbf8bb2edec1d80991c362e4341d1b965a895736530bcb7df4460\n                /* \"OMS/oms.sol\":4591:4606  _resultadoCOVID */\n              dup5\n                /* \"OMS/oms.sol\":4608:4619  _codigoIPFS */\n              dup5\n                /* \"OMS/oms.sol\":4576:4620  NuevoResultado(_resultadoCOVID, _codigoIPFS) */\n              mload(0x40)\n              tag_33\n              swap3\n              swap2\n              swap1\n              tag_34\n              jump\t// in\n            tag_33:\n              mload(0x40)\n              dup1\n              swap2\n              sub\n              swap1\n              log1\n                /* \"OMS/oms.sol\":4243:4628  {\r... */\n              pop\n                /* \"OMS/oms.sol\":4098:4628  function ResultadoPruebaCOVID(string memory _idPersona, bool _resultadoCOVID, string memory _codigoIPFS) public UnicamenteCentroSalud(msg.sender){\r... */\n              pop\n              pop\n              pop\n              pop\n              jump\t// out\n                /* \"OMS/oms.sol\":4698:5277  function VisualizarResultados(string memory _idPersona) public view returns(string memory, string memory){\r... */\n            tag_21:\n                /* \"OMS/oms.sol\":4774:4787  string memory */\n              0x60\n                /* \"OMS/oms.sol\":4789:4802  string memory */\n              dup1\n                /* \"OMS/oms.sol\":4846:4868  bytes32 hash_idPersona */\n              0x00\n                /* \"OMS/oms.sol\":4898:4908  _idPersona */\n              dup4\n                /* \"OMS/oms.sol\":4881:4909  abi.encodePacked(_idPersona) */\n              add(0x20, mload(0x40))\n              tag_36\n              swap2\n              swap1\n              tag_30\n              jump\t// in\n            tag_36:\n              mload(0x40)\n              0x20\n              dup2\n              dup4\n              sub\n              sub\n              dup2\n              mstore\n              swap1\n              0x40\n              mstore\n                /* \"OMS/oms.sol\":4871:4910  keccak256(abi.encodePacked(_idPersona)) */\n              dup1\n              mload\n              swap1\n              0x20\n              add\n              keccak256\n                /* \"OMS/oms.sol\":4846:4910  bytes32 hash_idPersona = keccak256(abi.encodePacked(_idPersona)) */\n              swap1\n              pop\n                /* \"OMS/oms.sol\":4967:4996  string memory resultadoPrueba */\n              0x60\n                /* \"OMS/oms.sol\":5059:5063  true */\n              0x01\n                /* \"OMS/oms.sol\":5012:5063  ResultadosCOVID[hash_idPersona].diagnostico == true */\n              iszero\n              iszero\n                /* \"OMS/oms.sol\":5012:5027  ResultadosCOVID */\n              0x02\n                /* \"OMS/oms.sol\":5012:5043  ResultadosCOVID[hash_idPersona] */\n              0x00\n                /* \"OMS/oms.sol\":5028:5042  hash_idPersona */\n              dup5\n                /* \"OMS/oms.sol\":5012:5043  ResultadosCOVID[hash_idPersona] */\n              dup2\n              mstore\n              0x20\n              add\n              swap1\n              dup2\n              mstore\n              0x20\n              add\n              0x00\n              keccak256\n                /* \"OMS/oms.sol\":5012:5055  ResultadosCOVID[hash_idPersona].diagnostico */\n              0x00\n              add\n              0x00\n              swap1\n              sload\n              swap1\n              0x0100\n              exp\n              swap1\n              div\n              0xff\n              and\n                /* \"OMS/oms.sol\":5012:5063  ResultadosCOVID[hash_idPersona].diagnostico == true */\n              iszero\n              iszero\n              eq\n                /* \"OMS/oms.sol\":5009:5190  if(ResultadosCOVID[hash_idPersona].diagnostico == true) {\r... */\n              iszero\n              tag_37\n              jumpi\n                /* \"OMS/oms.sol\":5080:5108  resultadoPrueba = \"Positivo\" */\n              mload(0x40)\n              dup1\n              0x40\n              add\n              0x40\n              mstore\n              dup1\n              0x08\n              dup2\n              mstore\n              0x20\n              add\n              0x506f73697469766f000000000000000000000000000000000000000000000000\n              dup2\n              mstore\n              pop\n              swap1\n              pop\n                /* \"OMS/oms.sol\":5009:5190  if(ResultadosCOVID[hash_idPersona].diagnostico == true) {\r... */\n              jump(tag_38)\n            tag_37:\n                /* \"OMS/oms.sol\":5150:5178  resultadoPrueba = \"Negativo\" */\n              mload(0x40)\n              dup1\n              0x40\n              add\n              0x40\n              mstore\n              dup1\n              0x08\n              dup2\n              mstore\n              0x20\n              add\n              0x4e6567617469766f000000000000000000000000000000000000000000000000\n              dup2\n              mstore\n              pop\n              swap1\n              pop\n                /* \"OMS/oms.sol\":5009:5190  if(ResultadosCOVID[hash_idPersona].diagnostico == true) {\r... */\n            tag_38:\n                /* \"OMS/oms.sol\":5209:5224  resultadoPrueba */\n              dup1\n                /* \"OMS/oms.sol\":5226:5241  ResultadosCOVID */\n              0x02\n                /* \"OMS/oms.sol\":5226:5257  ResultadosCOVID[hash_idPersona] */\n              0x00\n                /* \"OMS/oms.sol\":5242:5256  hash_idPersona */\n              dup5\n                /* \"OMS/oms.sol\":5226:5257  ResultadosCOVID[hash_idPersona] */\n              dup2\n              mstore\n              0x20\n              add\n              swap1\n              dup2\n              mstore\n              0x20\n              add\n              0x00\n              keccak256\n                /* \"OMS/oms.sol\":5226:5268  ResultadosCOVID[hash_idPersona].codigoIPFS */\n              0x01\n              add\n                /* \"OMS/oms.sol\":5201:5269  return (resultadoPrueba, ResultadosCOVID[hash_idPersona].codigoIPFS) */\n              dup1\n              dup1\n              sload\n              tag_39\n              swap1\n              tag_40\n              jump\t// in\n            tag_39:\n              dup1\n              0x1f\n              add\n              0x20\n              dup1\n              swap2\n              div\n              mul\n              0x20\n              add\n              mload(0x40)\n              swap1\n              dup2\n              add\n              0x40\n              mstore\n              dup1\n              swap3\n              swap2\n              swap1\n              dup2\n              dup2\n              mstore\n              0x20\n              add\n              dup3\n              dup1\n              sload\n              tag_41\n              swap1\n              tag_40\n              jump\t// in\n            tag_41:\n              dup1\n              iszero\n              tag_42\n              jumpi\n              dup1\n              0x1f\n              lt\n              tag_43\n              jumpi\n              0x0100\n              dup1\n              dup4\n              sload\n              div\n              mul\n              dup4\n              mstore\n              swap2\n              0x20\n              add\n              swap2\n              jump(tag_42)\n            tag_43:\n              dup3\n              add\n              swap2\n              swap1\n              0x00\n              mstore\n              keccak256(0x00, 0x20)\n              swap1\n            tag_44:\n              dup2\n              sload\n              dup2\n              mstore\n              swap1\n              0x01\n              add\n              swap1\n              0x20\n              add\n              dup1\n              dup4\n              gt\n              tag_44\n              jumpi\n              dup3\n              swap1\n              sub\n              0x1f\n              and\n              dup3\n              add\n              swap2\n            tag_42:\n              pop\n              pop\n              pop\n              pop\n              pop\n              swap1\n              pop\n              swap4\n              pop\n              swap4\n              pop\n              pop\n              pop\n                /* \"OMS/oms.sol\":4698:5277  function VisualizarResultados(string memory _idPersona) public view returns(string memory, string memory){\r... */\n              swap2\n              pop\n              swap2\n              jump\t// out\n            tag_32:\n              dup3\n              dup1\n              sload\n              tag_45\n              swap1\n              tag_40\n              jump\t// in\n            tag_45:\n              swap1\n              0x00\n              mstore\n              keccak256(0x00, 0x20)\n              swap1\n              0x1f\n              add\n              0x20\n              swap1\n              div\n              dup2\n              add\n              swap3\n              dup3\n              tag_47\n              jumpi\n              0x00\n              dup6\n              sstore\n              jump(tag_46)\n            tag_47:\n              dup3\n              0x1f\n              lt\n              tag_48\n              jumpi\n              dup1\n              mload\n              not(0xff)\n              and\n              dup4\n              dup1\n              add\n              or\n              dup6\n              sstore\n              jump(tag_46)\n            tag_48:\n              dup3\n              dup1\n              add\n              0x01\n              add\n              dup6\n              sstore\n              dup3\n              iszero\n              tag_46\n              jumpi\n              swap2\n              dup3\n              add\n            tag_49:\n              dup3\n              dup2\n              gt\n              iszero\n              tag_50\n              jumpi\n              dup3\n              mload\n              dup3\n              sstore\n              swap2\n              0x20\n              add\n              swap2\n              swap1\n              0x01\n              add\n              swap1\n              jump(tag_49)\n            tag_50:\n            tag_46:\n              pop\n              swap1\n              pop\n              tag_51\n              swap2\n              swap1\n              tag_52\n              jump\t// in\n            tag_51:\n              pop\n              swap1\n              jump\t// out\n            tag_52:\n            tag_53:\n              dup1\n              dup3\n              gt\n              iszero\n              tag_54\n              jumpi\n              0x00\n              dup2\n              0x00\n              swap1\n              sstore\n              pop\n              0x01\n              add\n              jump(tag_53)\n            tag_54:\n              pop\n              swap1\n              jump\t// out\n                /* \"#utility.yul\":7:419   */\n            tag_56:\n                /* \"#utility.yul\":85:90   */\n              0x00\n                /* \"#utility.yul\":110:176   */\n              tag_58\n                /* \"#utility.yul\":126:175   */\n              tag_59\n                /* \"#utility.yul\":168:174   */\n              dup5\n                /* \"#utility.yul\":126:175   */\n              tag_60\n              jump\t// in\n            tag_59:\n                /* \"#utility.yul\":110:176   */\n              tag_61\n              jump\t// in\n            tag_58:\n                /* \"#utility.yul\":101:176   */\n              swap1\n              pop\n                /* \"#utility.yul\":199:205   */\n              dup3\n                /* \"#utility.yul\":192:197   */\n              dup2\n                /* \"#utility.yul\":185:206   */\n              mstore\n                /* \"#utility.yul\":237:241   */\n              0x20\n                /* \"#utility.yul\":230:235   */\n              dup2\n                /* \"#utility.yul\":226:242   */\n              add\n                /* \"#utility.yul\":275:278   */\n              dup5\n                /* \"#utility.yul\":266:272   */\n              dup5\n                /* \"#utility.yul\":261:264   */\n              dup5\n                /* \"#utility.yul\":257:273   */\n              add\n                /* \"#utility.yul\":254:279   */\n              gt\n                /* \"#utility.yul\":251:363   */\n              iszero\n              tag_62\n              jumpi\n                /* \"#utility.yul\":282:361   */\n              tag_63\n              tag_64\n              jump\t// in\n            tag_63:\n                /* \"#utility.yul\":251:363   */\n            tag_62:\n                /* \"#utility.yul\":372:413   */\n              tag_65\n                /* \"#utility.yul\":406:412   */\n              dup5\n                /* \"#utility.yul\":401:404   */\n              dup3\n                /* \"#utility.yul\":396:399   */\n              dup6\n                /* \"#utility.yul\":372:413   */\n              tag_66\n              jump\t// in\n            tag_65:\n                /* \"#utility.yul\":91:419   */\n              pop\n                /* \"#utility.yul\":7:419   */\n              swap4\n              swap3\n              pop\n              pop\n              pop\n              jump\t// out\n                /* \"#utility.yul\":425:558   */\n            tag_67:\n                /* \"#utility.yul\":468:473   */\n              0x00\n                /* \"#utility.yul\":506:512   */\n              dup2\n                /* \"#utility.yul\":493:513   */\n              calldataload\n                /* \"#utility.yul\":484:513   */\n              swap1\n              pop\n                /* \"#utility.yul\":522:552   */\n              tag_69\n                /* \"#utility.yul\":546:551   */\n              dup2\n                /* \"#utility.yul\":522:552   */\n              tag_70\n              jump\t// in\n            tag_69:\n                /* \"#utility.yul\":425:558   */\n              swap3\n              swap2\n              pop\n              pop\n              jump\t// out\n                /* \"#utility.yul\":578:918   */\n            tag_71:\n                /* \"#utility.yul\":634:639   */\n              0x00\n                /* \"#utility.yul\":683:686   */\n              dup3\n                /* \"#utility.yul\":676:680   */\n              0x1f\n                /* \"#utility.yul\":668:674   */\n              dup4\n                /* \"#utility.yul\":664:681   */\n              add\n                /* \"#utility.yul\":660:687   */\n              slt\n                /* \"#utility.yul\":650:772   */\n              tag_73\n              jumpi\n                /* \"#utility.yul\":691:770   */\n              tag_74\n              tag_75\n              jump\t// in\n            tag_74:\n                /* \"#utility.yul\":650:772   */\n            tag_73:\n                /* \"#utility.yul\":808:814   */\n              dup2\n                /* \"#utility.yul\":795:815   */\n              calldataload\n                /* \"#utility.yul\":833:912   */\n              tag_76\n                /* \"#utility.yul\":908:911   */\n              dup5\n                /* \"#utility.yul\":900:906   */\n              dup3\n                /* \"#utility.yul\":893:897   */\n              0x20\n                /* \"#utility.yul\":885:891   */\n              dup7\n                /* \"#utility.yul\":881:898   */\n              add\n                /* \"#utility.yul\":833:912   */\n              tag_56\n              jump\t// in\n            tag_76:\n                /* \"#utility.yul\":824:912   */\n              swap2\n              pop\n                /* \"#utility.yul\":640:918   */\n              pop\n                /* \"#utility.yul\":578:918   */\n              swap3\n              swap2\n              pop\n              pop\n              jump\t// out\n                /* \"#utility.yul\":924:1433   */\n            tag_20:\n                /* \"#utility.yul\":993:999   */\n              0x00\n                /* \"#utility.yul\":1042:1044   */\n              0x20\n                /* \"#utility.yul\":1030:1039   */\n              dup3\n                /* \"#utility.yul\":1021:1028   */\n              dup5\n                /* \"#utility.yul\":1017:1040   */\n              sub\n                /* \"#utility.yul\":1013:1045   */\n              slt\n                /* \"#utility.yul\":1010:1129   */\n              iszero\n              tag_78\n              jumpi\n                /* \"#utility.yul\":1048:1127   */\n              tag_79\n              tag_80\n              jump\t// in\n            tag_79:\n                /* \"#utility.yul\":1010:1129   */\n            tag_78:\n                /* \"#utility.yul\":1196:1197   */\n              0x00\n                /* \"#utility.yul\":1185:1194   */\n              dup3\n                /* \"#utility.yul\":1181:1198   */\n              add\n                /* \"#utility.yul\":1168:1199   */\n              calldataload\n                /* \"#utility.yul\":1226:1244   */\n              0xffffffffffffffff\n                /* \"#utility.yul\":1218:1224   */\n              dup2\n                /* \"#utility.yul\":1215:1245   */\n              gt\n                /* \"#utility.yul\":1212:1329   */\n              iszero\n              tag_81\n              jumpi\n                /* \"#utility.yul\":1248:1327   */\n              tag_82\n              tag_83\n              jump\t// in\n            tag_82:\n                /* \"#utility.yul\":1212:1329   */\n            tag_81:\n                /* \"#utility.yul\":1353:1416   */\n              tag_84\n                /* \"#utility.yul\":1408:1415   */\n              dup5\n                /* \"#utility.yul\":1399:1405   */\n              dup3\n                /* \"#utility.yul\":1388:1397   */\n              dup6\n                /* \"#utility.yul\":1384:1406   */\n              add\n                /* \"#utility.yul\":1353:1416   */\n              tag_71\n              jump\t// in\n            tag_84:\n                /* \"#utility.yul\":1343:1416   */\n              swap2\n              pop\n                /* \"#utility.yul\":1139:1426   */\n              pop\n                /* \"#utility.yul\":924:1433   */\n              swap3\n              swap2\n              pop\n              pop\n              jump\t// out\n                /* \"#utility.yul\":1439:2412   */\n            tag_16:\n                /* \"#utility.yul\":1533:1539   */\n              0x00\n                /* \"#utility.yul\":1541:1547   */\n              dup1\n                /* \"#utility.yul\":1549:1555   */\n              0x00\n                /* \"#utility.yul\":1598:1600   */\n              0x60\n                /* \"#utility.yul\":1586:1595   */\n              dup5\n                /* \"#utility.yul\":1577:1584   */\n              dup7\n                /* \"#utility.yul\":1573:1596   */\n              sub\n                /* \"#utility.yul\":1569:1601   */\n              slt\n                /* \"#utility.yul\":1566:1685   */\n              iszero\n              tag_86\n              jumpi\n                /* \"#utility.yul\":1604:1683   */\n              tag_87\n              tag_80\n              jump\t// in\n            tag_87:\n                /* \"#utility.yul\":1566:1685   */\n            tag_86:\n                /* \"#utility.yul\":1752:1753   */\n              0x00\n                /* \"#utility.yul\":1741:1750   */\n              dup5\n                /* \"#utility.yul\":1737:1754   */\n              add\n                /* \"#utility.yul\":1724:1755   */\n              calldataload\n                /* \"#utility.yul\":1782:1800   */\n              0xffffffffffffffff\n                /* \"#utility.yul\":1774:1780   */\n              dup2\n                /* \"#utility.yul\":1771:1801   */\n              gt\n                /* \"#utility.yul\":1768:1885   */\n              iszero\n              tag_88\n              jumpi\n                /* \"#utility.yul\":1804:1883   */\n              tag_89\n              tag_83\n              jump\t// in\n            tag_89:\n                /* \"#utility.yul\":1768:1885   */\n            tag_88:\n                /* \"#utility.yul\":1909:1972   */\n              tag_90\n                /* \"#utility.yul\":1964:1971   */\n              dup7\n                /* \"#utility.yul\":1955:1961   */\n              dup3\n                /* \"#utility.yul\":1944:1953   */\n              dup8\n                /* \"#utility.yul\":1940:1962   */\n              add\n                /* \"#utility.yul\":1909:1972   */\n              tag_71\n              jump\t// in\n            tag_90:\n                /* \"#utility.yul\":1899:1972   */\n              swap4\n              pop\n                /* \"#utility.yul\":1695:1982   */\n              pop\n                /* \"#utility.yul\":2021:2023   */\n              0x20\n                /* \"#utility.yul\":2047:2097   */\n              tag_91\n                /* \"#utility.yul\":2089:2096   */\n              dup7\n                /* \"#utility.yul\":2080:2086   */\n              dup3\n                /* \"#utility.yul\":2069:2078   */\n              dup8\n                /* \"#utility.yul\":2065:2087   */\n              add\n                /* \"#utility.yul\":2047:2097   */\n              tag_67\n              jump\t// in\n            tag_91:\n                /* \"#utility.yul\":2037:2097   */\n              swap3\n              pop\n                /* \"#utility.yul\":1992:2107   */\n              pop\n                /* \"#utility.yul\":2174:2176   */\n              0x40\n                /* \"#utility.yul\":2163:2172   */\n              dup5\n                /* \"#utility.yul\":2159:2177   */\n              add\n                /* \"#utility.yul\":2146:2178   */\n              calldataload\n                /* \"#utility.yul\":2205:2223   */\n              0xffffffffffffffff\n                /* \"#utility.yul\":2197:2203   */\n              dup2\n                /* \"#utility.yul\":2194:2224   */\n              gt\n                /* \"#utility.yul\":2191:2308   */\n              iszero\n              tag_92\n              jumpi\n                /* \"#utility.yul\":2227:2306   */\n              tag_93\n              tag_83\n              jump\t// in\n            tag_93:\n                /* \"#utility.yul\":2191:2308   */\n            tag_92:\n                /* \"#utility.yul\":2332:2395   */\n              tag_94\n                /* \"#utility.yul\":2387:2394   */\n              dup7\n                /* \"#utility.yul\":2378:2384   */\n              dup3\n                /* \"#utility.yul\":2367:2376   */\n              dup8\n                /* \"#utility.yul\":2363:2385   */\n              add\n                /* \"#utility.yul\":2332:2395   */\n              tag_71\n              jump\t// in\n            tag_94:\n                /* \"#utility.yul\":2322:2395   */\n              swap2\n              pop\n                /* \"#utility.yul\":2117:2405   */\n              pop\n                /* \"#utility.yul\":1439:2412   */\n              swap3\n              pop\n              swap3\n              pop\n              swap3\n              jump\t// out\n                /* \"#utility.yul\":2418:2536   */\n            tag_95:\n                /* \"#utility.yul\":2505:2529   */\n              tag_97\n                /* \"#utility.yul\":2523:2528   */\n              dup2\n                /* \"#utility.yul\":2505:2529   */\n              tag_98\n              jump\t// in\n            tag_97:\n                /* \"#utility.yul\":2500:2503   */\n              dup3\n                /* \"#utility.yul\":2493:2530   */\n              mstore\n                /* \"#utility.yul\":2418:2536   */\n              pop\n              pop\n              jump\t// out\n                /* \"#utility.yul\":2542:2651   */\n            tag_99:\n                /* \"#utility.yul\":2623:2644   */\n              tag_101\n                /* \"#utility.yul\":2638:2643   */\n              dup2\n                /* \"#utility.yul\":2623:2644   */\n              tag_102\n              jump\t// in\n            tag_101:\n                /* \"#utility.yul\":2618:2621   */\n              dup3\n                /* \"#utility.yul\":2611:2645   */\n              mstore\n                /* \"#utility.yul\":2542:2651   */\n              pop\n              pop\n              jump\t// out\n                /* \"#utility.yul\":2657:3021   */\n            tag_103:\n                /* \"#utility.yul\":2745:2748   */\n              0x00\n                /* \"#utility.yul\":2773:2812   */\n              tag_105\n                /* \"#utility.yul\":2806:2811   */\n              dup3\n                /* \"#utility.yul\":2773:2812   */\n              tag_106\n              jump\t// in\n            tag_105:\n                /* \"#utility.yul\":2828:2899   */\n              tag_107\n                /* \"#utility.yul\":2892:2898   */\n              dup2\n                /* \"#utility.yul\":2887:2890   */\n              dup6\n                /* \"#utility.yul\":2828:2899   */\n              tag_108\n              jump\t// in\n            tag_107:\n                /* \"#utility.yul\":2821:2899   */\n              swap4\n              pop\n                /* \"#utility.yul\":2908:2960   */\n              tag_109\n                /* \"#utility.yul\":2953:2959   */\n              dup2\n                /* \"#utility.yul\":2948:2951   */\n              dup6\n                /* \"#utility.yul\":2941:2945   */\n              0x20\n                /* \"#utility.yul\":2934:2939   */\n              dup7\n                /* \"#utility.yul\":2930:2946   */\n              add\n                /* \"#utility.yul\":2908:2960   */\n              tag_110\n              jump\t// in\n            tag_109:\n                /* \"#utility.yul\":2985:3014   */\n              tag_111\n                /* \"#utility.yul\":3007:3013   */\n              dup2\n                /* \"#utility.yul\":2985:3014   */\n              tag_112\n              jump\t// in\n            tag_111:\n                /* \"#utility.yul\":2980:2983   */\n              dup5\n                /* \"#utility.yul\":2976:3015   */\n              add\n                /* \"#utility.yul\":2969:3015   */\n              swap2\n              pop\n                /* \"#utility.yul\":2749:3021   */\n              pop\n                /* \"#utility.yul\":2657:3021   */\n              swap3\n              swap2\n              pop\n              pop\n              jump\t// out\n                /* \"#utility.yul\":3027:3404   */\n            tag_113:\n                /* \"#utility.yul\":3133:3136   */\n              0x00\n                /* \"#utility.yul\":3161:3200   */\n              tag_115\n                /* \"#utility.yul\":3194:3199   */\n              dup3\n                /* \"#utility.yul\":3161:3200   */\n              tag_106\n              jump\t// in\n            tag_115:\n                /* \"#utility.yul\":3216:3305   */\n              tag_116\n                /* \"#utility.yul\":3298:3304   */\n              dup2\n                /* \"#utility.yul\":3293:3296   */\n              dup6\n                /* \"#utility.yul\":3216:3305   */\n              tag_117\n              jump\t// in\n            tag_116:\n                /* \"#utility.yul\":3209:3305   */\n              swap4\n              pop\n                /* \"#utility.yul\":3314:3366   */\n              tag_118\n                /* \"#utility.yul\":3359:3365   */\n              dup2\n                /* \"#utility.yul\":3354:3357   */\n              dup6\n                /* \"#utility.yul\":3347:3351   */\n              0x20\n                /* \"#utility.yul\":3340:3345   */\n              dup7\n                /* \"#utility.yul\":3336:3352   */\n              add\n                /* \"#utility.yul\":3314:3366   */\n              tag_110\n              jump\t// in\n            tag_118:\n                /* \"#utility.yul\":3391:3397   */\n              dup1\n                /* \"#utility.yul\":3386:3389   */\n              dup5\n                /* \"#utility.yul\":3382:3398   */\n              add\n                /* \"#utility.yul\":3375:3398   */\n              swap2\n              pop\n                /* \"#utility.yul\":3137:3404   */\n              pop\n                /* \"#utility.yul\":3027:3404   */\n              swap3\n              swap2\n              pop\n              pop\n              jump\t// out\n                /* \"#utility.yul\":3410:3776   */\n            tag_119:\n                /* \"#utility.yul\":3552:3555   */\n              0x00\n                /* \"#utility.yul\":3573:3640   */\n              tag_121\n                /* \"#utility.yul\":3637:3639   */\n              0x2e\n                /* \"#utility.yul\":3632:3635   */\n              dup4\n                /* \"#utility.yul\":3573:3640   */\n              tag_108\n              jump\t// in\n            tag_121:\n                /* \"#utility.yul\":3566:3640   */\n              swap2\n              pop\n                /* \"#utility.yul\":3649:3742   */\n              tag_122\n                /* \"#utility.yul\":3738:3741   */\n              dup3\n                /* \"#utility.yul\":3649:3742   */\n              tag_123\n              jump\t// in\n            tag_122:\n                /* \"#utility.yul\":3767:3769   */\n              0x40\n                /* \"#utility.yul\":3762:3765   */\n              dup3\n                /* \"#utility.yul\":3758:3770   */\n              add\n                /* \"#utility.yul\":3751:3770   */\n              swap1\n              pop\n                /* \"#utility.yul\":3410:3776   */\n              swap2\n              swap1\n              pop\n              jump\t// out\n                /* \"#utility.yul\":3782:4057   */\n            tag_30:\n                /* \"#utility.yul\":3914:3917   */\n              0x00\n                /* \"#utility.yul\":3936:4031   */\n              tag_125\n                /* \"#utility.yul\":4027:4030   */\n              dup3\n                /* \"#utility.yul\":4018:4024   */\n              dup5\n                /* \"#utility.yul\":3936:4031   */\n              tag_113\n              jump\t// in\n            tag_125:\n                /* \"#utility.yul\":3929:4031   */\n              swap2\n              pop\n                /* \"#utility.yul\":4048:4051   */\n              dup2\n                /* \"#utility.yul\":4041:4051   */\n              swap1\n              pop\n                /* \"#utility.yul\":3782:4057   */\n              swap3\n              swap2\n              pop\n              pop\n              jump\t// out\n                /* \"#utility.yul\":4063:4285   */\n            tag_10:\n                /* \"#utility.yul\":4156:4160   */\n              0x00\n                /* \"#utility.yul\":4194:4196   */\n              0x20\n                /* \"#utility.yul\":4183:4192   */\n              dup3\n                /* \"#utility.yul\":4179:4197   */\n              add\n                /* \"#utility.yul\":4171:4197   */\n              swap1\n              pop\n                /* \"#utility.yul\":4207:4278   */\n              tag_127\n                /* \"#utility.yul\":4275:4276   */\n              0x00\n                /* \"#utility.yul\":4264:4273   */\n              dup4\n                /* \"#utility.yul\":4260:4277   */\n              add\n                /* \"#utility.yul\":4251:4257   */\n              dup5\n                /* \"#utility.yul\":4207:4278   */\n              tag_95\n              jump\t// in\n            tag_127:\n                /* \"#utility.yul\":4063:4285   */\n              swap3\n              swap2\n              pop\n              pop\n              jump\t// out\n                /* \"#utility.yul\":4291:4702   */\n            tag_34:\n                /* \"#utility.yul\":4426:4430   */\n              0x00\n                /* \"#utility.yul\":4464:4466   */\n              0x40\n                /* \"#utility.yul\":4453:4462   */\n              dup3\n                /* \"#utility.yul\":4449:4467   */\n              add\n                /* \"#utility.yul\":4441:4467   */\n              swap1\n              pop\n                /* \"#utility.yul\":4477:4542   */\n              tag_129\n                /* \"#utility.yul\":4539:4540   */\n              0x00\n                /* \"#utility.yul\":4528:4537   */\n              dup4\n                /* \"#utility.yul\":4524:4541   */\n              add\n                /* \"#utility.yul\":4515:4521   */\n              dup6\n                /* \"#utility.yul\":4477:4542   */\n              tag_99\n              jump\t// in\n            tag_129:\n                /* \"#utility.yul\":4589:4598   */\n              dup2\n                /* \"#utility.yul\":4583:4587   */\n              dup2\n                /* \"#utility.yul\":4579:4599   */\n              sub\n                /* \"#utility.yul\":4574:4576   */\n              0x20\n                /* \"#utility.yul\":4563:4572   */\n              dup4\n                /* \"#utility.yul\":4559:4577   */\n              add\n                /* \"#utility.yul\":4552:4600   */\n              mstore\n                /* \"#utility.yul\":4617:4695   */\n              tag_130\n                /* \"#utility.yul\":4690:4694   */\n              dup2\n                /* \"#utility.yul\":4681:4687   */\n              dup5\n                /* \"#utility.yul\":4617:4695   */\n              tag_103\n              jump\t// in\n            tag_130:\n                /* \"#utility.yul\":4609:4695   */\n              swap1\n              pop\n                /* \"#utility.yul\":4291:4702   */\n              swap4\n              swap3\n              pop\n              pop\n              pop\n              jump\t// out\n                /* \"#utility.yul\":4708:5222   */\n            tag_23:\n                /* \"#utility.yul\":4869:4873   */\n              0x00\n                /* \"#utility.yul\":4907:4909   */\n              0x40\n                /* \"#utility.yul\":4896:4905   */\n              dup3\n                /* \"#utility.yul\":4892:4910   */\n              add\n                /* \"#utility.yul\":4884:4910   */\n              swap1\n              pop\n                /* \"#utility.yul\":4956:4965   */\n              dup2\n                /* \"#utility.yul\":4950:4954   */\n              dup2\n                /* \"#utility.yul\":4946:4966   */\n              sub\n                /* \"#utility.yul\":4942:4943   */\n              0x00\n                /* \"#utility.yul\":4931:4940   */\n              dup4\n                /* \"#utility.yul\":4927:4944   */\n              add\n                /* \"#utility.yul\":4920:4967   */\n              mstore\n                /* \"#utility.yul\":4984:5062   */\n              tag_132\n                /* \"#utility.yul\":5057:5061   */\n              dup2\n                /* \"#utility.yul\":5048:5054   */\n              dup6\n                /* \"#utility.yul\":4984:5062   */\n              tag_103\n              jump\t// in\n            tag_132:\n                /* \"#utility.yul\":4976:5062   */\n              swap1\n              pop\n                /* \"#utility.yul\":5109:5118   */\n              dup2\n                /* \"#utility.yul\":5103:5107   */\n              dup2\n                /* \"#utility.yul\":5099:5119   */\n              sub\n                /* \"#utility.yul\":5094:5096   */\n              0x20\n                /* \"#utility.yul\":5083:5092   */\n              dup4\n                /* \"#utility.yul\":5079:5097   */\n              add\n                /* \"#utility.yul\":5072:5120   */\n              mstore\n                /* \"#utility.yul\":5137:5215   */\n              tag_133\n                /* \"#utility.yul\":5210:5214   */\n              dup2\n                /* \"#utility.yul\":5201:5207   */\n              dup5\n                /* \"#utility.yul\":5137:5215   */\n              tag_103\n              jump\t// in\n            tag_133:\n                /* \"#utility.yul\":5129:5215   */\n              swap1\n              pop\n                /* \"#utility.yul\":4708:5222   */\n              swap4\n              swap3\n              pop\n              pop\n              pop\n              jump\t// out\n                /* \"#utility.yul\":5228:5647   */\n            tag_27:\n                /* \"#utility.yul\":5394:5398   */\n              0x00\n                /* \"#utility.yul\":5432:5434   */\n              0x20\n                /* \"#utility.yul\":5421:5430   */\n              dup3\n                /* \"#utility.yul\":5417:5435   */\n              add\n                /* \"#utility.yul\":5409:5435   */\n              swap1\n              pop\n                /* \"#utility.yul\":5481:5490   */\n              dup2\n                /* \"#utility.yul\":5475:5479   */\n              dup2\n                /* \"#utility.yul\":5471:5491   */\n              sub\n                /* \"#utility.yul\":5467:5468   */\n              0x00\n                /* \"#utility.yul\":5456:5465   */\n              dup4\n                /* \"#utility.yul\":5452:5469   */\n              add\n                /* \"#utility.yul\":5445:5492   */\n              mstore\n                /* \"#utility.yul\":5509:5640   */\n              tag_135\n                /* \"#utility.yul\":5635:5639   */\n              dup2\n                /* \"#utility.yul\":5509:5640   */\n              tag_119\n              jump\t// in\n            tag_135:\n                /* \"#utility.yul\":5501:5640   */\n              swap1\n              pop\n                /* \"#utility.yul\":5228:5647   */\n              swap2\n              swap1\n              pop\n              jump\t// out\n                /* \"#utility.yul\":5653:5782   */\n            tag_61:\n                /* \"#utility.yul\":5687:5693   */\n              0x00\n                /* \"#utility.yul\":5714:5734   */\n              tag_137\n              tag_138\n              jump\t// in\n            tag_137:\n                /* \"#utility.yul\":5704:5734   */\n              swap1\n              pop\n                /* \"#utility.yul\":5743:5776   */\n              tag_139\n                /* \"#utility.yul\":5771:5775   */\n              dup3\n                /* \"#utility.yul\":5763:5769   */\n              dup3\n                /* \"#utility.yul\":5743:5776   */\n              tag_140\n              jump\t// in\n            tag_139:\n                /* \"#utility.yul\":5653:5782   */\n              swap2\n              swap1\n              pop\n              jump\t// out\n                /* \"#utility.yul\":5788:5863   */\n            tag_138:\n                /* \"#utility.yul\":5821:5827   */\n              0x00\n                /* \"#utility.yul\":5854:5856   */\n              0x40\n                /* \"#utility.yul\":5848:5857   */\n              mload\n                /* \"#utility.yul\":5838:5857   */\n              swap1\n              pop\n                /* \"#utility.yul\":5788:5863   */\n              swap1\n              jump\t// out\n                /* \"#utility.yul\":5869:6177   */\n            tag_60:\n                /* \"#utility.yul\":5931:5935   */\n              0x00\n                /* \"#utility.yul\":6021:6039   */\n              0xffffffffffffffff\n                /* \"#utility.yul\":6013:6019   */\n              dup3\n                /* \"#utility.yul\":6010:6040   */\n              gt\n                /* \"#utility.yul\":6007:6063   */\n              iszero\n              tag_143\n              jumpi\n                /* \"#utility.yul\":6043:6061   */\n              tag_144\n              tag_145\n              jump\t// in\n            tag_144:\n                /* \"#utility.yul\":6007:6063   */\n            tag_143:\n                /* \"#utility.yul\":6081:6110   */\n              tag_146\n                /* \"#utility.yul\":6103:6109   */\n              dup3\n                /* \"#utility.yul\":6081:6110   */\n              tag_112\n              jump\t// in\n            tag_146:\n                /* \"#utility.yul\":6073:6110   */\n              swap1\n              pop\n                /* \"#utility.yul\":6165:6169   */\n              0x20\n                /* \"#utility.yul\":6159:6163   */\n              dup2\n                /* \"#utility.yul\":6155:6170   */\n              add\n                /* \"#utility.yul\":6147:6170   */\n              swap1\n              pop\n                /* \"#utility.yul\":5869:6177   */\n              swap2\n              swap1\n              pop\n              jump\t// out\n                /* \"#utility.yul\":6183:6282   */\n            tag_106:\n                /* \"#utility.yul\":6235:6241   */\n              0x00\n                /* \"#utility.yul\":6269:6274   */\n              dup2\n                /* \"#utility.yul\":6263:6275   */\n              mload\n                /* \"#utility.yul\":6253:6275   */\n              swap1\n              pop\n                /* \"#utility.yul\":6183:6282   */\n              swap2\n              swap1\n              pop\n              jump\t// out\n                /* \"#utility.yul\":6288:6457   */\n            tag_108:\n                /* \"#utility.yul\":6372:6383   */\n              0x00\n                /* \"#utility.yul\":6406:6412   */\n              dup3\n                /* \"#utility.yul\":6401:6404   */\n              dup3\n                /* \"#utility.yul\":6394:6413   */\n              mstore\n                /* \"#utility.yul\":6446:6450   */\n              0x20\n                /* \"#utility.yul\":6441:6444   */\n              dup3\n                /* \"#utility.yul\":6437:6451   */\n              add\n                /* \"#utility.yul\":6422:6451   */\n              swap1\n              pop\n                /* \"#utility.yul\":6288:6457   */\n              swap3\n              swap2\n              pop\n              pop\n              jump\t// out\n                /* \"#utility.yul\":6463:6611   */\n            tag_117:\n                /* \"#utility.yul\":6565:6576   */\n              0x00\n                /* \"#utility.yul\":6602:6605   */\n              dup2\n                /* \"#utility.yul\":6587:6605   */\n              swap1\n              pop\n                /* \"#utility.yul\":6463:6611   */\n              swap3\n              swap2\n              pop\n              pop\n              jump\t// out\n                /* \"#utility.yul\":6617:6713   */\n            tag_98:\n                /* \"#utility.yul\":6654:6661   */\n              0x00\n                /* \"#utility.yul\":6683:6707   */\n              tag_151\n                /* \"#utility.yul\":6701:6706   */\n              dup3\n                /* \"#utility.yul\":6683:6707   */\n              tag_152\n              jump\t// in\n            tag_151:\n                /* \"#utility.yul\":6672:6707   */\n              swap1\n              pop\n                /* \"#utility.yul\":6617:6713   */\n              swap2\n              swap1\n              pop\n              jump\t// out\n                /* \"#utility.yul\":6719:6809   */\n            tag_102:\n                /* \"#utility.yul\":6753:6760   */\n              0x00\n                /* \"#utility.yul\":6796:6801   */\n              dup2\n                /* \"#utility.yul\":6789:6802   */\n              iszero\n                /* \"#utility.yul\":6782:6803   */\n              iszero\n                /* \"#utility.yul\":6771:6803   */\n              swap1\n              pop\n                /* \"#utility.yul\":6719:6809   */\n              swap2\n              swap1\n              pop\n              jump\t// out\n                /* \"#utility.yul\":6815:6941   */\n            tag_152:\n                /* \"#utility.yul\":6852:6859   */\n              0x00\n                /* \"#utility.yul\":6892:6934   */\n              0xffffffffffffffffffffffffffffffffffffffff\n                /* \"#utility.yul\":6885:6890   */\n              dup3\n                /* \"#utility.yul\":6881:6935   */\n              and\n                /* \"#utility.yul\":6870:6935   */\n              swap1\n              pop\n                /* \"#utility.yul\":6815:6941   */\n              swap2\n              swap1\n              pop\n              jump\t// out\n                /* \"#utility.yul\":6947:7101   */\n            tag_66:\n                /* \"#utility.yul\":7031:7037   */\n              dup3\n                /* \"#utility.yul\":7026:7029   */\n              dup2\n                /* \"#utility.yul\":7021:7024   */\n              dup4\n                /* \"#utility.yul\":7008:7038   */\n              calldatacopy\n                /* \"#utility.yul\":7093:7094   */\n              0x00\n                /* \"#utility.yul\":7084:7090   */\n              dup4\n                /* \"#utility.yul\":7079:7082   */\n              dup4\n                /* \"#utility.yul\":7075:7091   */\n              add\n                /* \"#utility.yul\":7068:7095   */\n              mstore\n                /* \"#utility.yul\":6947:7101   */\n              pop\n              pop\n              pop\n              jump\t// out\n                /* \"#utility.yul\":7107:7414   */\n            tag_110:\n                /* \"#utility.yul\":7175:7176   */\n              0x00\n                /* \"#utility.yul\":7185:7298   */\n            tag_157:\n                /* \"#utility.yul\":7199:7205   */\n              dup4\n                /* \"#utility.yul\":7196:7197   */\n              dup2\n                /* \"#utility.yul\":7193:7206   */\n              lt\n                /* \"#utility.yul\":7185:7298   */\n              iszero\n              tag_159\n              jumpi\n                /* \"#utility.yul\":7284:7285   */\n              dup1\n                /* \"#utility.yul\":7279:7282   */\n              dup3\n                /* \"#utility.yul\":7275:7286   */\n              add\n                /* \"#utility.yul\":7269:7287   */\n              mload\n                /* \"#utility.yul\":7265:7266   */\n              dup2\n                /* \"#utility.yul\":7260:7263   */\n              dup5\n                /* \"#utility.yul\":7256:7267   */\n              add\n                /* \"#utility.yul\":7249:7288   */\n              mstore\n                /* \"#utility.yul\":7221:7223   */\n              0x20\n                /* \"#utility.yul\":7218:7219   */\n              dup2\n                /* \"#utility.yul\":7214:7224   */\n              add\n                /* \"#utility.yul\":7209:7224   */\n              swap1\n              pop\n                /* \"#utility.yul\":7185:7298   */\n              jump(tag_157)\n            tag_159:\n                /* \"#utility.yul\":7316:7322   */\n              dup4\n                /* \"#utility.yul\":7313:7314   */\n              dup2\n                /* \"#utility.yul\":7310:7323   */\n              gt\n                /* \"#utility.yul\":7307:7408   */\n              iszero\n              tag_160\n              jumpi\n                /* \"#utility.yul\":7396:7397   */\n              0x00\n                /* \"#utility.yul\":7387:7393   */\n              dup5\n                /* \"#utility.yul\":7382:7385   */\n              dup5\n                /* \"#utility.yul\":7378:7394   */\n              add\n                /* \"#utility.yul\":7371:7398   */\n              mstore\n                /* \"#utility.yul\":7307:7408   */\n            tag_160:\n                /* \"#utility.yul\":7156:7414   */\n              pop\n                /* \"#utility.yul\":7107:7414   */\n              pop\n              pop\n              pop\n              jump\t// out\n                /* \"#utility.yul\":7420:7740   */\n            tag_40:\n                /* \"#utility.yul\":7464:7470   */\n              0x00\n                /* \"#utility.yul\":7501:7502   */\n              0x02\n                /* \"#utility.yul\":7495:7499   */\n              dup3\n                /* \"#utility.yul\":7491:7503   */\n              div\n                /* \"#utility.yul\":7481:7503   */\n              swap1\n              pop\n                /* \"#utility.yul\":7548:7549   */\n              0x01\n                /* \"#utility.yul\":7542:7546   */\n              dup3\n                /* \"#utility.yul\":7538:7550   */\n              and\n                /* \"#utility.yul\":7569:7587   */\n              dup1\n                /* \"#utility.yul\":7559:7640   */\n              tag_162\n              jumpi\n                /* \"#utility.yul\":7625:7629   */\n              0x7f\n                /* \"#utility.yul\":7617:7623   */\n              dup3\n                /* \"#utility.yul\":7613:7630   */\n              and\n                /* \"#utility.yul\":7603:7630   */\n              swap2\n              pop\n                /* \"#utility.yul\":7559:7640   */\n            tag_162:\n                /* \"#utility.yul\":7687:7689   */\n              0x20\n                /* \"#utility.yul\":7679:7685   */\n              dup3\n                /* \"#utility.yul\":7676:7690   */\n              lt\n                /* \"#utility.yul\":7656:7674   */\n              dup2\n                /* \"#utility.yul\":7653:7691   */\n              eq\n                /* \"#utility.yul\":7650:7734   */\n              iszero\n              tag_163\n              jumpi\n                /* \"#utility.yul\":7706:7724   */\n              tag_164\n              tag_165\n              jump\t// in\n            tag_164:\n                /* \"#utility.yul\":7650:7734   */\n            tag_163:\n                /* \"#utility.yul\":7471:7740   */\n              pop\n                /* \"#utility.yul\":7420:7740   */\n              swap2\n              swap1\n              pop\n              jump\t// out\n                /* \"#utility.yul\":7746:8027   */\n            tag_140:\n                /* \"#utility.yul\":7829:7856   */\n              tag_167\n                /* \"#utility.yul\":7851:7855   */\n              dup3\n                /* \"#utility.yul\":7829:7856   */\n              tag_112\n              jump\t// in\n            tag_167:\n                /* \"#utility.yul\":7821:7827   */\n              dup2\n                /* \"#utility.yul\":7817:7857   */\n              add\n                /* \"#utility.yul\":7959:7965   */\n              dup2\n                /* \"#utility.yul\":7947:7957   */\n              dup2\n                /* \"#utility.yul\":7944:7966   */\n              lt\n                /* \"#utility.yul\":7923:7941   */\n              0xffffffffffffffff\n                /* \"#utility.yul\":7911:7921   */\n              dup3\n                /* \"#utility.yul\":7908:7942   */\n              gt\n                /* \"#utility.yul\":7905:7967   */\n              or\n                /* \"#utility.yul\":7902:7990   */\n              iszero\n              tag_168\n              jumpi\n                /* \"#utility.yul\":7970:7988   */\n              tag_169\n              tag_145\n              jump\t// in\n            tag_169:\n                /* \"#utility.yul\":7902:7990   */\n            tag_168:\n                /* \"#utility.yul\":8010:8020   */\n              dup1\n                /* \"#utility.yul\":8006:8008   */\n              0x40\n                /* \"#utility.yul\":7999:8021   */\n              mstore\n                /* \"#utility.yul\":7789:8027   */\n              pop\n                /* \"#utility.yul\":7746:8027   */\n              pop\n              pop\n              jump\t// out\n                /* \"#utility.yul\":8033:8213   */\n            tag_165:\n                /* \"#utility.yul\":8081:8158   */\n              0x4e487b7100000000000000000000000000000000000000000000000000000000\n                /* \"#utility.yul\":8078:8079   */\n              0x00\n                /* \"#utility.yul\":8071:8159   */\n              mstore\n                /* \"#utility.yul\":8178:8182   */\n              0x22\n                /* \"#utility.yul\":8175:8176   */\n              0x04\n                /* \"#utility.yul\":8168:8183   */\n              mstore\n                /* \"#utility.yul\":8202:8206   */\n              0x24\n                /* \"#utility.yul\":8199:8200   */\n              0x00\n                /* \"#utility.yul\":8192:8207   */\n              revert\n                /* \"#utility.yul\":8219:8399   */\n            tag_145:\n                /* \"#utility.yul\":8267:8344   */\n              0x4e487b7100000000000000000000000000000000000000000000000000000000\n                /* \"#utility.yul\":8264:8265   */\n              0x00\n                /* \"#utility.yul\":8257:8345   */\n              mstore\n                /* \"#utility.yul\":8364:8368   */\n              0x41\n                /* \"#utility.yul\":8361:8362   */\n              0x04\n                /* \"#utility.yul\":8354:8369   */\n              mstore\n                /* \"#utility.yul\":8388:8392   */\n              0x24\n                /* \"#utility.yul\":8385:8386   */\n              0x00\n                /* \"#utility.yul\":8378:8393   */\n              revert\n                /* \"#utility.yul\":8405:8522   */\n            tag_75:\n                /* \"#utility.yul\":8514:8515   */\n              0x00\n                /* \"#utility.yul\":8511:8512   */\n              dup1\n                /* \"#utility.yul\":8504:8516   */\n              revert\n                /* \"#utility.yul\":8528:8645   */\n            tag_64:\n                /* \"#utility.yul\":8637:8638   */\n              0x00\n                /* \"#utility.yul\":8634:8635   */\n              dup1\n                /* \"#utility.yul\":8627:8639   */\n              revert\n                /* \"#utility.yul\":8651:8768   */\n            tag_83:\n                /* \"#utility.yul\":8760:8761   */\n              0x00\n                /* \"#utility.yul\":8757:8758   */\n              dup1\n                /* \"#utility.yul\":8750:8762   */\n              revert\n                /* \"#utility.yul\":8774:8891   */\n            tag_80:\n                /* \"#utility.yul\":8883:8884   */\n              0x00\n                /* \"#utility.yul\":8880:8881   */\n              dup1\n                /* \"#utility.yul\":8873:8885   */\n              revert\n                /* \"#utility.yul\":8897:8999   */\n            tag_112:\n                /* \"#utility.yul\":8938:8944   */\n              0x00\n                /* \"#utility.yul\":8989:8991   */\n              0x1f\n                /* \"#utility.yul\":8985:8992   */\n              not\n                /* \"#utility.yul\":8980:8982   */\n              0x1f\n                /* \"#utility.yul\":8973:8978   */\n              dup4\n                /* \"#utility.yul\":8969:8983   */\n              add\n                /* \"#utility.yul\":8965:8993   */\n              and\n                /* \"#utility.yul\":8955:8993   */\n              swap1\n              pop\n                /* \"#utility.yul\":8897:8999   */\n              swap2\n              swap1\n              pop\n              jump\t// out\n                /* \"#utility.yul\":9005:9238   */\n            tag_123:\n                /* \"#utility.yul\":9145:9179   */\n              0x4e6f207469656e6573207065726d69736f73207061726120656a656375746172\n                /* \"#utility.yul\":9141:9142   */\n              0x00\n                /* \"#utility.yul\":9133:9139   */\n              dup3\n                /* \"#utility.yul\":9129:9143   */\n              add\n                /* \"#utility.yul\":9122:9180   */\n              mstore\n                /* \"#utility.yul\":9214:9230   */\n              0x20657374612066756e63696f6e2e000000000000000000000000000000000000\n                /* \"#utility.yul\":9209:9211   */\n              0x20\n                /* \"#utility.yul\":9201:9207   */\n              dup3\n                /* \"#utility.yul\":9197:9212   */\n              add\n                /* \"#utility.yul\":9190:9231   */\n              mstore\n                /* \"#utility.yul\":9005:9238   */\n              pop\n              jump\t// out\n                /* \"#utility.yul\":9244:9360   */\n            tag_70:\n                /* \"#utility.yul\":9314:9335   */\n              tag_179\n                /* \"#utility.yul\":9329:9334   */\n              dup2\n                /* \"#utility.yul\":9314:9335   */\n              tag_102\n              jump\t// in\n            tag_179:\n                /* \"#utility.yul\":9307:9312   */\n              dup2\n                /* \"#utility.yul\":9304:9336   */\n              eq\n                /* \"#utility.yul\":9294:9354   */\n              tag_180\n              jumpi\n                /* \"#utility.yul\":9350:9351   */\n              0x00\n                /* \"#utility.yul\":9347:9348   */\n              dup1\n                /* \"#utility.yul\":9340:9352   */\n              revert\n                /* \"#utility.yul\":9294:9354   */\n            tag_180:\n                /* \"#utility.yul\":9244:9360   */\n              pop\n              jump\t// out\n\n            auxdata: 0xa2646970667358221220c95a84a135b41740d4cad4f54b5fe7c046304442d347197350dacecb22c51b6f64736f6c63430008070033\n        }\n    }\n\n    auxdata: 0xa2646970667358221220910aebd71df229702870522e30758c68d046bf7a845ad5767539d7bd9c744ab664736f6c63430008070033\n}\n",
				"bytecode": {
					"linkReferences": {},
					"object": "608060405234801561001057600080fd5b50336000806101000a81548173ffffffffffffffffffffffffffffffffffffffff021916908373ffffffffffffffffffffffffffffffffffffffff1602179055506114f6806100606000396000f3fe608060405234801561001057600080fd5b506004361061007d5760003560e01c80637610d05d1161005b5780637610d05d146100c85780639687a42c146100f8578063bacf5ac714610102578063fb8081b81461011e5761007d565b8063057dd608146100825780630eb79cda146100a0578063190318dd146100be575b600080fd5b61008a61014e565b60405161009791906107ef565b60405180910390f35b6100a8610172565b6040516100b59190610833565b60405180910390f35b6100c6610290565b005b6100e260048036038101906100dd919061070b565b61032c565b6040516100ef91906107ef565b60405180910390f35b61010061036b565b005b61011c600480360381019061011791906106de565b610553565b005b610138600480360381019061013391906106de565b610674565b60405161014591906107ef565b60405180910390f35b60008054906101000a900473ffffffffffffffffffffffffffffffffffffffff1681565b60603360008054906101000a900473ffffffffffffffffffffffffffffffffffffffff1673ffffffffffffffffffffffffffffffffffffffff168173ffffffffffffffffffffffffffffffffffffffff1614610203576040517f08c379a00000000000000000000000000000000000000000000000000000000081526004016101fa90610855565b60405180910390fd5b600480548060200260200160405190810160405280929190818152602001828054801561028557602002820191906000526020600020905b8160009054906101000a900473ffffffffffffffffffffffffffffffffffffffff1673ffffffffffffffffffffffffffffffffffffffff168152602001906001019080831161023b575b505050505091505090565b6004339080600181540180825580915050600190039060005260206000200160009091909190916101000a81548173ffffffffffffffffffffffffffffffffffffffff021916908373ffffffffffffffffffffffffffffffffffffffff1602179055507feba56e5f1457ce7bc7b40b05ba0b52c95aa6e677bc7309c9cbfc24da26a589743360405161032291906107ef565b60405180910390a1565b6003818154811061033c57600080fd5b906000526020600020016000915054906101000a900473ffffffffffffffffffffffffffffffffffffffff1681565b60011515600160003373ffffffffffffffffffffffffffffffffffffffff1673ffffffffffffffffffffffffffffffffffffffff16815260200190815260200160002060009054906101000a900460ff161515146103fe576040517f08c379a00000000000000000000000000000000000000000000000000000000081526004016103f590610855565b60405180910390fd5b60003360405161040d906106a7565b61041791906107ef565b604051809103906000f080158015610433573d6000803e3d6000fd5b5090506003819080600181540180825580915050600190039060005260206000200160009091909190916101000a81548173ffffffffffffffffffffffffffffffffffffffff021916908373ffffffffffffffffffffffffffffffffffffffff16021790555080600260003373ffffffffffffffffffffffffffffffffffffffff1673ffffffffffffffffffffffffffffffffffffffff16815260200190815260200160002060006101000a81548173ffffffffffffffffffffffffffffffffffffffff021916908373ffffffffffffffffffffffffffffffffffffffff1602179055507fe08a9f416b8c3655f59535f4609d69e3b126ca6c0591451ee1d49a6430ab39c6813360405161054892919061080a565b60405180910390a150565b3360008054906101000a900473ffffffffffffffffffffffffffffffffffffffff1673ffffffffffffffffffffffffffffffffffffffff168173ffffffffffffffffffffffffffffffffffffffff16146105e2576040517f08c379a00000000000000000000000000000000000000000000000000000000081526004016105d990610855565b60405180910390fd5b60018060008473ffffffffffffffffffffffffffffffffffffffff1673ffffffffffffffffffffffffffffffffffffffff16815260200190815260200160002060006101000a81548160ff0219169083151502179055507f49fbbe88355a886408e8788b96b735508be2a0bec15825ef8ffc24aa5c6cb8298260405161066891906107ef565b60405180910390a15050565b60026020528060005260406000206000915054906101000a900473ffffffffffffffffffffffffffffffffffffffff1681565b610b438061097e83390190565b6000813590506106c38161094f565b92915050565b6000813590506106d881610966565b92915050565b6000602082840312156106f4576106f36108fb565b5b6000610702848285016106b4565b91505092915050565b600060208284031215610721576107206108fb565b5b600061072f848285016106c9565b91505092915050565b60006107448383610750565b60208301905092915050565b610759816108bf565b82525050565b610768816108bf565b82525050565b600061077982610885565b610783818561089d565b935061078e83610875565b8060005b838110156107bf5781516107a68882610738565b97506107b183610890565b925050600181019050610792565b5085935050505092915050565b60006107d9602e836108ae565b91506107e482610900565b604082019050919050565b6000602082019050610804600083018461075f565b92915050565b600060408201905061081f600083018561075f565b61082c602083018461075f565b9392505050565b6000602082019050818103600083015261084d818461076e565b905092915050565b6000602082019050818103600083015261086e816107cc565b9050919050565b6000819050602082019050919050565b600081519050919050565b6000602082019050919050565b600082825260208201905092915050565b600082825260208201905092915050565b60006108ca826108d1565b9050919050565b600073ffffffffffffffffffffffffffffffffffffffff82169050919050565b6000819050919050565b600080fd5b7f4e6f207469656e6573207065726d69736f732070617261207265616c697a617260008201527f20657374612066756e63696f6e2e000000000000000000000000000000000000602082015250565b610958816108bf565b811461096357600080fd5b50565b61096f816108f1565b811461097a57600080fd5b5056fe608060405234801561001057600080fd5b50604051610b43380380610b43833981810160405281019061003291906100ce565b806000806101000a81548173ffffffffffffffffffffffffffffffffffffffff021916908373ffffffffffffffffffffffffffffffffffffffff16021790555030600160006101000a81548173ffffffffffffffffffffffffffffffffffffffff021916908373ffffffffffffffffffffffffffffffffffffffff16021790555050610149565b6000815190506100c881610132565b92915050565b6000602082840312156100e4576100e361012d565b5b60006100f2848285016100b9565b91505092915050565b60006101068261010d565b9050919050565b600073ffffffffffffffffffffffffffffffffffffffff82169050919050565b600080fd5b61013b816100fb565b811461014657600080fd5b50565b6109eb806101586000396000f3fe608060405234801561001057600080fd5b506004361061004c5760003560e01c80630ea87df014610051578063630ea6e21461006f5780639e749fa41461008d578063dad6ebeb146100a9575b600080fd5b6100596100da565b60405161006691906106ca565b60405180910390f35b6100776100fe565b60405161008491906106ca565b60405180910390f35b6100a760048036038101906100a2919061057d565b610124565b005b6100c360048036038101906100be9190610534565b610288565b6040516100d1929190610715565b60405180910390f35b60008054906101000a900473ffffffffffffffffffffffffffffffffffffffff1681565b600160009054906101000a900473ffffffffffffffffffffffffffffffffffffffff1681565b3360008054906101000a900473ffffffffffffffffffffffffffffffffffffffff1673ffffffffffffffffffffffffffffffffffffffff168173ffffffffffffffffffffffffffffffffffffffff16146101b3576040517f08c379a00000000000000000000000000000000000000000000000000000000081526004016101aa9061074c565b60405180910390fd5b6000846040516020016101c691906106b3565b60405160208183030381529060405280519060200120905060405180604001604052808515158152602001848152506002600083815260200190815260200160002060008201518160000160006101000a81548160ff021916908315150217905550602082015181600101908051906020019061024492919061040c565b509050507f5ce26dc28fccbf8bb2edec1d80991c362e4341d1b965a895736530bcb7df446084846040516102799291906106e5565b60405180910390a15050505050565b60608060008360405160200161029e91906106b3565b6040516020818303038152906040528051906020012090506060600115156002600084815260200190815260200160002060000160009054906101000a900460ff1615151415610325576040518060400160405280600881526020017f506f73697469766f000000000000000000000000000000000000000000000000815250905061035e565b6040518060400160405280600881526020017f4e6567617469766f00000000000000000000000000000000000000000000000081525090505b806002600084815260200190815260200160002060010180805461038190610869565b80601f01602080910402602001604051908101604052809291908181526020018280546103ad90610869565b80156103fa5780601f106103cf576101008083540402835291602001916103fa565b820191906000526020600020905b8154815290600101906020018083116103dd57829003601f168201915b50505050509050935093505050915091565b82805461041890610869565b90600052602060002090601f01602090048101928261043a5760008555610481565b82601f1061045357805160ff1916838001178555610481565b82800160010185558215610481579182015b82811115610480578251825591602001919060010190610465565b5b50905061048e9190610492565b5090565b5b808211156104ab576000816000905550600101610493565b5090565b60006104c26104bd84610791565b61076c565b9050828152602081018484840111156104de576104dd61092f565b5b6104e9848285610827565b509392505050565b6000813590506105008161099e565b92915050565b600082601f83011261051b5761051a61092a565b5b813561052b8482602086016104af565b91505092915050565b60006020828403121561054a57610549610939565b5b600082013567ffffffffffffffff81111561056857610567610934565b5b61057484828501610506565b91505092915050565b60008060006060848603121561059657610595610939565b5b600084013567ffffffffffffffff8111156105b4576105b3610934565b5b6105c086828701610506565b93505060206105d1868287016104f1565b925050604084013567ffffffffffffffff8111156105f2576105f1610934565b5b6105fe86828701610506565b9150509250925092565b610611816107e9565b82525050565b610620816107fb565b82525050565b6000610631826107c2565b61063b81856107cd565b935061064b818560208601610836565b6106548161093e565b840191505092915050565b600061066a826107c2565b61067481856107de565b9350610684818560208601610836565b80840191505092915050565b600061069d602e836107cd565b91506106a88261094f565b604082019050919050565b60006106bf828461065f565b915081905092915050565b60006020820190506106df6000830184610608565b92915050565b60006040820190506106fa6000830185610617565b818103602083015261070c8184610626565b90509392505050565b6000604082019050818103600083015261072f8185610626565b905081810360208301526107438184610626565b90509392505050565b6000602082019050818103600083015261076581610690565b9050919050565b6000610776610787565b9050610782828261089b565b919050565b6000604051905090565b600067ffffffffffffffff8211156107ac576107ab6108fb565b5b6107b58261093e565b9050602081019050919050565b600081519050919050565b600082825260208201905092915050565b600081905092915050565b60006107f482610807565b9050919050565b60008115159050919050565b600073ffffffffffffffffffffffffffffffffffffffff82169050919050565b82818337600083830152505050565b60005b83811015610854578082015181840152602081019050610839565b83811115610863576000848401525b50505050565b6000600282049050600182168061088157607f821691505b60208210811415610895576108946108cc565b5b50919050565b6108a48261093e565b810181811067ffffffffffffffff821117156108c3576108c26108fb565b5b80604052505050565b7f4e487b7100000000000000000000000000000000000000000000000000000000600052602260045260246000fd5b7f4e487b7100000000000000000000000000000000000000000000000000000000600052604160045260246000fd5b600080fd5b600080fd5b600080fd5b600080fd5b6000601f19601f8301169050919050565b7f4e6f207469656e6573207065726d69736f73207061726120656a65637574617260008201527f20657374612066756e63696f6e2e000000000000000000000000000000000000602082015250565b6109a7816107fb565b81146109b257600080fd5b5056fea2646970667358221220c95a84a135b41740d4cad4f54b5fe7c046304442d347197350dacecb22c51b6f64736f6c63430008070033a2646970667358221220910aebd71df229702870522e30758c68d046bf7a845ad5767539d7bd9c744ab664736f6c63430008070033",
					"opcodes": "PUSH1 0x80 PUSH1 0x40 MSTORE CALLVALUE DUP1 ISZERO PUSH2 0x10 JUMPI PUSH1 0x0 DUP1 REVERT JUMPDEST POP CALLER PUSH1 0x0 DUP1 PUSH2 0x100 EXP DUP2 SLOAD DUP2 PUSH20 0xFFFFFFFFFFFFFFFFFFFFFFFFFFFFFFFFFFFFFFFF MUL NOT AND SWAP1 DUP4 PUSH20 0xFFFFFFFFFFFFFFFFFFFFFFFFFFFFFFFFFFFFFFFF AND MUL OR SWAP1 SSTORE POP PUSH2 0x14F6 DUP1 PUSH2 0x60 PUSH1 0x0 CODECOPY PUSH1 0x0 RETURN INVALID PUSH1 0x80 PUSH1 0x40 MSTORE CALLVALUE DUP1 ISZERO PUSH2 0x10 JUMPI PUSH1 0x0 DUP1 REVERT JUMPDEST POP PUSH1 0x4 CALLDATASIZE LT PUSH2 0x7D JUMPI PUSH1 0x0 CALLDATALOAD PUSH1 0xE0 SHR DUP1 PUSH4 0x7610D05D GT PUSH2 0x5B JUMPI DUP1 PUSH4 0x7610D05D EQ PUSH2 0xC8 JUMPI DUP1 PUSH4 0x9687A42C EQ PUSH2 0xF8 JUMPI DUP1 PUSH4 0xBACF5AC7 EQ PUSH2 0x102 JUMPI DUP1 PUSH4 0xFB8081B8 EQ PUSH2 0x11E JUMPI PUSH2 0x7D JUMP JUMPDEST DUP1 PUSH4 0x57DD608 EQ PUSH2 0x82 JUMPI DUP1 PUSH4 0xEB79CDA EQ PUSH2 0xA0 JUMPI DUP1 PUSH4 0x190318DD EQ PUSH2 0xBE JUMPI JUMPDEST PUSH1 0x0 DUP1 REVERT JUMPDEST PUSH2 0x8A PUSH2 0x14E JUMP JUMPDEST PUSH1 0x40 MLOAD PUSH2 0x97 SWAP2 SWAP1 PUSH2 0x7EF JUMP JUMPDEST PUSH1 0x40 MLOAD DUP1 SWAP2 SUB SWAP1 RETURN JUMPDEST PUSH2 0xA8 PUSH2 0x172 JUMP JUMPDEST PUSH1 0x40 MLOAD PUSH2 0xB5 SWAP2 SWAP1 PUSH2 0x833 JUMP JUMPDEST PUSH1 0x40 MLOAD DUP1 SWAP2 SUB SWAP1 RETURN JUMPDEST PUSH2 0xC6 PUSH2 0x290 JUMP JUMPDEST STOP JUMPDEST PUSH2 0xE2 PUSH1 0x4 DUP1 CALLDATASIZE SUB DUP2 ADD SWAP1 PUSH2 0xDD SWAP2 SWAP1 PUSH2 0x70B JUMP JUMPDEST PUSH2 0x32C JUMP JUMPDEST PUSH1 0x40 MLOAD PUSH2 0xEF SWAP2 SWAP1 PUSH2 0x7EF JUMP JUMPDEST PUSH1 0x40 MLOAD DUP1 SWAP2 SUB SWAP1 RETURN JUMPDEST PUSH2 0x100 PUSH2 0x36B JUMP JUMPDEST STOP JUMPDEST PUSH2 0x11C PUSH1 0x4 DUP1 CALLDATASIZE SUB DUP2 ADD SWAP1 PUSH2 0x117 SWAP2 SWAP1 PUSH2 0x6DE JUMP JUMPDEST PUSH2 0x553 JUMP JUMPDEST STOP JUMPDEST PUSH2 0x138 PUSH1 0x4 DUP1 CALLDATASIZE SUB DUP2 ADD SWAP1 PUSH2 0x133 SWAP2 SWAP1 PUSH2 0x6DE JUMP JUMPDEST PUSH2 0x674 JUMP JUMPDEST PUSH1 0x40 MLOAD PUSH2 0x145 SWAP2 SWAP1 PUSH2 0x7EF JUMP JUMPDEST PUSH1 0x40 MLOAD DUP1 SWAP2 SUB SWAP1 RETURN JUMPDEST PUSH1 0x0 DUP1 SLOAD SWAP1 PUSH2 0x100 EXP SWAP1 DIV PUSH20 0xFFFFFFFFFFFFFFFFFFFFFFFFFFFFFFFFFFFFFFFF AND DUP2 JUMP JUMPDEST PUSH1 0x60 CALLER PUSH1 0x0 DUP1 SLOAD SWAP1 PUSH2 0x100 EXP SWAP1 DIV PUSH20 0xFFFFFFFFFFFFFFFFFFFFFFFFFFFFFFFFFFFFFFFF AND PUSH20 0xFFFFFFFFFFFFFFFFFFFFFFFFFFFFFFFFFFFFFFFF AND DUP2 PUSH20 0xFFFFFFFFFFFFFFFFFFFFFFFFFFFFFFFFFFFFFFFF AND EQ PUSH2 0x203 JUMPI PUSH1 0x40 MLOAD PUSH32 0x8C379A000000000000000000000000000000000000000000000000000000000 DUP2 MSTORE PUSH1 0x4 ADD PUSH2 0x1FA SWAP1 PUSH2 0x855 JUMP JUMPDEST PUSH1 0x40 MLOAD DUP1 SWAP2 SUB SWAP1 REVERT JUMPDEST PUSH1 0x4 DUP1 SLOAD DUP1 PUSH1 0x20 MUL PUSH1 0x20 ADD PUSH1 0x40 MLOAD SWAP1 DUP2 ADD PUSH1 0x40 MSTORE DUP1 SWAP3 SWAP2 SWAP1 DUP2 DUP2 MSTORE PUSH1 0x20 ADD DUP3 DUP1 SLOAD DUP1 ISZERO PUSH2 0x285 JUMPI PUSH1 0x20 MUL DUP3 ADD SWAP2 SWAP1 PUSH1 0x0 MSTORE PUSH1 0x20 PUSH1 0x0 KECCAK256 SWAP1 JUMPDEST DUP2 PUSH1 0x0 SWAP1 SLOAD SWAP1 PUSH2 0x100 EXP SWAP1 DIV PUSH20 0xFFFFFFFFFFFFFFFFFFFFFFFFFFFFFFFFFFFFFFFF AND PUSH20 0xFFFFFFFFFFFFFFFFFFFFFFFFFFFFFFFFFFFFFFFF AND DUP2 MSTORE PUSH1 0x20 ADD SWAP1 PUSH1 0x1 ADD SWAP1 DUP1 DUP4 GT PUSH2 0x23B JUMPI JUMPDEST POP POP POP POP POP SWAP2 POP POP SWAP1 JUMP JUMPDEST PUSH1 0x4 CALLER SWAP1 DUP1 PUSH1 0x1 DUP2 SLOAD ADD DUP1 DUP3 SSTORE DUP1 SWAP2 POP POP PUSH1 0x1 SWAP1 SUB SWAP1 PUSH1 0x0 MSTORE PUSH1 0x20 PUSH1 0x0 KECCAK256 ADD PUSH1 0x0 SWAP1 SWAP2 SWAP1 SWAP2 SWAP1 SWAP2 PUSH2 0x100 EXP DUP2 SLOAD DUP2 PUSH20 0xFFFFFFFFFFFFFFFFFFFFFFFFFFFFFFFFFFFFFFFF MUL NOT AND SWAP1 DUP4 PUSH20 0xFFFFFFFFFFFFFFFFFFFFFFFFFFFFFFFFFFFFFFFF AND MUL OR SWAP1 SSTORE POP PUSH32 0xEBA56E5F1457CE7BC7B40B05BA0B52C95AA6E677BC7309C9CBFC24DA26A58974 CALLER PUSH1 0x40 MLOAD PUSH2 0x322 SWAP2 SWAP1 PUSH2 0x7EF JUMP JUMPDEST PUSH1 0x40 MLOAD DUP1 SWAP2 SUB SWAP1 LOG1 JUMP JUMPDEST PUSH1 0x3 DUP2 DUP2 SLOAD DUP2 LT PUSH2 0x33C JUMPI PUSH1 0x0 DUP1 REVERT JUMPDEST SWAP1 PUSH1 0x0 MSTORE PUSH1 0x20 PUSH1 0x0 KECCAK256 ADD PUSH1 0x0 SWAP2 POP SLOAD SWAP1 PUSH2 0x100 EXP SWAP1 DIV PUSH20 0xFFFFFFFFFFFFFFFFFFFFFFFFFFFFFFFFFFFFFFFF AND DUP2 JUMP JUMPDEST PUSH1 0x1 ISZERO ISZERO PUSH1 0x1 PUSH1 0x0 CALLER PUSH20 0xFFFFFFFFFFFFFFFFFFFFFFFFFFFFFFFFFFFFFFFF AND PUSH20 0xFFFFFFFFFFFFFFFFFFFFFFFFFFFFFFFFFFFFFFFF AND DUP2 MSTORE PUSH1 0x20 ADD SWAP1 DUP2 MSTORE PUSH1 0x20 ADD PUSH1 0x0 KECCAK256 PUSH1 0x0 SWAP1 SLOAD SWAP1 PUSH2 0x100 EXP SWAP1 DIV PUSH1 0xFF AND ISZERO ISZERO EQ PUSH2 0x3FE JUMPI PUSH1 0x40 MLOAD PUSH32 0x8C379A000000000000000000000000000000000000000000000000000000000 DUP2 MSTORE PUSH1 0x4 ADD PUSH2 0x3F5 SWAP1 PUSH2 0x855 JUMP JUMPDEST PUSH1 0x40 MLOAD DUP1 SWAP2 SUB SWAP1 REVERT JUMPDEST PUSH1 0x0 CALLER PUSH1 0x40 MLOAD PUSH2 0x40D SWAP1 PUSH2 0x6A7 JUMP JUMPDEST PUSH2 0x417 SWAP2 SWAP1 PUSH2 0x7EF JUMP JUMPDEST PUSH1 0x40 MLOAD DUP1 SWAP2 SUB SWAP1 PUSH1 0x0 CREATE DUP1 ISZERO DUP1 ISZERO PUSH2 0x433 JUMPI RETURNDATASIZE PUSH1 0x0 DUP1 RETURNDATACOPY RETURNDATASIZE PUSH1 0x0 REVERT JUMPDEST POP SWAP1 POP PUSH1 0x3 DUP2 SWAP1 DUP1 PUSH1 0x1 DUP2 SLOAD ADD DUP1 DUP3 SSTORE DUP1 SWAP2 POP POP PUSH1 0x1 SWAP1 SUB SWAP1 PUSH1 0x0 MSTORE PUSH1 0x20 PUSH1 0x0 KECCAK256 ADD PUSH1 0x0 SWAP1 SWAP2 SWAP1 SWAP2 SWAP1 SWAP2 PUSH2 0x100 EXP DUP2 SLOAD DUP2 PUSH20 0xFFFFFFFFFFFFFFFFFFFFFFFFFFFFFFFFFFFFFFFF MUL NOT AND SWAP1 DUP4 PUSH20 0xFFFFFFFFFFFFFFFFFFFFFFFFFFFFFFFFFFFFFFFF AND MUL OR SWAP1 SSTORE POP DUP1 PUSH1 0x2 PUSH1 0x0 CALLER PUSH20 0xFFFFFFFFFFFFFFFFFFFFFFFFFFFFFFFFFFFFFFFF AND PUSH20 0xFFFFFFFFFFFFFFFFFFFFFFFFFFFFFFFFFFFFFFFF AND DUP2 MSTORE PUSH1 0x20 ADD SWAP1 DUP2 MSTORE PUSH1 0x20 ADD PUSH1 0x0 KECCAK256 PUSH1 0x0 PUSH2 0x100 EXP DUP2 SLOAD DUP2 PUSH20 0xFFFFFFFFFFFFFFFFFFFFFFFFFFFFFFFFFFFFFFFF MUL NOT AND SWAP1 DUP4 PUSH20 0xFFFFFFFFFFFFFFFFFFFFFFFFFFFFFFFFFFFFFFFF AND MUL OR SWAP1 SSTORE POP PUSH32 0xE08A9F416B8C3655F59535F4609D69E3B126CA6C0591451EE1D49A6430AB39C6 DUP2 CALLER PUSH1 0x40 MLOAD PUSH2 0x548 SWAP3 SWAP2 SWAP1 PUSH2 0x80A JUMP JUMPDEST PUSH1 0x40 MLOAD DUP1 SWAP2 SUB SWAP1 LOG1 POP JUMP JUMPDEST CALLER PUSH1 0x0 DUP1 SLOAD SWAP1 PUSH2 0x100 EXP SWAP1 DIV PUSH20 0xFFFFFFFFFFFFFFFFFFFFFFFFFFFFFFFFFFFFFFFF AND PUSH20 0xFFFFFFFFFFFFFFFFFFFFFFFFFFFFFFFFFFFFFFFF AND DUP2 PUSH20 0xFFFFFFFFFFFFFFFFFFFFFFFFFFFFFFFFFFFFFFFF AND EQ PUSH2 0x5E2 JUMPI PUSH1 0x40 MLOAD PUSH32 0x8C379A000000000000000000000000000000000000000000000000000000000 DUP2 MSTORE PUSH1 0x4 ADD PUSH2 0x5D9 SWAP1 PUSH2 0x855 JUMP JUMPDEST PUSH1 0x40 MLOAD DUP1 SWAP2 SUB SWAP1 REVERT JUMPDEST PUSH1 0x1 DUP1 PUSH1 0x0 DUP5 PUSH20 0xFFFFFFFFFFFFFFFFFFFFFFFFFFFFFFFFFFFFFFFF AND PUSH20 0xFFFFFFFFFFFFFFFFFFFFFFFFFFFFFFFFFFFFFFFF AND DUP2 MSTORE PUSH1 0x20 ADD SWAP1 DUP2 MSTORE PUSH1 0x20 ADD PUSH1 0x0 KECCAK256 PUSH1 0x0 PUSH2 0x100 EXP DUP2 SLOAD DUP2 PUSH1 0xFF MUL NOT AND SWAP1 DUP4 ISZERO ISZERO MUL OR SWAP1 SSTORE POP PUSH32 0x49FBBE88355A886408E8788B96B735508BE2A0BEC15825EF8FFC24AA5C6CB829 DUP3 PUSH1 0x40 MLOAD PUSH2 0x668 SWAP2 SWAP1 PUSH2 0x7EF JUMP JUMPDEST PUSH1 0x40 MLOAD DUP1 SWAP2 SUB SWAP1 LOG1 POP POP JUMP JUMPDEST PUSH1 0x2 PUSH1 0x20 MSTORE DUP1 PUSH1 0x0 MSTORE PUSH1 0x40 PUSH1 0x0 KECCAK256 PUSH1 0x0 SWAP2 POP SLOAD SWAP1 PUSH2 0x100 EXP SWAP1 DIV PUSH20 0xFFFFFFFFFFFFFFFFFFFFFFFFFFFFFFFFFFFFFFFF AND DUP2 JUMP JUMPDEST PUSH2 0xB43 DUP1 PUSH2 0x97E DUP4 CODECOPY ADD SWAP1 JUMP JUMPDEST PUSH1 0x0 DUP2 CALLDATALOAD SWAP1 POP PUSH2 0x6C3 DUP2 PUSH2 0x94F JUMP JUMPDEST SWAP3 SWAP2 POP POP JUMP JUMPDEST PUSH1 0x0 DUP2 CALLDATALOAD SWAP1 POP PUSH2 0x6D8 DUP2 PUSH2 0x966 JUMP JUMPDEST SWAP3 SWAP2 POP POP JUMP JUMPDEST PUSH1 0x0 PUSH1 0x20 DUP3 DUP5 SUB SLT ISZERO PUSH2 0x6F4 JUMPI PUSH2 0x6F3 PUSH2 0x8FB JUMP JUMPDEST JUMPDEST PUSH1 0x0 PUSH2 0x702 DUP5 DUP3 DUP6 ADD PUSH2 0x6B4 JUMP JUMPDEST SWAP2 POP POP SWAP3 SWAP2 POP POP JUMP JUMPDEST PUSH1 0x0 PUSH1 0x20 DUP3 DUP5 SUB SLT ISZERO PUSH2 0x721 JUMPI PUSH2 0x720 PUSH2 0x8FB JUMP JUMPDEST JUMPDEST PUSH1 0x0 PUSH2 0x72F DUP5 DUP3 DUP6 ADD PUSH2 0x6C9 JUMP JUMPDEST SWAP2 POP POP SWAP3 SWAP2 POP POP JUMP JUMPDEST PUSH1 0x0 PUSH2 0x744 DUP4 DUP4 PUSH2 0x750 JUMP JUMPDEST PUSH1 0x20 DUP4 ADD SWAP1 POP SWAP3 SWAP2 POP POP JUMP JUMPDEST PUSH2 0x759 DUP2 PUSH2 0x8BF JUMP JUMPDEST DUP3 MSTORE POP POP JUMP JUMPDEST PUSH2 0x768 DUP2 PUSH2 0x8BF JUMP JUMPDEST DUP3 MSTORE POP POP JUMP JUMPDEST PUSH1 0x0 PUSH2 0x779 DUP3 PUSH2 0x885 JUMP JUMPDEST PUSH2 0x783 DUP2 DUP6 PUSH2 0x89D JUMP JUMPDEST SWAP4 POP PUSH2 0x78E DUP4 PUSH2 0x875 JUMP JUMPDEST DUP1 PUSH1 0x0 JUMPDEST DUP4 DUP2 LT ISZERO PUSH2 0x7BF JUMPI DUP2 MLOAD PUSH2 0x7A6 DUP9 DUP3 PUSH2 0x738 JUMP JUMPDEST SWAP8 POP PUSH2 0x7B1 DUP4 PUSH2 0x890 JUMP JUMPDEST SWAP3 POP POP PUSH1 0x1 DUP2 ADD SWAP1 POP PUSH2 0x792 JUMP JUMPDEST POP DUP6 SWAP4 POP POP POP POP SWAP3 SWAP2 POP POP JUMP JUMPDEST PUSH1 0x0 PUSH2 0x7D9 PUSH1 0x2E DUP4 PUSH2 0x8AE JUMP JUMPDEST SWAP2 POP PUSH2 0x7E4 DUP3 PUSH2 0x900 JUMP JUMPDEST PUSH1 0x40 DUP3 ADD SWAP1 POP SWAP2 SWAP1 POP JUMP JUMPDEST PUSH1 0x0 PUSH1 0x20 DUP3 ADD SWAP1 POP PUSH2 0x804 PUSH1 0x0 DUP4 ADD DUP5 PUSH2 0x75F JUMP JUMPDEST SWAP3 SWAP2 POP POP JUMP JUMPDEST PUSH1 0x0 PUSH1 0x40 DUP3 ADD SWAP1 POP PUSH2 0x81F PUSH1 0x0 DUP4 ADD DUP6 PUSH2 0x75F JUMP JUMPDEST PUSH2 0x82C PUSH1 0x20 DUP4 ADD DUP5 PUSH2 0x75F JUMP JUMPDEST SWAP4 SWAP3 POP POP POP JUMP JUMPDEST PUSH1 0x0 PUSH1 0x20 DUP3 ADD SWAP1 POP DUP2 DUP2 SUB PUSH1 0x0 DUP4 ADD MSTORE PUSH2 0x84D DUP2 DUP5 PUSH2 0x76E JUMP JUMPDEST SWAP1 POP SWAP3 SWAP2 POP POP JUMP JUMPDEST PUSH1 0x0 PUSH1 0x20 DUP3 ADD SWAP1 POP DUP2 DUP2 SUB PUSH1 0x0 DUP4 ADD MSTORE PUSH2 0x86E DUP2 PUSH2 0x7CC JUMP JUMPDEST SWAP1 POP SWAP2 SWAP1 POP JUMP JUMPDEST PUSH1 0x0 DUP2 SWAP1 POP PUSH1 0x20 DUP3 ADD SWAP1 POP SWAP2 SWAP1 POP JUMP JUMPDEST PUSH1 0x0 DUP2 MLOAD SWAP1 POP SWAP2 SWAP1 POP JUMP JUMPDEST PUSH1 0x0 PUSH1 0x20 DUP3 ADD SWAP1 POP SWAP2 SWAP1 POP JUMP JUMPDEST PUSH1 0x0 DUP3 DUP3 MSTORE PUSH1 0x20 DUP3 ADD SWAP1 POP SWAP3 SWAP2 POP POP JUMP JUMPDEST PUSH1 0x0 DUP3 DUP3 MSTORE PUSH1 0x20 DUP3 ADD SWAP1 POP SWAP3 SWAP2 POP POP JUMP JUMPDEST PUSH1 0x0 PUSH2 0x8CA DUP3 PUSH2 0x8D1 JUMP JUMPDEST SWAP1 POP SWAP2 SWAP1 POP JUMP JUMPDEST PUSH1 0x0 PUSH20 0xFFFFFFFFFFFFFFFFFFFFFFFFFFFFFFFFFFFFFFFF DUP3 AND SWAP1 POP SWAP2 SWAP1 POP JUMP JUMPDEST PUSH1 0x0 DUP2 SWAP1 POP SWAP2 SWAP1 POP JUMP JUMPDEST PUSH1 0x0 DUP1 REVERT JUMPDEST PUSH32 0x4E6F207469656E6573207065726D69736F732070617261207265616C697A6172 PUSH1 0x0 DUP3 ADD MSTORE PUSH32 0x20657374612066756E63696F6E2E000000000000000000000000000000000000 PUSH1 0x20 DUP3 ADD MSTORE POP JUMP JUMPDEST PUSH2 0x958 DUP2 PUSH2 0x8BF JUMP JUMPDEST DUP2 EQ PUSH2 0x963 JUMPI PUSH1 0x0 DUP1 REVERT JUMPDEST POP JUMP JUMPDEST PUSH2 0x96F DUP2 PUSH2 0x8F1 JUMP JUMPDEST DUP2 EQ PUSH2 0x97A JUMPI PUSH1 0x0 DUP1 REVERT JUMPDEST POP JUMP INVALID PUSH1 0x80 PUSH1 0x40 MSTORE CALLVALUE DUP1 ISZERO PUSH2 0x10 JUMPI PUSH1 0x0 DUP1 REVERT JUMPDEST POP PUSH1 0x40 MLOAD PUSH2 0xB43 CODESIZE SUB DUP1 PUSH2 0xB43 DUP4 CODECOPY DUP2 DUP2 ADD PUSH1 0x40 MSTORE DUP2 ADD SWAP1 PUSH2 0x32 SWAP2 SWAP1 PUSH2 0xCE JUMP JUMPDEST DUP1 PUSH1 0x0 DUP1 PUSH2 0x100 EXP DUP2 SLOAD DUP2 PUSH20 0xFFFFFFFFFFFFFFFFFFFFFFFFFFFFFFFFFFFFFFFF MUL NOT AND SWAP1 DUP4 PUSH20 0xFFFFFFFFFFFFFFFFFFFFFFFFFFFFFFFFFFFFFFFF AND MUL OR SWAP1 SSTORE POP ADDRESS PUSH1 0x1 PUSH1 0x0 PUSH2 0x100 EXP DUP2 SLOAD DUP2 PUSH20 0xFFFFFFFFFFFFFFFFFFFFFFFFFFFFFFFFFFFFFFFF MUL NOT AND SWAP1 DUP4 PUSH20 0xFFFFFFFFFFFFFFFFFFFFFFFFFFFFFFFFFFFFFFFF AND MUL OR SWAP1 SSTORE POP POP PUSH2 0x149 JUMP JUMPDEST PUSH1 0x0 DUP2 MLOAD SWAP1 POP PUSH2 0xC8 DUP2 PUSH2 0x132 JUMP JUMPDEST SWAP3 SWAP2 POP POP JUMP JUMPDEST PUSH1 0x0 PUSH1 0x20 DUP3 DUP5 SUB SLT ISZERO PUSH2 0xE4 JUMPI PUSH2 0xE3 PUSH2 0x12D JUMP JUMPDEST JUMPDEST PUSH1 0x0 PUSH2 0xF2 DUP5 DUP3 DUP6 ADD PUSH2 0xB9 JUMP JUMPDEST SWAP2 POP POP SWAP3 SWAP2 POP POP JUMP JUMPDEST PUSH1 0x0 PUSH2 0x106 DUP3 PUSH2 0x10D JUMP JUMPDEST SWAP1 POP SWAP2 SWAP1 POP JUMP JUMPDEST PUSH1 0x0 PUSH20 0xFFFFFFFFFFFFFFFFFFFFFFFFFFFFFFFFFFFFFFFF DUP3 AND SWAP1 POP SWAP2 SWAP1 POP JUMP JUMPDEST PUSH1 0x0 DUP1 REVERT JUMPDEST PUSH2 0x13B DUP2 PUSH2 0xFB JUMP JUMPDEST DUP2 EQ PUSH2 0x146 JUMPI PUSH1 0x0 DUP1 REVERT JUMPDEST POP JUMP JUMPDEST PUSH2 0x9EB DUP1 PUSH2 0x158 PUSH1 0x0 CODECOPY PUSH1 0x0 RETURN INVALID PUSH1 0x80 PUSH1 0x40 MSTORE CALLVALUE DUP1 ISZERO PUSH2 0x10 JUMPI PUSH1 0x0 DUP1 REVERT JUMPDEST POP PUSH1 0x4 CALLDATASIZE LT PUSH2 0x4C JUMPI PUSH1 0x0 CALLDATALOAD PUSH1 0xE0 SHR DUP1 PUSH4 0xEA87DF0 EQ PUSH2 0x51 JUMPI DUP1 PUSH4 0x630EA6E2 EQ PUSH2 0x6F JUMPI DUP1 PUSH4 0x9E749FA4 EQ PUSH2 0x8D JUMPI DUP1 PUSH4 0xDAD6EBEB EQ PUSH2 0xA9 JUMPI JUMPDEST PUSH1 0x0 DUP1 REVERT JUMPDEST PUSH2 0x59 PUSH2 0xDA JUMP JUMPDEST PUSH1 0x40 MLOAD PUSH2 0x66 SWAP2 SWAP1 PUSH2 0x6CA JUMP JUMPDEST PUSH1 0x40 MLOAD DUP1 SWAP2 SUB SWAP1 RETURN JUMPDEST PUSH2 0x77 PUSH2 0xFE JUMP JUMPDEST PUSH1 0x40 MLOAD PUSH2 0x84 SWAP2 SWAP1 PUSH2 0x6CA JUMP JUMPDEST PUSH1 0x40 MLOAD DUP1 SWAP2 SUB SWAP1 RETURN JUMPDEST PUSH2 0xA7 PUSH1 0x4 DUP1 CALLDATASIZE SUB DUP2 ADD SWAP1 PUSH2 0xA2 SWAP2 SWAP1 PUSH2 0x57D JUMP JUMPDEST PUSH2 0x124 JUMP JUMPDEST STOP JUMPDEST PUSH2 0xC3 PUSH1 0x4 DUP1 CALLDATASIZE SUB DUP2 ADD SWAP1 PUSH2 0xBE SWAP2 SWAP1 PUSH2 0x534 JUMP JUMPDEST PUSH2 0x288 JUMP JUMPDEST PUSH1 0x40 MLOAD PUSH2 0xD1 SWAP3 SWAP2 SWAP1 PUSH2 0x715 JUMP JUMPDEST PUSH1 0x40 MLOAD DUP1 SWAP2 SUB SWAP1 RETURN JUMPDEST PUSH1 0x0 DUP1 SLOAD SWAP1 PUSH2 0x100 EXP SWAP1 DIV PUSH20 0xFFFFFFFFFFFFFFFFFFFFFFFFFFFFFFFFFFFFFFFF AND DUP2 JUMP JUMPDEST PUSH1 0x1 PUSH1 0x0 SWAP1 SLOAD SWAP1 PUSH2 0x100 EXP SWAP1 DIV PUSH20 0xFFFFFFFFFFFFFFFFFFFFFFFFFFFFFFFFFFFFFFFF AND DUP2 JUMP JUMPDEST CALLER PUSH1 0x0 DUP1 SLOAD SWAP1 PUSH2 0x100 EXP SWAP1 DIV PUSH20 0xFFFFFFFFFFFFFFFFFFFFFFFFFFFFFFFFFFFFFFFF AND PUSH20 0xFFFFFFFFFFFFFFFFFFFFFFFFFFFFFFFFFFFFFFFF AND DUP2 PUSH20 0xFFFFFFFFFFFFFFFFFFFFFFFFFFFFFFFFFFFFFFFF AND EQ PUSH2 0x1B3 JUMPI PUSH1 0x40 MLOAD PUSH32 0x8C379A000000000000000000000000000000000000000000000000000000000 DUP2 MSTORE PUSH1 0x4 ADD PUSH2 0x1AA SWAP1 PUSH2 0x74C JUMP JUMPDEST PUSH1 0x40 MLOAD DUP1 SWAP2 SUB SWAP1 REVERT JUMPDEST PUSH1 0x0 DUP5 PUSH1 0x40 MLOAD PUSH1 0x20 ADD PUSH2 0x1C6 SWAP2 SWAP1 PUSH2 0x6B3 JUMP JUMPDEST PUSH1 0x40 MLOAD PUSH1 0x20 DUP2 DUP4 SUB SUB DUP2 MSTORE SWAP1 PUSH1 0x40 MSTORE DUP1 MLOAD SWAP1 PUSH1 0x20 ADD KECCAK256 SWAP1 POP PUSH1 0x40 MLOAD DUP1 PUSH1 0x40 ADD PUSH1 0x40 MSTORE DUP1 DUP6 ISZERO ISZERO DUP2 MSTORE PUSH1 0x20 ADD DUP5 DUP2 MSTORE POP PUSH1 0x2 PUSH1 0x0 DUP4 DUP2 MSTORE PUSH1 0x20 ADD SWAP1 DUP2 MSTORE PUSH1 0x20 ADD PUSH1 0x0 KECCAK256 PUSH1 0x0 DUP3 ADD MLOAD DUP2 PUSH1 0x0 ADD PUSH1 0x0 PUSH2 0x100 EXP DUP2 SLOAD DUP2 PUSH1 0xFF MUL NOT AND SWAP1 DUP4 ISZERO ISZERO MUL OR SWAP1 SSTORE POP PUSH1 0x20 DUP3 ADD MLOAD DUP2 PUSH1 0x1 ADD SWAP1 DUP1 MLOAD SWAP1 PUSH1 0x20 ADD SWAP1 PUSH2 0x244 SWAP3 SWAP2 SWAP1 PUSH2 0x40C JUMP JUMPDEST POP SWAP1 POP POP PUSH32 0x5CE26DC28FCCBF8BB2EDEC1D80991C362E4341D1B965A895736530BCB7DF4460 DUP5 DUP5 PUSH1 0x40 MLOAD PUSH2 0x279 SWAP3 SWAP2 SWAP1 PUSH2 0x6E5 JUMP JUMPDEST PUSH1 0x40 MLOAD DUP1 SWAP2 SUB SWAP1 LOG1 POP POP POP POP POP JUMP JUMPDEST PUSH1 0x60 DUP1 PUSH1 0x0 DUP4 PUSH1 0x40 MLOAD PUSH1 0x20 ADD PUSH2 0x29E SWAP2 SWAP1 PUSH2 0x6B3 JUMP JUMPDEST PUSH1 0x40 MLOAD PUSH1 0x20 DUP2 DUP4 SUB SUB DUP2 MSTORE SWAP1 PUSH1 0x40 MSTORE DUP1 MLOAD SWAP1 PUSH1 0x20 ADD KECCAK256 SWAP1 POP PUSH1 0x60 PUSH1 0x1 ISZERO ISZERO PUSH1 0x2 PUSH1 0x0 DUP5 DUP2 MSTORE PUSH1 0x20 ADD SWAP1 DUP2 MSTORE PUSH1 0x20 ADD PUSH1 0x0 KECCAK256 PUSH1 0x0 ADD PUSH1 0x0 SWAP1 SLOAD SWAP1 PUSH2 0x100 EXP SWAP1 DIV PUSH1 0xFF AND ISZERO ISZERO EQ ISZERO PUSH2 0x325 JUMPI PUSH1 0x40 MLOAD DUP1 PUSH1 0x40 ADD PUSH1 0x40 MSTORE DUP1 PUSH1 0x8 DUP2 MSTORE PUSH1 0x20 ADD PUSH32 0x506F73697469766F000000000000000000000000000000000000000000000000 DUP2 MSTORE POP SWAP1 POP PUSH2 0x35E JUMP JUMPDEST PUSH1 0x40 MLOAD DUP1 PUSH1 0x40 ADD PUSH1 0x40 MSTORE DUP1 PUSH1 0x8 DUP2 MSTORE PUSH1 0x20 ADD PUSH32 0x4E6567617469766F000000000000000000000000000000000000000000000000 DUP2 MSTORE POP SWAP1 POP JUMPDEST DUP1 PUSH1 0x2 PUSH1 0x0 DUP5 DUP2 MSTORE PUSH1 0x20 ADD SWAP1 DUP2 MSTORE PUSH1 0x20 ADD PUSH1 0x0 KECCAK256 PUSH1 0x1 ADD DUP1 DUP1 SLOAD PUSH2 0x381 SWAP1 PUSH2 0x869 JUMP JUMPDEST DUP1 PUSH1 0x1F ADD PUSH1 0x20 DUP1 SWAP2 DIV MUL PUSH1 0x20 ADD PUSH1 0x40 MLOAD SWAP1 DUP2 ADD PUSH1 0x40 MSTORE DUP1 SWAP3 SWAP2 SWAP1 DUP2 DUP2 MSTORE PUSH1 0x20 ADD DUP3 DUP1 SLOAD PUSH2 0x3AD SWAP1 PUSH2 0x869 JUMP JUMPDEST DUP1 ISZERO PUSH2 0x3FA JUMPI DUP1 PUSH1 0x1F LT PUSH2 0x3CF JUMPI PUSH2 0x100 DUP1 DUP4 SLOAD DIV MUL DUP4 MSTORE SWAP2 PUSH1 0x20 ADD SWAP2 PUSH2 0x3FA JUMP JUMPDEST DUP3 ADD SWAP2 SWAP1 PUSH1 0x0 MSTORE PUSH1 0x20 PUSH1 0x0 KECCAK256 SWAP1 JUMPDEST DUP2 SLOAD DUP2 MSTORE SWAP1 PUSH1 0x1 ADD SWAP1 PUSH1 0x20 ADD DUP1 DUP4 GT PUSH2 0x3DD JUMPI DUP3 SWAP1 SUB PUSH1 0x1F AND DUP3 ADD SWAP2 JUMPDEST POP POP POP POP POP SWAP1 POP SWAP4 POP SWAP4 POP POP POP SWAP2 POP SWAP2 JUMP JUMPDEST DUP3 DUP1 SLOAD PUSH2 0x418 SWAP1 PUSH2 0x869 JUMP JUMPDEST SWAP1 PUSH1 0x0 MSTORE PUSH1 0x20 PUSH1 0x0 KECCAK256 SWAP1 PUSH1 0x1F ADD PUSH1 0x20 SWAP1 DIV DUP2 ADD SWAP3 DUP3 PUSH2 0x43A JUMPI PUSH1 0x0 DUP6 SSTORE PUSH2 0x481 JUMP JUMPDEST DUP3 PUSH1 0x1F LT PUSH2 0x453 JUMPI DUP1 MLOAD PUSH1 0xFF NOT AND DUP4 DUP1 ADD OR DUP6 SSTORE PUSH2 0x481 JUMP JUMPDEST DUP3 DUP1 ADD PUSH1 0x1 ADD DUP6 SSTORE DUP3 ISZERO PUSH2 0x481 JUMPI SWAP2 DUP3 ADD JUMPDEST DUP3 DUP2 GT ISZERO PUSH2 0x480 JUMPI DUP3 MLOAD DUP3 SSTORE SWAP2 PUSH1 0x20 ADD SWAP2 SWAP1 PUSH1 0x1 ADD SWAP1 PUSH2 0x465 JUMP JUMPDEST JUMPDEST POP SWAP1 POP PUSH2 0x48E SWAP2 SWAP1 PUSH2 0x492 JUMP JUMPDEST POP SWAP1 JUMP JUMPDEST JUMPDEST DUP1 DUP3 GT ISZERO PUSH2 0x4AB JUMPI PUSH1 0x0 DUP2 PUSH1 0x0 SWAP1 SSTORE POP PUSH1 0x1 ADD PUSH2 0x493 JUMP JUMPDEST POP SWAP1 JUMP JUMPDEST PUSH1 0x0 PUSH2 0x4C2 PUSH2 0x4BD DUP5 PUSH2 0x791 JUMP JUMPDEST PUSH2 0x76C JUMP JUMPDEST SWAP1 POP DUP3 DUP2 MSTORE PUSH1 0x20 DUP2 ADD DUP5 DUP5 DUP5 ADD GT ISZERO PUSH2 0x4DE JUMPI PUSH2 0x4DD PUSH2 0x92F JUMP JUMPDEST JUMPDEST PUSH2 0x4E9 DUP5 DUP3 DUP6 PUSH2 0x827 JUMP JUMPDEST POP SWAP4 SWAP3 POP POP POP JUMP JUMPDEST PUSH1 0x0 DUP2 CALLDATALOAD SWAP1 POP PUSH2 0x500 DUP2 PUSH2 0x99E JUMP JUMPDEST SWAP3 SWAP2 POP POP JUMP JUMPDEST PUSH1 0x0 DUP3 PUSH1 0x1F DUP4 ADD SLT PUSH2 0x51B JUMPI PUSH2 0x51A PUSH2 0x92A JUMP JUMPDEST JUMPDEST DUP2 CALLDATALOAD PUSH2 0x52B DUP5 DUP3 PUSH1 0x20 DUP7 ADD PUSH2 0x4AF JUMP JUMPDEST SWAP2 POP POP SWAP3 SWAP2 POP POP JUMP JUMPDEST PUSH1 0x0 PUSH1 0x20 DUP3 DUP5 SUB SLT ISZERO PUSH2 0x54A JUMPI PUSH2 0x549 PUSH2 0x939 JUMP JUMPDEST JUMPDEST PUSH1 0x0 DUP3 ADD CALLDATALOAD PUSH8 0xFFFFFFFFFFFFFFFF DUP2 GT ISZERO PUSH2 0x568 JUMPI PUSH2 0x567 PUSH2 0x934 JUMP JUMPDEST JUMPDEST PUSH2 0x574 DUP5 DUP3 DUP6 ADD PUSH2 0x506 JUMP JUMPDEST SWAP2 POP POP SWAP3 SWAP2 POP POP JUMP JUMPDEST PUSH1 0x0 DUP1 PUSH1 0x0 PUSH1 0x60 DUP5 DUP7 SUB SLT ISZERO PUSH2 0x596 JUMPI PUSH2 0x595 PUSH2 0x939 JUMP JUMPDEST JUMPDEST PUSH1 0x0 DUP5 ADD CALLDATALOAD PUSH8 0xFFFFFFFFFFFFFFFF DUP2 GT ISZERO PUSH2 0x5B4 JUMPI PUSH2 0x5B3 PUSH2 0x934 JUMP JUMPDEST JUMPDEST PUSH2 0x5C0 DUP7 DUP3 DUP8 ADD PUSH2 0x506 JUMP JUMPDEST SWAP4 POP POP PUSH1 0x20 PUSH2 0x5D1 DUP7 DUP3 DUP8 ADD PUSH2 0x4F1 JUMP JUMPDEST SWAP3 POP POP PUSH1 0x40 DUP5 ADD CALLDATALOAD PUSH8 0xFFFFFFFFFFFFFFFF DUP2 GT ISZERO PUSH2 0x5F2 JUMPI PUSH2 0x5F1 PUSH2 0x934 JUMP JUMPDEST JUMPDEST PUSH2 0x5FE DUP7 DUP3 DUP8 ADD PUSH2 0x506 JUMP JUMPDEST SWAP2 POP POP SWAP3 POP SWAP3 POP SWAP3 JUMP JUMPDEST PUSH2 0x611 DUP2 PUSH2 0x7E9 JUMP JUMPDEST DUP3 MSTORE POP POP JUMP JUMPDEST PUSH2 0x620 DUP2 PUSH2 0x7FB JUMP JUMPDEST DUP3 MSTORE POP POP JUMP JUMPDEST PUSH1 0x0 PUSH2 0x631 DUP3 PUSH2 0x7C2 JUMP JUMPDEST PUSH2 0x63B DUP2 DUP6 PUSH2 0x7CD JUMP JUMPDEST SWAP4 POP PUSH2 0x64B DUP2 DUP6 PUSH1 0x20 DUP7 ADD PUSH2 0x836 JUMP JUMPDEST PUSH2 0x654 DUP2 PUSH2 0x93E JUMP JUMPDEST DUP5 ADD SWAP2 POP POP SWAP3 SWAP2 POP POP JUMP JUMPDEST PUSH1 0x0 PUSH2 0x66A DUP3 PUSH2 0x7C2 JUMP JUMPDEST PUSH2 0x674 DUP2 DUP6 PUSH2 0x7DE JUMP JUMPDEST SWAP4 POP PUSH2 0x684 DUP2 DUP6 PUSH1 0x20 DUP7 ADD PUSH2 0x836 JUMP JUMPDEST DUP1 DUP5 ADD SWAP2 POP POP SWAP3 SWAP2 POP POP JUMP JUMPDEST PUSH1 0x0 PUSH2 0x69D PUSH1 0x2E DUP4 PUSH2 0x7CD JUMP JUMPDEST SWAP2 POP PUSH2 0x6A8 DUP3 PUSH2 0x94F JUMP JUMPDEST PUSH1 0x40 DUP3 ADD SWAP1 POP SWAP2 SWAP1 POP JUMP JUMPDEST PUSH1 0x0 PUSH2 0x6BF DUP3 DUP5 PUSH2 0x65F JUMP JUMPDEST SWAP2 POP DUP2 SWAP1 POP SWAP3 SWAP2 POP POP JUMP JUMPDEST PUSH1 0x0 PUSH1 0x20 DUP3 ADD SWAP1 POP PUSH2 0x6DF PUSH1 0x0 DUP4 ADD DUP5 PUSH2 0x608 JUMP JUMPDEST SWAP3 SWAP2 POP POP JUMP JUMPDEST PUSH1 0x0 PUSH1 0x40 DUP3 ADD SWAP1 POP PUSH2 0x6FA PUSH1 0x0 DUP4 ADD DUP6 PUSH2 0x617 JUMP JUMPDEST DUP2 DUP2 SUB PUSH1 0x20 DUP4 ADD MSTORE PUSH2 0x70C DUP2 DUP5 PUSH2 0x626 JUMP JUMPDEST SWAP1 POP SWAP4 SWAP3 POP POP POP JUMP JUMPDEST PUSH1 0x0 PUSH1 0x40 DUP3 ADD SWAP1 POP DUP2 DUP2 SUB PUSH1 0x0 DUP4 ADD MSTORE PUSH2 0x72F DUP2 DUP6 PUSH2 0x626 JUMP JUMPDEST SWAP1 POP DUP2 DUP2 SUB PUSH1 0x20 DUP4 ADD MSTORE PUSH2 0x743 DUP2 DUP5 PUSH2 0x626 JUMP JUMPDEST SWAP1 POP SWAP4 SWAP3 POP POP POP JUMP JUMPDEST PUSH1 0x0 PUSH1 0x20 DUP3 ADD SWAP1 POP DUP2 DUP2 SUB PUSH1 0x0 DUP4 ADD MSTORE PUSH2 0x765 DUP2 PUSH2 0x690 JUMP JUMPDEST SWAP1 POP SWAP2 SWAP1 POP JUMP JUMPDEST PUSH1 0x0 PUSH2 0x776 PUSH2 0x787 JUMP JUMPDEST SWAP1 POP PUSH2 0x782 DUP3 DUP3 PUSH2 0x89B JUMP JUMPDEST SWAP2 SWAP1 POP JUMP JUMPDEST PUSH1 0x0 PUSH1 0x40 MLOAD SWAP1 POP SWAP1 JUMP JUMPDEST PUSH1 0x0 PUSH8 0xFFFFFFFFFFFFFFFF DUP3 GT ISZERO PUSH2 0x7AC JUMPI PUSH2 0x7AB PUSH2 0x8FB JUMP JUMPDEST JUMPDEST PUSH2 0x7B5 DUP3 PUSH2 0x93E JUMP JUMPDEST SWAP1 POP PUSH1 0x20 DUP2 ADD SWAP1 POP SWAP2 SWAP1 POP JUMP JUMPDEST PUSH1 0x0 DUP2 MLOAD SWAP1 POP SWAP2 SWAP1 POP JUMP JUMPDEST PUSH1 0x0 DUP3 DUP3 MSTORE PUSH1 0x20 DUP3 ADD SWAP1 POP SWAP3 SWAP2 POP POP JUMP JUMPDEST PUSH1 0x0 DUP2 SWAP1 POP SWAP3 SWAP2 POP POP JUMP JUMPDEST PUSH1 0x0 PUSH2 0x7F4 DUP3 PUSH2 0x807 JUMP JUMPDEST SWAP1 POP SWAP2 SWAP1 POP JUMP JUMPDEST PUSH1 0x0 DUP2 ISZERO ISZERO SWAP1 POP SWAP2 SWAP1 POP JUMP JUMPDEST PUSH1 0x0 PUSH20 0xFFFFFFFFFFFFFFFFFFFFFFFFFFFFFFFFFFFFFFFF DUP3 AND SWAP1 POP SWAP2 SWAP1 POP JUMP JUMPDEST DUP3 DUP2 DUP4 CALLDATACOPY PUSH1 0x0 DUP4 DUP4 ADD MSTORE POP POP POP JUMP JUMPDEST PUSH1 0x0 JUMPDEST DUP4 DUP2 LT ISZERO PUSH2 0x854 JUMPI DUP1 DUP3 ADD MLOAD DUP2 DUP5 ADD MSTORE PUSH1 0x20 DUP2 ADD SWAP1 POP PUSH2 0x839 JUMP JUMPDEST DUP4 DUP2 GT ISZERO PUSH2 0x863 JUMPI PUSH1 0x0 DUP5 DUP5 ADD MSTORE JUMPDEST POP POP POP POP JUMP JUMPDEST PUSH1 0x0 PUSH1 0x2 DUP3 DIV SWAP1 POP PUSH1 0x1 DUP3 AND DUP1 PUSH2 0x881 JUMPI PUSH1 0x7F DUP3 AND SWAP2 POP JUMPDEST PUSH1 0x20 DUP3 LT DUP2 EQ ISZERO PUSH2 0x895 JUMPI PUSH2 0x894 PUSH2 0x8CC JUMP JUMPDEST JUMPDEST POP SWAP2 SWAP1 POP JUMP JUMPDEST PUSH2 0x8A4 DUP3 PUSH2 0x93E JUMP JUMPDEST DUP2 ADD DUP2 DUP2 LT PUSH8 0xFFFFFFFFFFFFFFFF DUP3 GT OR ISZERO PUSH2 0x8C3 JUMPI PUSH2 0x8C2 PUSH2 0x8FB JUMP JUMPDEST JUMPDEST DUP1 PUSH1 0x40 MSTORE POP POP POP JUMP JUMPDEST PUSH32 0x4E487B7100000000000000000000000000000000000000000000000000000000 PUSH1 0x0 MSTORE PUSH1 0x22 PUSH1 0x4 MSTORE PUSH1 0x24 PUSH1 0x0 REVERT JUMPDEST PUSH32 0x4E487B7100000000000000000000000000000000000000000000000000000000 PUSH1 0x0 MSTORE PUSH1 0x41 PUSH1 0x4 MSTORE PUSH1 0x24 PUSH1 0x0 REVERT JUMPDEST PUSH1 0x0 DUP1 REVERT JUMPDEST PUSH1 0x0 DUP1 REVERT JUMPDEST PUSH1 0x0 DUP1 REVERT JUMPDEST PUSH1 0x0 DUP1 REVERT JUMPDEST PUSH1 0x0 PUSH1 0x1F NOT PUSH1 0x1F DUP4 ADD AND SWAP1 POP SWAP2 SWAP1 POP JUMP JUMPDEST PUSH32 0x4E6F207469656E6573207065726D69736F73207061726120656A656375746172 PUSH1 0x0 DUP3 ADD MSTORE PUSH32 0x20657374612066756E63696F6E2E000000000000000000000000000000000000 PUSH1 0x20 DUP3 ADD MSTORE POP JUMP JUMPDEST PUSH2 0x9A7 DUP2 PUSH2 0x7FB JUMP JUMPDEST DUP2 EQ PUSH2 0x9B2 JUMPI PUSH1 0x0 DUP1 REVERT JUMPDEST POP JUMP INVALID LOG2 PUSH5 0x6970667358 0x22 SLT KECCAK256 0xC9 GAS DUP5 LOG1 CALLDATALOAD 0xB4 OR BLOCKHASH 0xD4 0xCA 0xD4 CREATE2 0x4B 0x5F 0xE7 0xC0 CHAINID ADDRESS DIFFICULTY TIMESTAMP 0xD3 SELFBALANCE NOT PUSH20 0x50DACECB22C51B6F64736F6C63430008070033A2 PUSH5 0x6970667358 0x22 SLT KECCAK256 SWAP2 EXP 0xEB 0xD7 SAR CALLCODE 0x29 PUSH17 0x2870522E30758C68D046BF7A845AD57675 CODECOPY 0xD7 0xBD SWAP13 PUSH21 0x4AB664736F6C634300080700330000000000000000 "
				},
				"gasEstimates": {
					"creation": {
						"codeDepositCost": "1073200",
						"executionCost": "25380",
						"totalCost": "1098580"
					},
					"external": {
						"CentroSalud_contrato(address)": "infinite",
						"CentrosSalud(address)": "infinite",
						"FactoryCentroSalud()": "infinite",
						"OMS()": "2512",
						"SolicitarAcceso()": "50006",
						"VisualizarSolicitudes()": "infinite",
						"direcciones_contratos_salud(uint256)": "4956"
					}
				},
				"methodIdentifiers": {
					"CentroSalud_contrato(address)": "fb8081b8",
					"CentrosSalud(address)": "bacf5ac7",
					"FactoryCentroSalud()": "9687a42c",
					"OMS()": "057dd608",
					"SolicitarAcceso()": "190318dd",
					"VisualizarSolicitudes()": "0eb79cda",
					"direcciones_contratos_salud(uint256)": "7610d05d"
				}
			},
			"storageLayout": {
				"storage": [
					{
						"astId": 4,
						"contract": "OMS/oms.sol:OMS_COVID",
						"label": "OMS",
						"offset": 0,
						"slot": "0",
						"type": "t_address"
					},
					{
						"astId": 17,
						"contract": "OMS/oms.sol:OMS_COVID",
						"label": "Validacion_CentroSalud",
						"offset": 0,
						"slot": "1",
						"type": "t_mapping(t_address,t_bool)"
					},
					{
						"astId": 21,
						"contract": "OMS/oms.sol:OMS_COVID",
						"label": "CentroSalud_contrato",
						"offset": 0,
						"slot": "2",
						"type": "t_mapping(t_address,t_address)"
					},
					{
						"astId": 24,
						"contract": "OMS/oms.sol:OMS_COVID",
						"label": "direcciones_contratos_salud",
						"offset": 0,
						"slot": "3",
						"type": "t_array(t_address)dyn_storage"
					},
					{
						"astId": 27,
						"contract": "OMS/oms.sol:OMS_COVID",
						"label": "Solicitudes",
						"offset": 0,
						"slot": "4",
						"type": "t_array(t_address)dyn_storage"
					}
				],
				"types": {
					"t_address": {
						"encoding": "inplace",
						"label": "address",
						"numberOfBytes": "20"
					},
					"t_array(t_address)dyn_storage": {
						"base": "t_address",
						"encoding": "dynamic_array",
						"label": "address[]",
						"numberOfBytes": "32"
					},
					"t_bool": {
						"encoding": "inplace",
						"label": "bool",
						"numberOfBytes": "1"
					},
					"t_mapping(t_address,t_address)": {
						"encoding": "mapping",
						"key": "t_address",
						"label": "mapping(address => address)",
						"numberOfBytes": "32",
						"value": "t_address"
					},
					"t_mapping(t_address,t_bool)": {
						"encoding": "mapping",
						"key": "t_address",
						"label": "mapping(address => bool)",
						"numberOfBytes": "32",
						"value": "t_bool"
					}
				}
			},
			"userdoc": {
				"kind": "user",
				"methods": {},
				"version": 1
			}
		}
	}
}