{
	"OMS/oms.sol": {
		"OMS_COVID": {
			"abi": [
				{
					"inputs": [],
					"stateMutability": "nonpayable",
					"type": "constructor"
				},
				{
					"anonymous": false,
					"inputs": [
						{
							"indexed": false,
							"internalType": "address",
							"name": "",
							"type": "address"
						}
					],
					"name": "NuevoCentroValidado",
					"type": "event"
				},
				{
					"anonymous": false,
					"inputs": [
						{
							"indexed": false,
							"internalType": "address",
							"name": "",
							"type": "address"
						},
						{
							"indexed": false,
							"internalType": "address",
							"name": "",
							"type": "address"
						}
					],
					"name": "NuevoContrato",
					"type": "event"
				},
				{
					"inputs": [
						{
							"internalType": "address",
							"name": "_centroSalud",
							"type": "address"
						}
					],
					"name": "CentrosSalud",
					"outputs": [],
					"stateMutability": "nonpayable",
					"type": "function"
				},
				{
					"inputs": [],
					"name": "FactoryCentroSalud",
					"outputs": [],
					"stateMutability": "nonpayable",
					"type": "function"
				},
				{
					"inputs": [],
					"name": "OMS",
					"outputs": [
						{
							"internalType": "address",
							"name": "",
							"type": "address"
						}
					],
					"stateMutability": "view",
					"type": "function"
				},
				{
					"inputs": [
						{
							"internalType": "uint256",
							"name": "",
							"type": "uint256"
						}
					],
					"name": "direcciones_contratos_salud",
					"outputs": [
						{
							"internalType": "address",
							"name": "",
							"type": "address"
						}
					],
					"stateMutability": "view",
					"type": "function"
				}
			],
			"devdoc": {
				"kind": "dev",
				"methods": {},
				"version": 1
			},
			"evm": {
				"assembly": "    /* \"OMS/oms.sol\":107:2140  contract OMS_COVID{\r... */\n  mstore(0x40, 0x80)\n    /* \"OMS/oms.sol\":251:306  constructor() public{\r... */\n  callvalue\n  dup1\n  iszero\n  tag_1\n  jumpi\n  0x00\n  dup1\n  revert\ntag_1:\n  pop\n    /* \"OMS/oms.sol\":288:298  msg.sender */\n  caller\n    /* \"OMS/oms.sol\":282:285  OMS */\n  0x00\n  dup1\n    /* \"OMS/oms.sol\":282:298  OMS = msg.sender */\n  0x0100\n  exp\n  dup2\n  sload\n  dup2\n  0xffffffffffffffffffffffffffffffffffffffff\n  mul\n  not\n  and\n  swap1\n  dup4\n  0xffffffffffffffffffffffffffffffffffffffff\n  and\n  mul\n  or\n  swap1\n  sstore\n  pop\n    /* \"OMS/oms.sol\":107:2140  contract OMS_COVID{\r... */\n  dataSize(sub_0)\n  dup1\n  dataOffset(sub_0)\n  0x00\n  codecopy\n  0x00\n  return\nstop\n\nsub_0: assembly {\n        /* \"OMS/oms.sol\":107:2140  contract OMS_COVID{\r... */\n      mstore(0x40, 0x80)\n      callvalue\n      dup1\n      iszero\n      tag_1\n      jumpi\n      0x00\n      dup1\n      revert\n    tag_1:\n      pop\n      jumpi(tag_2, lt(calldatasize, 0x04))\n      shr(0xe0, calldataload(0x00))\n      dup1\n      0x057dd608\n      eq\n      tag_3\n      jumpi\n      dup1\n      0x7610d05d\n      eq\n      tag_4\n      jumpi\n      dup1\n      0x9687a42c\n      eq\n      tag_5\n      jumpi\n      dup1\n      0xbacf5ac7\n      eq\n      tag_6\n      jumpi\n    tag_2:\n      0x00\n      dup1\n      revert\n        /* \"OMS/oms.sol\":192:210  address public OMS */\n    tag_3:\n      tag_7\n      tag_8\n      jump\t// in\n    tag_7:\n      mload(0x40)\n      tag_9\n      swap2\n      swap1\n      tag_10\n      jump\t// in\n    tag_9:\n      mload(0x40)\n      dup1\n      swap2\n      sub\n      swap1\n      return\n        /* \"OMS/oms.sol\":677:722  address [] public direcciones_contratos_salud */\n    tag_4:\n      tag_11\n      0x04\n      dup1\n      calldatasize\n      sub\n      dup2\n      add\n      swap1\n      tag_12\n      swap2\n      swap1\n      tag_13\n      jump\t// in\n    tag_12:\n      tag_14\n      jump\t// in\n    tag_11:\n      mload(0x40)\n      tag_15\n      swap2\n      swap1\n      tag_10\n      jump\t// in\n    tag_15:\n      mload(0x40)\n      dup1\n      swap2\n      sub\n      swap1\n      return\n        /* \"OMS/oms.sol\":1515:2135  function FactoryCentroSalud() public{\r... */\n    tag_5:\n      tag_16\n      tag_17\n      jump\t// in\n    tag_16:\n      stop\n        /* \"OMS/oms.sol\":1165:1446  function CentrosSalud(address _centroSalud) public UnicamenteOMS(msg.sender){\r... */\n    tag_6:\n      tag_18\n      0x04\n      dup1\n      calldatasize\n      sub\n      dup2\n      add\n      swap1\n      tag_19\n      swap2\n      swap1\n      tag_20\n      jump\t// in\n    tag_19:\n      tag_21\n      jump\t// in\n    tag_18:\n      stop\n        /* \"OMS/oms.sol\":192:210  address public OMS */\n    tag_8:\n      0x00\n      dup1\n      sload\n      swap1\n      0x0100\n      exp\n      swap1\n      div\n      0xffffffffffffffffffffffffffffffffffffffff\n      and\n      dup2\n      jump\t// out\n        /* \"OMS/oms.sol\":677:722  address [] public direcciones_contratos_salud */\n    tag_14:\n      0x02\n      dup2\n      dup2\n      sload\n      dup2\n      lt\n      tag_22\n      jumpi\n      0x00\n      dup1\n      revert\n    tag_22:\n      swap1\n      0x00\n      mstore\n      keccak256(0x00, 0x20)\n      add\n      0x00\n      swap2\n      pop\n      sload\n      swap1\n      0x0100\n      exp\n      swap1\n      div\n      0xffffffffffffffffffffffffffffffffffffffff\n      and\n      dup2\n      jump\t// out\n        /* \"OMS/oms.sol\":1515:2135  function FactoryCentroSalud() public{\r... */\n    tag_17:\n        /* \"OMS/oms.sol\":1715:1719  true */\n      0x01\n        /* \"OMS/oms.sol\":1677:1719  Validacion_CentroSalud[msg.sender] == true */\n      iszero\n      iszero\n        /* \"OMS/oms.sol\":1677:1699  Validacion_CentroSalud */\n      0x01\n        /* \"OMS/oms.sol\":1677:1711  Validacion_CentroSalud[msg.sender] */\n      0x00\n        /* \"OMS/oms.sol\":1700:1710  msg.sender */\n      caller\n        /* \"OMS/oms.sol\":1677:1711  Validacion_CentroSalud[msg.sender] */\n      0xffffffffffffffffffffffffffffffffffffffff\n      and\n      0xffffffffffffffffffffffffffffffffffffffff\n      and\n      dup2\n      mstore\n      0x20\n      add\n      swap1\n      dup2\n      mstore\n      0x20\n      add\n      0x00\n      keccak256\n      0x00\n      swap1\n      sload\n      swap1\n      0x0100\n      exp\n      swap1\n      div\n      0xff\n      and\n        /* \"OMS/oms.sol\":1677:1719  Validacion_CentroSalud[msg.sender] == true */\n      iszero\n      iszero\n      eq\n        /* \"OMS/oms.sol\":1669:1770  require(Validacion_CentroSalud[msg.sender] == true, \"No tienes permisos para realizar esta funcion.\") */\n      tag_25\n      jumpi\n      mload(0x40)\n      0x08c379a000000000000000000000000000000000000000000000000000000000\n      dup2\n      mstore\n      0x04\n      add\n      tag_26\n      swap1\n      tag_27\n      jump\t// in\n    tag_26:\n      mload(0x40)\n      dup1\n      swap2\n      sub\n      swap1\n      revert\n    tag_25:\n        /* \"OMS/oms.sol\":1842:1870  address contrato_CentroSalud */\n      0x00\n        /* \"OMS/oms.sol\":1898:1908  msg.sender */\n      caller\n        /* \"OMS/oms.sol\":1882:1909  new CentroSalud(msg.sender) */\n      mload(0x40)\n      tag_28\n      swap1\n      tag_29\n      jump\t// in\n    tag_28:\n      tag_30\n      swap2\n      swap1\n      tag_10\n      jump\t// in\n    tag_30:\n      mload(0x40)\n      dup1\n      swap2\n      sub\n      swap1\n      0x00\n      create\n      dup1\n      iszero\n      dup1\n      iszero\n      tag_31\n      jumpi\n      returndatasize\n      0x00\n      dup1\n      returndatacopy\n      revert(0x00, returndatasize)\n    tag_31:\n      pop\n        /* \"OMS/oms.sol\":1842:1910  address contrato_CentroSalud = address (new CentroSalud(msg.sender)) */\n      swap1\n      pop\n        /* \"OMS/oms.sol\":1980:2007  direcciones_contratos_salud */\n      0x02\n        /* \"OMS/oms.sol\":2013:2033  contrato_CentroSalud */\n      dup2\n        /* \"OMS/oms.sol\":1980:2034  direcciones_contratos_salud.push(contrato_CentroSalud) */\n      swap1\n      dup1\n      0x01\n      dup2\n      sload\n      add\n      dup1\n      dup3\n      sstore\n      dup1\n      swap2\n      pop\n      pop\n      0x01\n      swap1\n      sub\n      swap1\n      0x00\n      mstore\n      keccak256(0x00, 0x20)\n      add\n      0x00\n      swap1\n      swap2\n      swap1\n      swap2\n      swap1\n      swap2\n      0x0100\n      exp\n      dup2\n      sload\n      dup2\n      0xffffffffffffffffffffffffffffffffffffffff\n      mul\n      not\n      and\n      swap1\n      dup4\n      0xffffffffffffffffffffffffffffffffffffffff\n      and\n      mul\n      or\n      swap1\n      sstore\n      pop\n        /* \"OMS/oms.sol\":2080:2127  NuevoContrato(contrato_CentroSalud, msg.sender) */\n      0xe08a9f416b8c3655f59535f4609d69e3b126ca6c0591451ee1d49a6430ab39c6\n        /* \"OMS/oms.sol\":2094:2114  contrato_CentroSalud */\n      dup2\n        /* \"OMS/oms.sol\":2116:2126  msg.sender */\n      caller\n        /* \"OMS/oms.sol\":2080:2127  NuevoContrato(contrato_CentroSalud, msg.sender) */\n      mload(0x40)\n      tag_33\n      swap3\n      swap2\n      swap1\n      tag_34\n      jump\t// in\n    tag_33:\n      mload(0x40)\n      dup1\n      swap2\n      sub\n      swap1\n      log1\n        /* \"OMS/oms.sol\":1551:2135  {\r... */\n      pop\n        /* \"OMS/oms.sol\":1515:2135  function FactoryCentroSalud() public{\r... */\n      jump\t// out\n        /* \"OMS/oms.sol\":1165:1446  function CentrosSalud(address _centroSalud) public UnicamenteOMS(msg.sender){\r... */\n    tag_21:\n        /* \"OMS/oms.sol\":1230:1240  msg.sender */\n      caller\n        /* \"OMS/oms.sol\":986:989  OMS */\n      0x00\n      dup1\n      sload\n      swap1\n      0x0100\n      exp\n      swap1\n      div\n      0xffffffffffffffffffffffffffffffffffffffff\n      and\n        /* \"OMS/oms.sol\":972:989  _direccion == OMS */\n      0xffffffffffffffffffffffffffffffffffffffff\n      and\n        /* \"OMS/oms.sol\":972:982  _direccion */\n      dup2\n        /* \"OMS/oms.sol\":972:989  _direccion == OMS */\n      0xffffffffffffffffffffffffffffffffffffffff\n      and\n      eq\n        /* \"OMS/oms.sol\":964:1040  require(_direccion == OMS, \"No tienes permisos para realizar esta funcion.\") */\n      tag_36\n      jumpi\n      mload(0x40)\n      0x08c379a000000000000000000000000000000000000000000000000000000000\n      dup2\n      mstore\n      0x04\n      add\n      tag_37\n      swap1\n      tag_27\n      jump\t// in\n    tag_37:\n      mload(0x40)\n      dup1\n      swap2\n      sub\n      swap1\n      revert\n    tag_36:\n        /* \"OMS/oms.sol\":1355:1359  true */\n      0x01\n        /* \"OMS/oms.sol\":1316:1338  Validacion_CentroSalud */\n      dup1\n        /* \"OMS/oms.sol\":1316:1352  Validacion_CentroSalud[_centroSalud] */\n      0x00\n        /* \"OMS/oms.sol\":1339:1351  _centroSalud */\n      dup5\n        /* \"OMS/oms.sol\":1316:1352  Validacion_CentroSalud[_centroSalud] */\n      0xffffffffffffffffffffffffffffffffffffffff\n      and\n      0xffffffffffffffffffffffffffffffffffffffff\n      and\n      dup2\n      mstore\n      0x20\n      add\n      swap1\n      dup2\n      mstore\n      0x20\n      add\n      0x00\n      keccak256\n      0x00\n        /* \"OMS/oms.sol\":1316:1359  Validacion_CentroSalud[_centroSalud] = true */\n      0x0100\n      exp\n      dup2\n      sload\n      dup2\n      0xff\n      mul\n      not\n      and\n      swap1\n      dup4\n      iszero\n      iszero\n      mul\n      or\n      swap1\n      sstore\n      pop\n        /* \"OMS/oms.sol\":1405:1438  NuevoCentroValidado(_centroSalud) */\n      0x49fbbe88355a886408e8788b96b735508be2a0bec15825ef8ffc24aa5c6cb829\n        /* \"OMS/oms.sol\":1425:1437  _centroSalud */\n      dup3\n        /* \"OMS/oms.sol\":1405:1438  NuevoCentroValidado(_centroSalud) */\n      mload(0x40)\n      tag_39\n      swap2\n      swap1\n      tag_10\n      jump\t// in\n    tag_39:\n      mload(0x40)\n      dup1\n      swap2\n      sub\n      swap1\n      log1\n        /* \"OMS/oms.sol\":1165:1446  function CentrosSalud(address _centroSalud) public UnicamenteOMS(msg.sender){\r... */\n      pop\n      pop\n      jump\t// out\n    tag_29:\n      dataSize(sub_0)\n      dup1\n      dataOffset(sub_0)\n      dup4\n      codecopy\n      add\n      swap1\n      jump\t// out\n        /* \"#utility.yul\":7:146   */\n    tag_41:\n        /* \"#utility.yul\":53:58   */\n      0x00\n        /* \"#utility.yul\":91:97   */\n      dup2\n        /* \"#utility.yul\":78:98   */\n      calldataload\n        /* \"#utility.yul\":69:98   */\n      swap1\n      pop\n        /* \"#utility.yul\":107:140   */\n      tag_43\n        /* \"#utility.yul\":134:139   */\n      dup2\n        /* \"#utility.yul\":107:140   */\n      tag_44\n      jump\t// in\n    tag_43:\n        /* \"#utility.yul\":7:146   */\n      swap3\n      swap2\n      pop\n      pop\n      jump\t// out\n        /* \"#utility.yul\":152:291   */\n    tag_45:\n        /* \"#utility.yul\":198:203   */\n      0x00\n        /* \"#utility.yul\":236:242   */\n      dup2\n        /* \"#utility.yul\":223:243   */\n      calldataload\n        /* \"#utility.yul\":214:243   */\n      swap1\n      pop\n        /* \"#utility.yul\":252:285   */\n      tag_47\n        /* \"#utility.yul\":279:284   */\n      dup2\n        /* \"#utility.yul\":252:285   */\n      tag_48\n      jump\t// in\n    tag_47:\n        /* \"#utility.yul\":152:291   */\n      swap3\n      swap2\n      pop\n      pop\n      jump\t// out\n        /* \"#utility.yul\":297:626   */\n    tag_20:\n        /* \"#utility.yul\":356:362   */\n      0x00\n        /* \"#utility.yul\":405:407   */\n      0x20\n        /* \"#utility.yul\":393:402   */\n      dup3\n        /* \"#utility.yul\":384:391   */\n      dup5\n        /* \"#utility.yul\":380:403   */\n      sub\n        /* \"#utility.yul\":376:408   */\n      slt\n        /* \"#utility.yul\":373:492   */\n      iszero\n      tag_50\n      jumpi\n        /* \"#utility.yul\":411:490   */\n      tag_51\n      tag_52\n      jump\t// in\n    tag_51:\n        /* \"#utility.yul\":373:492   */\n    tag_50:\n        /* \"#utility.yul\":531:532   */\n      0x00\n        /* \"#utility.yul\":556:609   */\n      tag_53\n        /* \"#utility.yul\":601:608   */\n      dup5\n        /* \"#utility.yul\":592:598   */\n      dup3\n        /* \"#utility.yul\":581:590   */\n      dup6\n        /* \"#utility.yul\":577:599   */\n      add\n        /* \"#utility.yul\":556:609   */\n      tag_41\n      jump\t// in\n    tag_53:\n        /* \"#utility.yul\":546:609   */\n      swap2\n      pop\n        /* \"#utility.yul\":502:619   */\n      pop\n        /* \"#utility.yul\":297:626   */\n      swap3\n      swap2\n      pop\n      pop\n      jump\t// out\n        /* \"#utility.yul\":632:961   */\n    tag_13:\n        /* \"#utility.yul\":691:697   */\n      0x00\n        /* \"#utility.yul\":740:742   */\n      0x20\n        /* \"#utility.yul\":728:737   */\n      dup3\n        /* \"#utility.yul\":719:726   */\n      dup5\n        /* \"#utility.yul\":715:738   */\n      sub\n        /* \"#utility.yul\":711:743   */\n      slt\n        /* \"#utility.yul\":708:827   */\n      iszero\n      tag_55\n      jumpi\n        /* \"#utility.yul\":746:825   */\n      tag_56\n      tag_52\n      jump\t// in\n    tag_56:\n        /* \"#utility.yul\":708:827   */\n    tag_55:\n        /* \"#utility.yul\":866:867   */\n      0x00\n        /* \"#utility.yul\":891:944   */\n      tag_57\n        /* \"#utility.yul\":936:943   */\n      dup5\n        /* \"#utility.yul\":927:933   */\n      dup3\n        /* \"#utility.yul\":916:925   */\n      dup6\n        /* \"#utility.yul\":912:934   */\n      add\n        /* \"#utility.yul\":891:944   */\n      tag_45\n      jump\t// in\n    tag_57:\n        /* \"#utility.yul\":881:944   */\n      swap2\n      pop\n        /* \"#utility.yul\":837:954   */\n      pop\n        /* \"#utility.yul\":632:961   */\n      swap3\n      swap2\n      pop\n      pop\n      jump\t// out\n        /* \"#utility.yul\":967:1085   */\n    tag_58:\n        /* \"#utility.yul\":1054:1078   */\n      tag_60\n        /* \"#utility.yul\":1072:1077   */\n      dup2\n        /* \"#utility.yul\":1054:1078   */\n      tag_61\n      jump\t// in\n    tag_60:\n        /* \"#utility.yul\":1049:1052   */\n      dup3\n        /* \"#utility.yul\":1042:1079   */\n      mstore\n        /* \"#utility.yul\":967:1085   */\n      pop\n      pop\n      jump\t// out\n        /* \"#utility.yul\":1091:1457   */\n    tag_62:\n        /* \"#utility.yul\":1233:1236   */\n      0x00\n        /* \"#utility.yul\":1254:1321   */\n      tag_64\n        /* \"#utility.yul\":1318:1320   */\n      0x2e\n        /* \"#utility.yul\":1313:1316   */\n      dup4\n        /* \"#utility.yul\":1254:1321   */\n      tag_65\n      jump\t// in\n    tag_64:\n        /* \"#utility.yul\":1247:1321   */\n      swap2\n      pop\n        /* \"#utility.yul\":1330:1423   */\n      tag_66\n        /* \"#utility.yul\":1419:1422   */\n      dup3\n        /* \"#utility.yul\":1330:1423   */\n      tag_67\n      jump\t// in\n    tag_66:\n        /* \"#utility.yul\":1448:1450   */\n      0x40\n        /* \"#utility.yul\":1443:1446   */\n      dup3\n        /* \"#utility.yul\":1439:1451   */\n      add\n        /* \"#utility.yul\":1432:1451   */\n      swap1\n      pop\n        /* \"#utility.yul\":1091:1457   */\n      swap2\n      swap1\n      pop\n      jump\t// out\n        /* \"#utility.yul\":1463:1685   */\n    tag_10:\n        /* \"#utility.yul\":1556:1560   */\n      0x00\n        /* \"#utility.yul\":1594:1596   */\n      0x20\n        /* \"#utility.yul\":1583:1592   */\n      dup3\n        /* \"#utility.yul\":1579:1597   */\n      add\n        /* \"#utility.yul\":1571:1597   */\n      swap1\n      pop\n        /* \"#utility.yul\":1607:1678   */\n      tag_69\n        /* \"#utility.yul\":1675:1676   */\n      0x00\n        /* \"#utility.yul\":1664:1673   */\n      dup4\n        /* \"#utility.yul\":1660:1677   */\n      add\n        /* \"#utility.yul\":1651:1657   */\n      dup5\n        /* \"#utility.yul\":1607:1678   */\n      tag_58\n      jump\t// in\n    tag_69:\n        /* \"#utility.yul\":1463:1685   */\n      swap3\n      swap2\n      pop\n      pop\n      jump\t// out\n        /* \"#utility.yul\":1691:2023   */\n    tag_34:\n        /* \"#utility.yul\":1812:1816   */\n      0x00\n        /* \"#utility.yul\":1850:1852   */\n      0x40\n        /* \"#utility.yul\":1839:1848   */\n      dup3\n        /* \"#utility.yul\":1835:1853   */\n      add\n        /* \"#utility.yul\":1827:1853   */\n      swap1\n      pop\n        /* \"#utility.yul\":1863:1934   */\n      tag_71\n        /* \"#utility.yul\":1931:1932   */\n      0x00\n        /* \"#utility.yul\":1920:1929   */\n      dup4\n        /* \"#utility.yul\":1916:1933   */\n      add\n        /* \"#utility.yul\":1907:1913   */\n      dup6\n        /* \"#utility.yul\":1863:1934   */\n      tag_58\n      jump\t// in\n    tag_71:\n        /* \"#utility.yul\":1944:2016   */\n      tag_72\n        /* \"#utility.yul\":2012:2014   */\n      0x20\n        /* \"#utility.yul\":2001:2010   */\n      dup4\n        /* \"#utility.yul\":1997:2015   */\n      add\n        /* \"#utility.yul\":1988:1994   */\n      dup5\n        /* \"#utility.yul\":1944:2016   */\n      tag_58\n      jump\t// in\n    tag_72:\n        /* \"#utility.yul\":1691:2023   */\n      swap4\n      swap3\n      pop\n      pop\n      pop\n      jump\t// out\n        /* \"#utility.yul\":2029:2448   */\n    tag_27:\n        /* \"#utility.yul\":2195:2199   */\n      0x00\n        /* \"#utility.yul\":2233:2235   */\n      0x20\n        /* \"#utility.yul\":2222:2231   */\n      dup3\n        /* \"#utility.yul\":2218:2236   */\n      add\n        /* \"#utility.yul\":2210:2236   */\n      swap1\n      pop\n        /* \"#utility.yul\":2282:2291   */\n      dup2\n        /* \"#utility.yul\":2276:2280   */\n      dup2\n        /* \"#utility.yul\":2272:2292   */\n      sub\n        /* \"#utility.yul\":2268:2269   */\n      0x00\n        /* \"#utility.yul\":2257:2266   */\n      dup4\n        /* \"#utility.yul\":2253:2270   */\n      add\n        /* \"#utility.yul\":2246:2293   */\n      mstore\n        /* \"#utility.yul\":2310:2441   */\n      tag_74\n        /* \"#utility.yul\":2436:2440   */\n      dup2\n        /* \"#utility.yul\":2310:2441   */\n      tag_62\n      jump\t// in\n    tag_74:\n        /* \"#utility.yul\":2302:2441   */\n      swap1\n      pop\n        /* \"#utility.yul\":2029:2448   */\n      swap2\n      swap1\n      pop\n      jump\t// out\n        /* \"#utility.yul\":2535:2704   */\n    tag_65:\n        /* \"#utility.yul\":2619:2630   */\n      0x00\n        /* \"#utility.yul\":2653:2659   */\n      dup3\n        /* \"#utility.yul\":2648:2651   */\n      dup3\n        /* \"#utility.yul\":2641:2660   */\n      mstore\n        /* \"#utility.yul\":2693:2697   */\n      0x20\n        /* \"#utility.yul\":2688:2691   */\n      dup3\n        /* \"#utility.yul\":2684:2698   */\n      add\n        /* \"#utility.yul\":2669:2698   */\n      swap1\n      pop\n        /* \"#utility.yul\":2535:2704   */\n      swap3\n      swap2\n      pop\n      pop\n      jump\t// out\n        /* \"#utility.yul\":2710:2806   */\n    tag_61:\n        /* \"#utility.yul\":2747:2754   */\n      0x00\n        /* \"#utility.yul\":2776:2800   */\n      tag_79\n        /* \"#utility.yul\":2794:2799   */\n      dup3\n        /* \"#utility.yul\":2776:2800   */\n      tag_80\n      jump\t// in\n    tag_79:\n        /* \"#utility.yul\":2765:2800   */\n      swap1\n      pop\n        /* \"#utility.yul\":2710:2806   */\n      swap2\n      swap1\n      pop\n      jump\t// out\n        /* \"#utility.yul\":2812:2938   */\n    tag_80:\n        /* \"#utility.yul\":2849:2856   */\n      0x00\n        /* \"#utility.yul\":2889:2931   */\n      0xffffffffffffffffffffffffffffffffffffffff\n        /* \"#utility.yul\":2882:2887   */\n      dup3\n        /* \"#utility.yul\":2878:2932   */\n      and\n        /* \"#utility.yul\":2867:2932   */\n      swap1\n      pop\n        /* \"#utility.yul\":2812:2938   */\n      swap2\n      swap1\n      pop\n      jump\t// out\n        /* \"#utility.yul\":2944:3021   */\n    tag_82:\n        /* \"#utility.yul\":2981:2988   */\n      0x00\n        /* \"#utility.yul\":3010:3015   */\n      dup2\n        /* \"#utility.yul\":2999:3015   */\n      swap1\n      pop\n        /* \"#utility.yul\":2944:3021   */\n      swap2\n      swap1\n      pop\n      jump\t// out\n        /* \"#utility.yul\":3150:3267   */\n    tag_52:\n        /* \"#utility.yul\":3259:3260   */\n      0x00\n        /* \"#utility.yul\":3256:3257   */\n      dup1\n        /* \"#utility.yul\":3249:3261   */\n      revert\n        /* \"#utility.yul\":3273:3506   */\n    tag_67:\n        /* \"#utility.yul\":3413:3447   */\n      0x4e6f207469656e6573207065726d69736f732070617261207265616c697a6172\n        /* \"#utility.yul\":3409:3410   */\n      0x00\n        /* \"#utility.yul\":3401:3407   */\n      dup3\n        /* \"#utility.yul\":3397:3411   */\n      add\n        /* \"#utility.yul\":3390:3448   */\n      mstore\n        /* \"#utility.yul\":3482:3498   */\n      0x20657374612066756e63696f6e2e000000000000000000000000000000000000\n        /* \"#utility.yul\":3477:3479   */\n      0x20\n        /* \"#utility.yul\":3469:3475   */\n      dup3\n        /* \"#utility.yul\":3465:3480   */\n      add\n        /* \"#utility.yul\":3458:3499   */\n      mstore\n        /* \"#utility.yul\":3273:3506   */\n      pop\n      jump\t// out\n        /* \"#utility.yul\":3512:3634   */\n    tag_44:\n        /* \"#utility.yul\":3585:3609   */\n      tag_89\n        /* \"#utility.yul\":3603:3608   */\n      dup2\n        /* \"#utility.yul\":3585:3609   */\n      tag_61\n      jump\t// in\n    tag_89:\n        /* \"#utility.yul\":3578:3583   */\n      dup2\n        /* \"#utility.yul\":3575:3610   */\n      eq\n        /* \"#utility.yul\":3565:3628   */\n      tag_90\n      jumpi\n        /* \"#utility.yul\":3624:3625   */\n      0x00\n        /* \"#utility.yul\":3621:3622   */\n      dup1\n        /* \"#utility.yul\":3614:3626   */\n      revert\n        /* \"#utility.yul\":3565:3628   */\n    tag_90:\n        /* \"#utility.yul\":3512:3634   */\n      pop\n      jump\t// out\n        /* \"#utility.yul\":3640:3762   */\n    tag_48:\n        /* \"#utility.yul\":3713:3737   */\n      tag_92\n        /* \"#utility.yul\":3731:3736   */\n      dup2\n        /* \"#utility.yul\":3713:3737   */\n      tag_82\n      jump\t// in\n    tag_92:\n        /* \"#utility.yul\":3706:3711   */\n      dup2\n        /* \"#utility.yul\":3703:3738   */\n      eq\n        /* \"#utility.yul\":3693:3756   */\n      tag_93\n      jumpi\n        /* \"#utility.yul\":3752:3753   */\n      0x00\n        /* \"#utility.yul\":3749:3750   */\n      dup1\n        /* \"#utility.yul\":3742:3754   */\n      revert\n        /* \"#utility.yul\":3693:3756   */\n    tag_93:\n        /* \"#utility.yul\":3640:3762   */\n      pop\n      jump\t// out\n    stop\n\n    sub_0: assembly {\n            /* \"OMS/oms.sol\":2260:2508  contract CentroSalud{\r... */\n          mstore(0x40, 0x80)\n            /* \"OMS/oms.sol\":2370:2505  constructor(address _direccion) public {\r... */\n          callvalue\n          dup1\n          iszero\n          tag_1\n          jumpi\n          0x00\n          dup1\n          revert\n        tag_1:\n          pop\n          mload(0x40)\n          sub(codesize, bytecodeSize)\n          dup1\n          bytecodeSize\n          dup4\n          codecopy\n          dup2\n          dup2\n          add\n          0x40\n          mstore\n          dup2\n          add\n          swap1\n          tag_2\n          swap2\n          swap1\n          tag_3\n          jump\t// in\n        tag_2:\n            /* \"OMS/oms.sol\":2443:2453  _direccion */\n          dup1\n            /* \"OMS/oms.sol\":2420:2440  DireccionCentroSalud */\n          0x00\n          dup1\n            /* \"OMS/oms.sol\":2420:2453  DireccionCentroSalud = _direccion */\n          0x0100\n          exp\n          dup2\n          sload\n          dup2\n          0xffffffffffffffffffffffffffffffffffffffff\n          mul\n          not\n          and\n          swap1\n          dup4\n          0xffffffffffffffffffffffffffffffffffffffff\n          and\n          mul\n          or\n          swap1\n          sstore\n          pop\n            /* \"OMS/oms.sol\":2492:2496  this */\n          address\n            /* \"OMS/oms.sol\":2464:2481  DireccionContrato */\n          0x01\n          0x00\n            /* \"OMS/oms.sol\":2464:2497  DireccionContrato = address(this) */\n          0x0100\n          exp\n          dup2\n          sload\n          dup2\n          0xffffffffffffffffffffffffffffffffffffffff\n          mul\n          not\n          and\n          swap1\n          dup4\n          0xffffffffffffffffffffffffffffffffffffffff\n          and\n          mul\n          or\n          swap1\n          sstore\n          pop\n            /* \"OMS/oms.sol\":2370:2505  constructor(address _direccion) public {\r... */\n          pop\n            /* \"OMS/oms.sol\":2260:2508  contract CentroSalud{\r... */\n          jump(tag_6)\n            /* \"#utility.yul\":7:150   */\n        tag_8:\n            /* \"#utility.yul\":64:69   */\n          0x00\n            /* \"#utility.yul\":95:101   */\n          dup2\n            /* \"#utility.yul\":89:102   */\n          mload\n            /* \"#utility.yul\":80:102   */\n          swap1\n          pop\n            /* \"#utility.yul\":111:144   */\n          tag_10\n            /* \"#utility.yul\":138:143   */\n          dup2\n            /* \"#utility.yul\":111:144   */\n          tag_11\n          jump\t// in\n        tag_10:\n            /* \"#utility.yul\":7:150   */\n          swap3\n          swap2\n          pop\n          pop\n          jump\t// out\n            /* \"#utility.yul\":156:507   */\n        tag_3:\n            /* \"#utility.yul\":226:232   */\n          0x00\n            /* \"#utility.yul\":275:277   */\n          0x20\n            /* \"#utility.yul\":263:272   */\n          dup3\n            /* \"#utility.yul\":254:261   */\n          dup5\n            /* \"#utility.yul\":250:273   */\n          sub\n            /* \"#utility.yul\":246:278   */\n          slt\n            /* \"#utility.yul\":243:362   */\n          iszero\n          tag_13\n          jumpi\n            /* \"#utility.yul\":281:360   */\n          tag_14\n          tag_15\n          jump\t// in\n        tag_14:\n            /* \"#utility.yul\":243:362   */\n        tag_13:\n            /* \"#utility.yul\":401:402   */\n          0x00\n            /* \"#utility.yul\":426:490   */\n          tag_16\n            /* \"#utility.yul\":482:489   */\n          dup5\n            /* \"#utility.yul\":473:479   */\n          dup3\n            /* \"#utility.yul\":462:471   */\n          dup6\n            /* \"#utility.yul\":458:480   */\n          add\n            /* \"#utility.yul\":426:490   */\n          tag_8\n          jump\t// in\n        tag_16:\n            /* \"#utility.yul\":416:490   */\n          swap2\n          pop\n            /* \"#utility.yul\":372:500   */\n          pop\n            /* \"#utility.yul\":156:507   */\n          swap3\n          swap2\n          pop\n          pop\n          jump\t// out\n            /* \"#utility.yul\":594:690   */\n        tag_19:\n            /* \"#utility.yul\":631:638   */\n          0x00\n            /* \"#utility.yul\":660:684   */\n          tag_21\n            /* \"#utility.yul\":678:683   */\n          dup3\n            /* \"#utility.yul\":660:684   */\n          tag_22\n          jump\t// in\n        tag_21:\n            /* \"#utility.yul\":649:684   */\n          swap1\n          pop\n            /* \"#utility.yul\":594:690   */\n          swap2\n          swap1\n          pop\n          jump\t// out\n            /* \"#utility.yul\":696:822   */\n        tag_22:\n            /* \"#utility.yul\":733:740   */\n          0x00\n            /* \"#utility.yul\":773:815   */\n          0xffffffffffffffffffffffffffffffffffffffff\n            /* \"#utility.yul\":766:771   */\n          dup3\n            /* \"#utility.yul\":762:816   */\n          and\n            /* \"#utility.yul\":751:816   */\n          swap1\n          pop\n            /* \"#utility.yul\":696:822   */\n          swap2\n          swap1\n          pop\n          jump\t// out\n            /* \"#utility.yul\":951:1068   */\n        tag_15:\n            /* \"#utility.yul\":1060:1061   */\n          0x00\n            /* \"#utility.yul\":1057:1058   */\n          dup1\n            /* \"#utility.yul\":1050:1062   */\n          revert\n            /* \"#utility.yul\":1074:1196   */\n        tag_11:\n            /* \"#utility.yul\":1147:1171   */\n          tag_28\n            /* \"#utility.yul\":1165:1170   */\n          dup2\n            /* \"#utility.yul\":1147:1171   */\n          tag_19\n          jump\t// in\n        tag_28:\n            /* \"#utility.yul\":1140:1145   */\n          dup2\n            /* \"#utility.yul\":1137:1172   */\n          eq\n            /* \"#utility.yul\":1127:1190   */\n          tag_29\n          jumpi\n            /* \"#utility.yul\":1186:1187   */\n          0x00\n            /* \"#utility.yul\":1183:1184   */\n          dup1\n            /* \"#utility.yul\":1176:1188   */\n          revert\n            /* \"#utility.yul\":1127:1190   */\n        tag_29:\n            /* \"#utility.yul\":1074:1196   */\n          pop\n          jump\t// out\n            /* \"OMS/oms.sol\":2260:2508  contract CentroSalud{\r... */\n        tag_6:\n          dataSize(sub_0)\n          dup1\n          dataOffset(sub_0)\n          0x00\n          codecopy\n          0x00\n          return\n        stop\n\n        sub_0: assembly {\n                /* \"OMS/oms.sol\":2260:2508  contract CentroSalud{\r... */\n              mstore(0x40, 0x80)\n              callvalue\n              dup1\n              iszero\n              tag_1\n              jumpi\n              0x00\n              dup1\n              revert\n            tag_1:\n              pop\n              jumpi(tag_2, lt(calldatasize, 0x04))\n              shr(0xe0, calldataload(0x00))\n              dup1\n              0x0ea87df0\n              eq\n              tag_3\n              jumpi\n              dup1\n              0x630ea6e2\n              eq\n              tag_4\n              jumpi\n            tag_2:\n              0x00\n              dup1\n              revert\n                /* \"OMS/oms.sol\":2289:2324  address public DireccionCentroSalud */\n            tag_3:\n              tag_5\n              tag_6\n              jump\t// in\n            tag_5:\n              mload(0x40)\n              tag_7\n              swap2\n              swap1\n              tag_8\n              jump\t// in\n            tag_7:\n              mload(0x40)\n              dup1\n              swap2\n              sub\n              swap1\n              return\n                /* \"OMS/oms.sol\":2331:2363  address public DireccionContrato */\n            tag_4:\n              tag_9\n              tag_10\n              jump\t// in\n            tag_9:\n              mload(0x40)\n              tag_11\n              swap2\n              swap1\n              tag_8\n              jump\t// in\n            tag_11:\n              mload(0x40)\n              dup1\n              swap2\n              sub\n              swap1\n              return\n                /* \"OMS/oms.sol\":2289:2324  address public DireccionCentroSalud */\n            tag_6:\n              0x00\n              dup1\n              sload\n              swap1\n              0x0100\n              exp\n              swap1\n              div\n              0xffffffffffffffffffffffffffffffffffffffff\n              and\n              dup2\n              jump\t// out\n                /* \"OMS/oms.sol\":2331:2363  address public DireccionContrato */\n            tag_10:\n              0x01\n              0x00\n              swap1\n              sload\n              swap1\n              0x0100\n              exp\n              swap1\n              div\n              0xffffffffffffffffffffffffffffffffffffffff\n              and\n              dup2\n              jump\t// out\n                /* \"#utility.yul\":7:125   */\n            tag_13:\n                /* \"#utility.yul\":94:118   */\n              tag_15\n                /* \"#utility.yul\":112:117   */\n              dup2\n                /* \"#utility.yul\":94:118   */\n              tag_16\n              jump\t// in\n            tag_15:\n                /* \"#utility.yul\":89:92   */\n              dup3\n                /* \"#utility.yul\":82:119   */\n              mstore\n                /* \"#utility.yul\":7:125   */\n              pop\n              pop\n              jump\t// out\n                /* \"#utility.yul\":131:353   */\n            tag_8:\n                /* \"#utility.yul\":224:228   */\n              0x00\n                /* \"#utility.yul\":262:264   */\n              0x20\n                /* \"#utility.yul\":251:260   */\n              dup3\n                /* \"#utility.yul\":247:265   */\n              add\n                /* \"#utility.yul\":239:265   */\n              swap1\n              pop\n                /* \"#utility.yul\":275:346   */\n              tag_18\n                /* \"#utility.yul\":343:344   */\n              0x00\n                /* \"#utility.yul\":332:341   */\n              dup4\n                /* \"#utility.yul\":328:345   */\n              add\n                /* \"#utility.yul\":319:325   */\n              dup5\n                /* \"#utility.yul\":275:346   */\n              tag_13\n              jump\t// in\n            tag_18:\n                /* \"#utility.yul\":131:353   */\n              swap3\n              swap2\n              pop\n              pop\n              jump\t// out\n                /* \"#utility.yul\":359:455   */\n            tag_16:\n                /* \"#utility.yul\":396:403   */\n              0x00\n                /* \"#utility.yul\":425:449   */\n              tag_20\n                /* \"#utility.yul\":443:448   */\n              dup3\n                /* \"#utility.yul\":425:449   */\n              tag_21\n              jump\t// in\n            tag_20:\n                /* \"#utility.yul\":414:449   */\n              swap1\n              pop\n                /* \"#utility.yul\":359:455   */\n              swap2\n              swap1\n              pop\n              jump\t// out\n                /* \"#utility.yul\":461:587   */\n            tag_21:\n                /* \"#utility.yul\":498:505   */\n              0x00\n                /* \"#utility.yul\":538:580   */\n              0xffffffffffffffffffffffffffffffffffffffff\n                /* \"#utility.yul\":531:536   */\n              dup3\n                /* \"#utility.yul\":527:581   */\n              and\n                /* \"#utility.yul\":516:581   */\n              swap1\n              pop\n                /* \"#utility.yul\":461:587   */\n              swap2\n              swap1\n              pop\n              jump\t// out\n\n            auxdata: 0xa26469706673582212201e506786107b9a26e05db143bdac459d6653a5c0cd89e545e984e66103ada47664736f6c63430008070033\n        }\n    }\n\n    auxdata: 0xa2646970667358221220ab839702eef0639a8e161065bf744a22aef5a8094ba34970645220f95bdadfb064736f6c63430008070033\n}\n",
				"bytecode": {
					"linkReferences": {},
					"object": "608060405234801561001057600080fd5b50336000806101000a81548173ffffffffffffffffffffffffffffffffffffffff021916908373ffffffffffffffffffffffffffffffffffffffff16021790555061088a806100606000396000f3fe608060405234801561001057600080fd5b506004361061004c5760003560e01c8063057dd608146100515780637610d05d1461006f5780639687a42c1461009f578063bacf5ac7146100a9575b600080fd5b6100596100c5565b6040516100669190610476565b60405180910390f35b61008960048036038101906100849190610417565b6100e9565b6040516100969190610476565b60405180910390f35b6100a7610128565b005b6100c360048036038101906100be91906103ea565b610292565b005b60008054906101000a900473ffffffffffffffffffffffffffffffffffffffff1681565b600281815481106100f957600080fd5b906000526020600020016000915054906101000a900473ffffffffffffffffffffffffffffffffffffffff1681565b60011515600160003373ffffffffffffffffffffffffffffffffffffffff1673ffffffffffffffffffffffffffffffffffffffff16815260200190815260200160002060009054906101000a900460ff161515146101bb576040517f08c379a00000000000000000000000000000000000000000000000000000000081526004016101b2906104ba565b60405180910390fd5b6000336040516101ca906103b3565b6101d49190610476565b604051809103906000f0801580156101f0573d6000803e3d6000fd5b5090506002819080600181540180825580915050600190039060005260206000200160009091909190916101000a81548173ffffffffffffffffffffffffffffffffffffffff021916908373ffffffffffffffffffffffffffffffffffffffff1602179055507fe08a9f416b8c3655f59535f4609d69e3b126ca6c0591451ee1d49a6430ab39c68133604051610287929190610491565b60405180910390a150565b3360008054906101000a900473ffffffffffffffffffffffffffffffffffffffff1673ffffffffffffffffffffffffffffffffffffffff168173ffffffffffffffffffffffffffffffffffffffff1614610321576040517f08c379a0000000000000000000000000000000000000000000000000000000008152600401610318906104ba565b60405180910390fd5b60018060008473ffffffffffffffffffffffffffffffffffffffff1673ffffffffffffffffffffffffffffffffffffffff16815260200190815260200160002060006101000a81548160ff0219169083151502179055507f49fbbe88355a886408e8788b96b735508be2a0bec15825ef8ffc24aa5c6cb829826040516103a79190610476565b60405180910390a15050565b6102ab806105aa83390190565b6000813590506103cf8161057b565b92915050565b6000813590506103e481610592565b92915050565b600060208284031215610400576103ff610527565b5b600061040e848285016103c0565b91505092915050565b60006020828403121561042d5761042c610527565b5b600061043b848285016103d5565b91505092915050565b61044d816104eb565b82525050565b6000610460602e836104da565b915061046b8261052c565b604082019050919050565b600060208201905061048b6000830184610444565b92915050565b60006040820190506104a66000830185610444565b6104b36020830184610444565b9392505050565b600060208201905081810360008301526104d381610453565b9050919050565b600082825260208201905092915050565b60006104f6826104fd565b9050919050565b600073ffffffffffffffffffffffffffffffffffffffff82169050919050565b6000819050919050565b600080fd5b7f4e6f207469656e6573207065726d69736f732070617261207265616c697a617260008201527f20657374612066756e63696f6e2e000000000000000000000000000000000000602082015250565b610584816104eb565b811461058f57600080fd5b50565b61059b8161051d565b81146105a657600080fd5b5056fe608060405234801561001057600080fd5b506040516102ab3803806102ab833981810160405281019061003291906100ce565b806000806101000a81548173ffffffffffffffffffffffffffffffffffffffff021916908373ffffffffffffffffffffffffffffffffffffffff16021790555030600160006101000a81548173ffffffffffffffffffffffffffffffffffffffff021916908373ffffffffffffffffffffffffffffffffffffffff16021790555050610149565b6000815190506100c881610132565b92915050565b6000602082840312156100e4576100e361012d565b5b60006100f2848285016100b9565b91505092915050565b60006101068261010d565b9050919050565b600073ffffffffffffffffffffffffffffffffffffffff82169050919050565b600080fd5b61013b816100fb565b811461014657600080fd5b50565b610153806101586000396000f3fe608060405234801561001057600080fd5b50600436106100365760003560e01c80630ea87df01461003b578063630ea6e214610059575b600080fd5b610043610077565b60405161005091906100d0565b60405180910390f35b61006161009b565b60405161006e91906100d0565b60405180910390f35b60008054906101000a900473ffffffffffffffffffffffffffffffffffffffff1681565b600160009054906101000a900473ffffffffffffffffffffffffffffffffffffffff1681565b6100ca816100eb565b82525050565b60006020820190506100e560008301846100c1565b92915050565b60006100f6826100fd565b9050919050565b600073ffffffffffffffffffffffffffffffffffffffff8216905091905056fea26469706673582212201e506786107b9a26e05db143bdac459d6653a5c0cd89e545e984e66103ada47664736f6c63430008070033a2646970667358221220ab839702eef0639a8e161065bf744a22aef5a8094ba34970645220f95bdadfb064736f6c63430008070033",
					"opcodes": "PUSH1 0x80 PUSH1 0x40 MSTORE CALLVALUE DUP1 ISZERO PUSH2 0x10 JUMPI PUSH1 0x0 DUP1 REVERT JUMPDEST POP CALLER PUSH1 0x0 DUP1 PUSH2 0x100 EXP DUP2 SLOAD DUP2 PUSH20 0xFFFFFFFFFFFFFFFFFFFFFFFFFFFFFFFFFFFFFFFF MUL NOT AND SWAP1 DUP4 PUSH20 0xFFFFFFFFFFFFFFFFFFFFFFFFFFFFFFFFFFFFFFFF AND MUL OR SWAP1 SSTORE POP PUSH2 0x88A DUP1 PUSH2 0x60 PUSH1 0x0 CODECOPY PUSH1 0x0 RETURN INVALID PUSH1 0x80 PUSH1 0x40 MSTORE CALLVALUE DUP1 ISZERO PUSH2 0x10 JUMPI PUSH1 0x0 DUP1 REVERT JUMPDEST POP PUSH1 0x4 CALLDATASIZE LT PUSH2 0x4C JUMPI PUSH1 0x0 CALLDATALOAD PUSH1 0xE0 SHR DUP1 PUSH4 0x57DD608 EQ PUSH2 0x51 JUMPI DUP1 PUSH4 0x7610D05D EQ PUSH2 0x6F JUMPI DUP1 PUSH4 0x9687A42C EQ PUSH2 0x9F JUMPI DUP1 PUSH4 0xBACF5AC7 EQ PUSH2 0xA9 JUMPI JUMPDEST PUSH1 0x0 DUP1 REVERT JUMPDEST PUSH2 0x59 PUSH2 0xC5 JUMP JUMPDEST PUSH1 0x40 MLOAD PUSH2 0x66 SWAP2 SWAP1 PUSH2 0x476 JUMP JUMPDEST PUSH1 0x40 MLOAD DUP1 SWAP2 SUB SWAP1 RETURN JUMPDEST PUSH2 0x89 PUSH1 0x4 DUP1 CALLDATASIZE SUB DUP2 ADD SWAP1 PUSH2 0x84 SWAP2 SWAP1 PUSH2 0x417 JUMP JUMPDEST PUSH2 0xE9 JUMP JUMPDEST PUSH1 0x40 MLOAD PUSH2 0x96 SWAP2 SWAP1 PUSH2 0x476 JUMP JUMPDEST PUSH1 0x40 MLOAD DUP1 SWAP2 SUB SWAP1 RETURN JUMPDEST PUSH2 0xA7 PUSH2 0x128 JUMP JUMPDEST STOP JUMPDEST PUSH2 0xC3 PUSH1 0x4 DUP1 CALLDATASIZE SUB DUP2 ADD SWAP1 PUSH2 0xBE SWAP2 SWAP1 PUSH2 0x3EA JUMP JUMPDEST PUSH2 0x292 JUMP JUMPDEST STOP JUMPDEST PUSH1 0x0 DUP1 SLOAD SWAP1 PUSH2 0x100 EXP SWAP1 DIV PUSH20 0xFFFFFFFFFFFFFFFFFFFFFFFFFFFFFFFFFFFFFFFF AND DUP2 JUMP JUMPDEST PUSH1 0x2 DUP2 DUP2 SLOAD DUP2 LT PUSH2 0xF9 JUMPI PUSH1 0x0 DUP1 REVERT JUMPDEST SWAP1 PUSH1 0x0 MSTORE PUSH1 0x20 PUSH1 0x0 KECCAK256 ADD PUSH1 0x0 SWAP2 POP SLOAD SWAP1 PUSH2 0x100 EXP SWAP1 DIV PUSH20 0xFFFFFFFFFFFFFFFFFFFFFFFFFFFFFFFFFFFFFFFF AND DUP2 JUMP JUMPDEST PUSH1 0x1 ISZERO ISZERO PUSH1 0x1 PUSH1 0x0 CALLER PUSH20 0xFFFFFFFFFFFFFFFFFFFFFFFFFFFFFFFFFFFFFFFF AND PUSH20 0xFFFFFFFFFFFFFFFFFFFFFFFFFFFFFFFFFFFFFFFF AND DUP2 MSTORE PUSH1 0x20 ADD SWAP1 DUP2 MSTORE PUSH1 0x20 ADD PUSH1 0x0 KECCAK256 PUSH1 0x0 SWAP1 SLOAD SWAP1 PUSH2 0x100 EXP SWAP1 DIV PUSH1 0xFF AND ISZERO ISZERO EQ PUSH2 0x1BB JUMPI PUSH1 0x40 MLOAD PUSH32 0x8C379A000000000000000000000000000000000000000000000000000000000 DUP2 MSTORE PUSH1 0x4 ADD PUSH2 0x1B2 SWAP1 PUSH2 0x4BA JUMP JUMPDEST PUSH1 0x40 MLOAD DUP1 SWAP2 SUB SWAP1 REVERT JUMPDEST PUSH1 0x0 CALLER PUSH1 0x40 MLOAD PUSH2 0x1CA SWAP1 PUSH2 0x3B3 JUMP JUMPDEST PUSH2 0x1D4 SWAP2 SWAP1 PUSH2 0x476 JUMP JUMPDEST PUSH1 0x40 MLOAD DUP1 SWAP2 SUB SWAP1 PUSH1 0x0 CREATE DUP1 ISZERO DUP1 ISZERO PUSH2 0x1F0 JUMPI RETURNDATASIZE PUSH1 0x0 DUP1 RETURNDATACOPY RETURNDATASIZE PUSH1 0x0 REVERT JUMPDEST POP SWAP1 POP PUSH1 0x2 DUP2 SWAP1 DUP1 PUSH1 0x1 DUP2 SLOAD ADD DUP1 DUP3 SSTORE DUP1 SWAP2 POP POP PUSH1 0x1 SWAP1 SUB SWAP1 PUSH1 0x0 MSTORE PUSH1 0x20 PUSH1 0x0 KECCAK256 ADD PUSH1 0x0 SWAP1 SWAP2 SWAP1 SWAP2 SWAP1 SWAP2 PUSH2 0x100 EXP DUP2 SLOAD DUP2 PUSH20 0xFFFFFFFFFFFFFFFFFFFFFFFFFFFFFFFFFFFFFFFF MUL NOT AND SWAP1 DUP4 PUSH20 0xFFFFFFFFFFFFFFFFFFFFFFFFFFFFFFFFFFFFFFFF AND MUL OR SWAP1 SSTORE POP PUSH32 0xE08A9F416B8C3655F59535F4609D69E3B126CA6C0591451EE1D49A6430AB39C6 DUP2 CALLER PUSH1 0x40 MLOAD PUSH2 0x287 SWAP3 SWAP2 SWAP1 PUSH2 0x491 JUMP JUMPDEST PUSH1 0x40 MLOAD DUP1 SWAP2 SUB SWAP1 LOG1 POP JUMP JUMPDEST CALLER PUSH1 0x0 DUP1 SLOAD SWAP1 PUSH2 0x100 EXP SWAP1 DIV PUSH20 0xFFFFFFFFFFFFFFFFFFFFFFFFFFFFFFFFFFFFFFFF AND PUSH20 0xFFFFFFFFFFFFFFFFFFFFFFFFFFFFFFFFFFFFFFFF AND DUP2 PUSH20 0xFFFFFFFFFFFFFFFFFFFFFFFFFFFFFFFFFFFFFFFF AND EQ PUSH2 0x321 JUMPI PUSH1 0x40 MLOAD PUSH32 0x8C379A000000000000000000000000000000000000000000000000000000000 DUP2 MSTORE PUSH1 0x4 ADD PUSH2 0x318 SWAP1 PUSH2 0x4BA JUMP JUMPDEST PUSH1 0x40 MLOAD DUP1 SWAP2 SUB SWAP1 REVERT JUMPDEST PUSH1 0x1 DUP1 PUSH1 0x0 DUP5 PUSH20 0xFFFFFFFFFFFFFFFFFFFFFFFFFFFFFFFFFFFFFFFF AND PUSH20 0xFFFFFFFFFFFFFFFFFFFFFFFFFFFFFFFFFFFFFFFF AND DUP2 MSTORE PUSH1 0x20 ADD SWAP1 DUP2 MSTORE PUSH1 0x20 ADD PUSH1 0x0 KECCAK256 PUSH1 0x0 PUSH2 0x100 EXP DUP2 SLOAD DUP2 PUSH1 0xFF MUL NOT AND SWAP1 DUP4 ISZERO ISZERO MUL OR SWAP1 SSTORE POP PUSH32 0x49FBBE88355A886408E8788B96B735508BE2A0BEC15825EF8FFC24AA5C6CB829 DUP3 PUSH1 0x40 MLOAD PUSH2 0x3A7 SWAP2 SWAP1 PUSH2 0x476 JUMP JUMPDEST PUSH1 0x40 MLOAD DUP1 SWAP2 SUB SWAP1 LOG1 POP POP JUMP JUMPDEST PUSH2 0x2AB DUP1 PUSH2 0x5AA DUP4 CODECOPY ADD SWAP1 JUMP JUMPDEST PUSH1 0x0 DUP2 CALLDATALOAD SWAP1 POP PUSH2 0x3CF DUP2 PUSH2 0x57B JUMP JUMPDEST SWAP3 SWAP2 POP POP JUMP JUMPDEST PUSH1 0x0 DUP2 CALLDATALOAD SWAP1 POP PUSH2 0x3E4 DUP2 PUSH2 0x592 JUMP JUMPDEST SWAP3 SWAP2 POP POP JUMP JUMPDEST PUSH1 0x0 PUSH1 0x20 DUP3 DUP5 SUB SLT ISZERO PUSH2 0x400 JUMPI PUSH2 0x3FF PUSH2 0x527 JUMP JUMPDEST JUMPDEST PUSH1 0x0 PUSH2 0x40E DUP5 DUP3 DUP6 ADD PUSH2 0x3C0 JUMP JUMPDEST SWAP2 POP POP SWAP3 SWAP2 POP POP JUMP JUMPDEST PUSH1 0x0 PUSH1 0x20 DUP3 DUP5 SUB SLT ISZERO PUSH2 0x42D JUMPI PUSH2 0x42C PUSH2 0x527 JUMP JUMPDEST JUMPDEST PUSH1 0x0 PUSH2 0x43B DUP5 DUP3 DUP6 ADD PUSH2 0x3D5 JUMP JUMPDEST SWAP2 POP POP SWAP3 SWAP2 POP POP JUMP JUMPDEST PUSH2 0x44D DUP2 PUSH2 0x4EB JUMP JUMPDEST DUP3 MSTORE POP POP JUMP JUMPDEST PUSH1 0x0 PUSH2 0x460 PUSH1 0x2E DUP4 PUSH2 0x4DA JUMP JUMPDEST SWAP2 POP PUSH2 0x46B DUP3 PUSH2 0x52C JUMP JUMPDEST PUSH1 0x40 DUP3 ADD SWAP1 POP SWAP2 SWAP1 POP JUMP JUMPDEST PUSH1 0x0 PUSH1 0x20 DUP3 ADD SWAP1 POP PUSH2 0x48B PUSH1 0x0 DUP4 ADD DUP5 PUSH2 0x444 JUMP JUMPDEST SWAP3 SWAP2 POP POP JUMP JUMPDEST PUSH1 0x0 PUSH1 0x40 DUP3 ADD SWAP1 POP PUSH2 0x4A6 PUSH1 0x0 DUP4 ADD DUP6 PUSH2 0x444 JUMP JUMPDEST PUSH2 0x4B3 PUSH1 0x20 DUP4 ADD DUP5 PUSH2 0x444 JUMP JUMPDEST SWAP4 SWAP3 POP POP POP JUMP JUMPDEST PUSH1 0x0 PUSH1 0x20 DUP3 ADD SWAP1 POP DUP2 DUP2 SUB PUSH1 0x0 DUP4 ADD MSTORE PUSH2 0x4D3 DUP2 PUSH2 0x453 JUMP JUMPDEST SWAP1 POP SWAP2 SWAP1 POP JUMP JUMPDEST PUSH1 0x0 DUP3 DUP3 MSTORE PUSH1 0x20 DUP3 ADD SWAP1 POP SWAP3 SWAP2 POP POP JUMP JUMPDEST PUSH1 0x0 PUSH2 0x4F6 DUP3 PUSH2 0x4FD JUMP JUMPDEST SWAP1 POP SWAP2 SWAP1 POP JUMP JUMPDEST PUSH1 0x0 PUSH20 0xFFFFFFFFFFFFFFFFFFFFFFFFFFFFFFFFFFFFFFFF DUP3 AND SWAP1 POP SWAP2 SWAP1 POP JUMP JUMPDEST PUSH1 0x0 DUP2 SWAP1 POP SWAP2 SWAP1 POP JUMP JUMPDEST PUSH1 0x0 DUP1 REVERT JUMPDEST PUSH32 0x4E6F207469656E6573207065726D69736F732070617261207265616C697A6172 PUSH1 0x0 DUP3 ADD MSTORE PUSH32 0x20657374612066756E63696F6E2E000000000000000000000000000000000000 PUSH1 0x20 DUP3 ADD MSTORE POP JUMP JUMPDEST PUSH2 0x584 DUP2 PUSH2 0x4EB JUMP JUMPDEST DUP2 EQ PUSH2 0x58F JUMPI PUSH1 0x0 DUP1 REVERT JUMPDEST POP JUMP JUMPDEST PUSH2 0x59B DUP2 PUSH2 0x51D JUMP JUMPDEST DUP2 EQ PUSH2 0x5A6 JUMPI PUSH1 0x0 DUP1 REVERT JUMPDEST POP JUMP INVALID PUSH1 0x80 PUSH1 0x40 MSTORE CALLVALUE DUP1 ISZERO PUSH2 0x10 JUMPI PUSH1 0x0 DUP1 REVERT JUMPDEST POP PUSH1 0x40 MLOAD PUSH2 0x2AB CODESIZE SUB DUP1 PUSH2 0x2AB DUP4 CODECOPY DUP2 DUP2 ADD PUSH1 0x40 MSTORE DUP2 ADD SWAP1 PUSH2 0x32 SWAP2 SWAP1 PUSH2 0xCE JUMP JUMPDEST DUP1 PUSH1 0x0 DUP1 PUSH2 0x100 EXP DUP2 SLOAD DUP2 PUSH20 0xFFFFFFFFFFFFFFFFFFFFFFFFFFFFFFFFFFFFFFFF MUL NOT AND SWAP1 DUP4 PUSH20 0xFFFFFFFFFFFFFFFFFFFFFFFFFFFFFFFFFFFFFFFF AND MUL OR SWAP1 SSTORE POP ADDRESS PUSH1 0x1 PUSH1 0x0 PUSH2 0x100 EXP DUP2 SLOAD DUP2 PUSH20 0xFFFFFFFFFFFFFFFFFFFFFFFFFFFFFFFFFFFFFFFF MUL NOT AND SWAP1 DUP4 PUSH20 0xFFFFFFFFFFFFFFFFFFFFFFFFFFFFFFFFFFFFFFFF AND MUL OR SWAP1 SSTORE POP POP PUSH2 0x149 JUMP JUMPDEST PUSH1 0x0 DUP2 MLOAD SWAP1 POP PUSH2 0xC8 DUP2 PUSH2 0x132 JUMP JUMPDEST SWAP3 SWAP2 POP POP JUMP JUMPDEST PUSH1 0x0 PUSH1 0x20 DUP3 DUP5 SUB SLT ISZERO PUSH2 0xE4 JUMPI PUSH2 0xE3 PUSH2 0x12D JUMP JUMPDEST JUMPDEST PUSH1 0x0 PUSH2 0xF2 DUP5 DUP3 DUP6 ADD PUSH2 0xB9 JUMP JUMPDEST SWAP2 POP POP SWAP3 SWAP2 POP POP JUMP JUMPDEST PUSH1 0x0 PUSH2 0x106 DUP3 PUSH2 0x10D JUMP JUMPDEST SWAP1 POP SWAP2 SWAP1 POP JUMP JUMPDEST PUSH1 0x0 PUSH20 0xFFFFFFFFFFFFFFFFFFFFFFFFFFFFFFFFFFFFFFFF DUP3 AND SWAP1 POP SWAP2 SWAP1 POP JUMP JUMPDEST PUSH1 0x0 DUP1 REVERT JUMPDEST PUSH2 0x13B DUP2 PUSH2 0xFB JUMP JUMPDEST DUP2 EQ PUSH2 0x146 JUMPI PUSH1 0x0 DUP1 REVERT JUMPDEST POP JUMP JUMPDEST PUSH2 0x153 DUP1 PUSH2 0x158 PUSH1 0x0 CODECOPY PUSH1 0x0 RETURN INVALID PUSH1 0x80 PUSH1 0x40 MSTORE CALLVALUE DUP1 ISZERO PUSH2 0x10 JUMPI PUSH1 0x0 DUP1 REVERT JUMPDEST POP PUSH1 0x4 CALLDATASIZE LT PUSH2 0x36 JUMPI PUSH1 0x0 CALLDATALOAD PUSH1 0xE0 SHR DUP1 PUSH4 0xEA87DF0 EQ PUSH2 0x3B JUMPI DUP1 PUSH4 0x630EA6E2 EQ PUSH2 0x59 JUMPI JUMPDEST PUSH1 0x0 DUP1 REVERT JUMPDEST PUSH2 0x43 PUSH2 0x77 JUMP JUMPDEST PUSH1 0x40 MLOAD PUSH2 0x50 SWAP2 SWAP1 PUSH2 0xD0 JUMP JUMPDEST PUSH1 0x40 MLOAD DUP1 SWAP2 SUB SWAP1 RETURN JUMPDEST PUSH2 0x61 PUSH2 0x9B JUMP JUMPDEST PUSH1 0x40 MLOAD PUSH2 0x6E SWAP2 SWAP1 PUSH2 0xD0 JUMP JUMPDEST PUSH1 0x40 MLOAD DUP1 SWAP2 SUB SWAP1 RETURN JUMPDEST PUSH1 0x0 DUP1 SLOAD SWAP1 PUSH2 0x100 EXP SWAP1 DIV PUSH20 0xFFFFFFFFFFFFFFFFFFFFFFFFFFFFFFFFFFFFFFFF AND DUP2 JUMP JUMPDEST PUSH1 0x1 PUSH1 0x0 SWAP1 SLOAD SWAP1 PUSH2 0x100 EXP SWAP1 DIV PUSH20 0xFFFFFFFFFFFFFFFFFFFFFFFFFFFFFFFFFFFFFFFF AND DUP2 JUMP JUMPDEST PUSH2 0xCA DUP2 PUSH2 0xEB JUMP JUMPDEST DUP3 MSTORE POP POP JUMP JUMPDEST PUSH1 0x0 PUSH1 0x20 DUP3 ADD SWAP1 POP PUSH2 0xE5 PUSH1 0x0 DUP4 ADD DUP5 PUSH2 0xC1 JUMP JUMPDEST SWAP3 SWAP2 POP POP JUMP JUMPDEST PUSH1 0x0 PUSH2 0xF6 DUP3 PUSH2 0xFD JUMP JUMPDEST SWAP1 POP SWAP2 SWAP1 POP JUMP JUMPDEST PUSH1 0x0 PUSH20 0xFFFFFFFFFFFFFFFFFFFFFFFFFFFFFFFFFFFFFFFF DUP3 AND SWAP1 POP SWAP2 SWAP1 POP JUMP INVALID LOG2 PUSH5 0x6970667358 0x22 SLT KECCAK256 0x1E POP PUSH8 0x86107B9A26E05DB1 NUMBER 0xBD 0xAC GASLIMIT SWAP14 PUSH7 0x53A5C0CD89E545 0xE9 DUP5 0xE6 PUSH2 0x3AD LOG4 PUSH23 0x64736F6C63430008070033A2646970667358221220AB83 SWAP8 MUL 0xEE CREATE PUSH4 0x9A8E1610 PUSH6 0xBF744A22AEF5 0xA8 MULMOD 0x4B LOG3 0x49 PUSH17 0x645220F95BDADFB064736F6C6343000807 STOP CALLER "
				},
				"gasEstimates": {
					"creation": {
						"codeDepositCost": "437200",
						"executionCost": "24740",
						"totalCost": "461940"
					},
					"external": {
						"CentrosSalud(address)": "infinite",
						"FactoryCentroSalud()": "infinite",
						"OMS()": "2489",
						"direcciones_contratos_salud(uint256)": "4956"
					}
				},
				"methodIdentifiers": {
					"CentrosSalud(address)": "bacf5ac7",
					"FactoryCentroSalud()": "9687a42c",
					"OMS()": "057dd608",
					"direcciones_contratos_salud(uint256)": "7610d05d"
				}
			},
			"storageLayout": {
				"storage": [
					{
						"astId": 4,
						"contract": "OMS/oms.sol:OMS_COVID",
						"label": "OMS",
						"offset": 0,
						"slot": "0",
						"type": "t_address"
					},
					{
						"astId": 17,
						"contract": "OMS/oms.sol:OMS_COVID",
						"label": "Validacion_CentroSalud",
						"offset": 0,
						"slot": "1",
						"type": "t_mapping(t_address,t_bool)"
					},
					{
						"astId": 20,
						"contract": "OMS/oms.sol:OMS_COVID",
						"label": "direcciones_contratos_salud",
						"offset": 0,
						"slot": "2",
						"type": "t_array(t_address)dyn_storage"
					}
				],
				"types": {
					"t_address": {
						"encoding": "inplace",
						"label": "address",
						"numberOfBytes": "20"
					},
					"t_array(t_address)dyn_storage": {
						"base": "t_address",
						"encoding": "dynamic_array",
						"label": "address[]",
						"numberOfBytes": "32"
					},
					"t_bool": {
						"encoding": "inplace",
						"label": "bool",
						"numberOfBytes": "1"
					},
					"t_mapping(t_address,t_bool)": {
						"encoding": "mapping",
						"key": "t_address",
						"label": "mapping(address => bool)",
						"numberOfBytes": "32",
						"value": "t_bool"
					}
				}
			},
			"userdoc": {
				"kind": "user",
				"methods": {},
				"version": 1
			}
		}
	}
}